S01C00004C6F6769635F537769746368696E675F546573742E737265630C
S11300000C943E000C9448000C9448000C94480056
S11300100C9448000C9448000C9448000C9448003C
S11300200C9448000C9448000C9448000C9448002C
S11300300C9448000C9448000C9448000C9448001C
S11300400C9448000C9448000C9448000C9448000C
S11300500C9448000C9448000C9448000C944800FC
S11300600C9448000C9448000C9448000C944800EC
S11300700C9448000C9448000C94480011241FBEB2
S1130080CFEFD8E0DEBFCDBF0E9455000C947100C5
S11300900C94000080EB84B95C9A80E58CBD0895D3
S11300A08EBD0DB407FEFDCF08952FE38DE093E0E0
S11300B0215080409040E1F700C0000011B88AB19F
S11300C088638AB9569A5D9A0E944A005B985E9A40
S11300D05C9887E00E94500081E00E9450005C9A86
S10900E0FFCFF894FFCFEE
S9030000FC
