:100000000C943E000C9448000C9448000C9448005A
:100010000C9448000C9448000C9448000C94480040
:100020000C9448000C9448000C9448000C94480030
:100030000C9448000C9448000C9448000C94480020
:100040000C9448000C9448000C9448000C94480010
:100050000C9448000C9448000C9448000C94480000
:100060000C9448000C9448000C9448000C944800F0
:100070000C9448000C9448000C94480011241FBEB6
:10008000CFEFD8E0DEBFCDBF0E9457000C946500D3
:100090000C94000080EB84B95C9A80E58CBD0895D7
:1000A0005C988EBD0DB407FEFDCF5C9A08958FEF6E
:1000B00081B99AB198639AB990E29BB982B90E94CA
:0E00C0004A008FEF0E945000FFCFF894FFCF50
:00000001FF
