S011000052414D4D6F64756C652E73726563CD
S11300000C943E000C9448000C9448000C94480056
S11300100C9448000C9448000C9448000C9448003C
S11300200C9448000C9448000C9448000C9448002C
S11300300C9448000C9448000C9448000C9448001C
S11300400C9448000C9448000C9448000C9448000C
S11300500C9448000C9448000C9448000C944800FC
S11300600C9448000C9448000C9448000C944800EC
S11300700C9448000C9448000C94480011241FBEB2
S1130080CFEFD8E0DEBFCDBF0E9465000C946C00BA
S11300900C94000080EB84B9119A80E58CBD08951E
S11300A0119823E02EBD0DB407FEFDCF9EBD0DB407
S11300B007FEFDCF8EBD0DB407FEFDCF1EBC0DB4F3
S11300C007FEFDCF119A8EB508950E944A0080E084
S10F00D090E00E945000FFCFF894FFCF96
S9030000FC
