:100000000C9472000C948F000C948F000C948F0051
:100010000C948F000C948F000C948F000C948F0024
:100020000C948F000C948F000C948F000C948F0014
:100030000C948F000C948F000C948F000C948F0004
:100040000C948F000C948F000C948F000C948F00F4
:100050000C948F000C948F000C948F000C948F00E4
:100060000C948F000C948F000C948F000C948F00D4
:100070000C948F000C948F000C948F000C948F00C4
:100080000C948F000C948F000C948F000C948F00B4
:100090000C948F000C948F000C948F000C948F00A4
:1000A0000C948F000C948F000C948F000C948F0094
:1000B0000C948F000C948F000C948F000C948F0084
:1000C0000C948F000C948F000C948F000C948F0074
:1000D0000C948F000C948F000C948F000C948F0064
:1000E0000C948F0011241FBECFEFD1E2DEBFCDBF35
:1000F00013E0A0E0B2E0EEE1F4E102C005900D9261
:10010000AE32B107D9F723E0AEE2B3E001C01D92F1
:10011000A938B207E1F70E9443040C940D0A0C942D
:100120000000A4988EBD0DB407FEFDCFA49A0895DB
:100130009C9AA49AE4E0F1E0808184608083E5E009
:10014000F1E080818B7F808380E00E9491000895A0
:10015000109264031092630382E3E1E3F3E0DF01B2
:100160001D928A95E9F708950F931F93CF93DF931C
:10017000C1E3D3E006E313E060916303709164038D
:1001800080E090E00E94E105899380916303909163
:10019000640301969093640380936303C017D107AF
:1001A00059F700913203C6E3D3E010E0095C1C4F1D
:1001B000609163037091640380E090E00E94E10528
:1001C000609163037091640380E090E00E94E10518
:1001D00089938091630390916403019690936403E3
:1001E00080936303C017D10719F781E393E0DF9190
:1001F000CF911F910F910895EF92FF920F931F934C
:10020000CF93DF93C0E0D2E00F2EF2E3EF2EF2E0C7
:10021000FF2EF02D0FE412E089911F928F931F9310
:100220000F930E9448070F900F900F900F90CE15DC
:10023000DF0591F78AE090E00E945C0742E350E01E
:1002400060E070E080E092E00E942F05DF91CF91A6
:100250001F910F91FF90EF9008950E94E8050E9472
:1002600098000E94D60681E00E94F60684E00E9473
:10027000E80686E00E9408070E94E4060E94040740
:100280002FEF84E39CE0215080409040E1F700C0D4
:1002900000008AB18FEF8AB9389880930A0184B33D
:1002A000887F84BB08955D9A5C985B9880930B016E
:1002B00082E48A95F1F700C0589A82E48A95F1F7B2
:1002C00000C0589882E48A95F1F700C008955D98BF
:1002D0005C9A80930B0182E48A95F1F700C0589AEA
:1002E00082E48A95F1F700C0589882E48A95F1F784
:1002F00000C05B9A5D985C9A90930B0182E48A95AA
:10030000F1F700C0589A82E48A95F1F700C0589836
:1003100082E48A95F1F700C008955D985C985B9837
:1003200080930B0182E48A95F1F700C0589A82E429
:100330008A95F1F700C0589882E48A95F1F700C0D9
:1003400008955D985C985B9A90930B0182E48A957E
:10035000F1F700C0589A82E48A95F1F700C05898E6
:1003600082E48A95F1F700C008955A9822E42A950C
:10037000F1F700C05A9A82E48A95F1F700C09FEF26
:1003800029E688E1915020408040E1F700C000005C
:1003900008955D9A5C9810920B0182E48A95F1F7BA
:1003A00000C0589A82E48A95F1F700C0589882E418
:1003B0008A95F1F700C00895CF93C82F58988BB154
:1003C000837C8BB910920B011BB8E5E0F1E08081D2
:1003D0008B7F808381E00E949100C13011F40E94E4
:1003E0007C0687EC90E00197F1F700C000000E94C6
:1003F000E00695E89A95F1F700008BB186608BB91D
:100400008FE097E20197F1F700C00000CF910895C7
:1004100088E00E9453015D985C985B9810920B01F4
:1004200082E48A95F1F700C0589A92E49A95F1F720
:1004300000C0589887EC90E00197F1F700C00000E9
:1004400010920A01E5E0F1E0808184608083599890
:100450005B9887EE93E00197F1F700C00000809170
:10046000090180932E03599A80818B7F80838FEFBF
:1004700080930A0187EC90E00197F1F700C000003B
:100480005D985C985B9881E080930B0192E49A956B
:10049000F1F700C0589A82E48A95F1F700C05898A5
:1004A00087EC90E00197F1F700C0000010920A017C
:1004B00080818460808359985B9887EE93E00197F0
:1004C000F1F700C000008091090180932F03599A31
:1004D00080818B7F80838FEF80930A0187EC90E08F
:1004E0000197F1F700C000005D985C985B9882E08E
:1004F00080930B0192E49A95F1F700C0589A82E438
:100500008A95F1F700C0589887EC90E00197F1F7D1
:1005100000C0000010920A01808184608083599895
:100520005B9887EE93E00197F1F700C0000080919F
:10053000090180933003599A80818B7F80838FEFEC
:1005400080930A0110920B018EE293E008959F922E
:10055000AF92BF92CF92DF92EF92FF920F931F93D1
:10056000CF93DF9382E00E945301E12CF12C0F2EF8
:10057000FAE0AF2EBB24B394F02D05E011E00F2E6E
:10058000F9E0CF2EDD24D394F02DCFE4D2E09924EE
:100590009A9480E090E00E94A101C7010E948D0121
:1005A000F5011082F80180818460808359985B98FE
:1005B00087EE93E00197F1F700C00000F60180811B
:1005C0001F928F93DF93CF930E9448075B9AE7EEC9
:1005D000F3E03197F1F700C00000F60180811F922F
:1005E0008F93DF93CF930E944807599AF801808137
:1005F0008B7F8083F5019082F2E4FA95F1F700C0D9
:100600008FEFE81AF80AEDB7FEB738960FB6F894F0
:10061000FEBF0FBEEDBFF0E1EF16F10409F0B9CF58
:10062000DF91CF911F910F91FF90EF90DF90CF90CE
:10063000BF90AF909F9008955D9A5C985B9880E81A
:1006400080930B0122E42A95F1F700C0589A82E4C6
:100650008A95F1F700C0589892E49A95F1F700C096
:100660005A9822E42A95F1F700C05A9A82E48A95B2
:10067000F1F700C09FEF29E688E1915020408040CB
:10068000E1F700C0000008952F923F924F925F92D1
:100690006F927F928F929F92AF92BF92CF92DF9292
:1006A000EF92FF920F931F93CF93DF9300D000D070
:1006B000CDB7DEB780E10E945301812C912C54010B
:1006C0000F2EF7E52F2EF2E03F2EF02D0E94B40002
:1006D0003C01DC0114968C911497813009F46CC0B4
:1006E00011964C901197512C12968C91129790E084
:1006F000982F882713962C912695FC01E22BFA83DC
:10070000E9834114510409F445C06301F5E0CF0EBB
:10071000D11C09811A81E12CF12C1B821C82C80199
:100720000E948D011F930F933F922F920E944807C2
:10073000F301EE0DFF1DE680F12CFE2CEE24D60118
:100740008C91E82AC7010E946701FF92EF92A8E608
:10075000B2E0BF93AF930E9448072B813C81C9014F
:10076000AA2797FDA095BA2F880E991EAA1EBB1E18
:100770002E5F3F4F3C832B8379010F5F1F4F32E089
:10078000C30ED11C0FB6F894DEBF0FBECDBFE4146C
:10079000F50428F2D501C4018F719927AA27BB2738
:1007A000892B8A2B8B2B09F091CF89819A810E940A
:1007B000A1010E94B5018ACF5FE185229924AA2474
:1007C000BB2489288A288B2831F089819A810E944C
:1007D000A1010E94B5010E94C9010F900F900F90D6
:1007E0000F90DF91CF911F910F91FF90EF90DF90CD
:1007F000CF90BF90AF909F908F907F906F905F90C1
:100800004F903F902F9008950E94E2060E94E606C6
:100810000E9406078FE097E20197F1F700C0000001
:1008200010920B011BB88FEC97E00197F1F700C015
:10083000000080E00E949100E5E0F1E080818F7D82
:10084000808395E39A95F1F7000080818062808330
:100850002DE02A95F1F700002F9A85E38A95F1F7AC
:1008600000002F98808188608083A09A9FEF29E6FE
:1008700088E1915020408040E1F700C0000084B33F
:10088000887F84BB08950E94C8040E94A8000E942B
:10089000D40580EF92E00E9463070E94FC0042E3CF
:1008A00050E060E070E0CB010E9474050E942D01D1
:1008B00081E00E94DC010E940802EC018A811F9203
:1008C0008F9389811F928F9388811F928F9386E7E0
:1008D00092E09F938F930E9448078DB79EB708962A
:1008E0000FB6F8949EBF0FBE8DBF88818E3139F54B
:1008F0008981813921F58A818A3009F58EE992E072
:100900000E94630784EB92E00E9463070E941C032D
:100910000E94A7028FEB92E00E9463078EEC92E0A8
:100920000E9463070E9444038DED92E00E946307DA
:100930000E94A7028AEE92E00E94630704C082EF41
:1009400092E00E9463070E940404FFCFCF93C82F58
:100950008A3019F48DE00E94A604E0EDF0E0908169
:1009600095FFFDCFC093D60080E090E0CF91089531
:10097000CF93BC01E0EDF0E080818823ECF7C091DB
:10098000D6008C2F0E94A6048C2F90E0CF91089562
:100990001092D50083E38093D40088E18093D10046
:1009A00086E08093D2008CE392E09093840380935E
:1009B000830390938603809385030895A39885E02D
:1009C0008EBD0DB407FEFDCF1EBC0DB407FEFDCFDE
:1009D000A39A8EB590E00895A39891E09EBD0DB4C2
:1009E00007FEFDCF8EBD0DB407FEFDCFA39A08957F
:1009F000262F972F482F82E08EBD0DB407FEFDCF26
:100A00004EBD0DB407FEFDCF892F8EBD0DB407FE80
:100A1000FDCF2EBD0DB407FEFDCF08958EBD0DB4E4
:100A200007FEFDCF0895262F972F482F83E08EBD18
:100A30000DB407FEFDCF4EBD0DB407FEFDCF892FCF
:100A40008EBD0DB407FEFDCF2EBD0DB407FEFDCF4C
:100A500008951EBC0DB407FEFDCF8EB50895AF926C
:100A6000BF92CF92DF92EF92FF920F931F93CF939B
:100A7000DF93EC018B015A01A3986B01E12CF12C5F
:100A8000C701B6010E94F80480E00E940E05A39AF7
:100A900080E40E94EC040E94DE04A398C701B60122
:100AA0000E94F804A114B10491F0650180E090E087
:100AB000E12CF12CFE01E80FF91F80810E940E0548
:100AC0008FEFE81AF80AC701EC14FD0499F7A39A0E
:100AD000C801DF91CF911F910F91FF90EF90DF90B0
:100AE000CF90BF90AF900895EF92FF920F931F9316
:100AF000CF93DF93C62FD72F182F092F7A0180E4C9
:100B00000E94EC04A3986C2F7D2F812F902F0E94C0
:100B100013050F931F93DF93CF9382E193E09F938D
:100B20008F930E9448070F900F900F900F900F9097
:100B30000F90E114F104A9F0C0E0D0E00FE412E05E
:100B40000E9429051F928F931F930F930E944807BD
:100B500021960F900F900F900F90CE15DF0581F723
:100B600002C0E12CF12CA39AFF92EF9283E293E072
:100B70009F938F930E9448070F900F900F900F90B4
:100B8000DF91CF911F910F91FF90EF900895CF9338
:100B9000C82FA398CB01BA010E94F8048C2F0E94A1
:100BA0000E05A39ACF91089587E084B99B9AA39AE2
:100BB00081E58CBD40E050E0BA0182E30E94C705A8
:100BC0000895A3980E9413050E942905A39A0895E9
:100BD00084B1876084B982E58CBDE4E0F1E0808176
:100BE00088638083279A2F98E5E0F1E0808188630D
:100BF000808308958EBD0DB407FEFDCF0895E5E016
:100C0000F1E080818F7D808382E48A95F1F700C0D6
:100C10008081806280832F9A85E38A95F1F70000B6
:100C20002F988081877F80830895DB0190E0FC010D
:100C3000EE0FFF1FEE0FFF1FE80FF91FEB59FC4FE0
:100C400080E090E02D912193019685309105D1F7B8
:100C50000895AF92BF92CF92DF92EF92FF920F93DF
:100C60001F93CF93DF930E94FF05E5E0F1E08081C1
:100C70008F7E8083C5E6D3E00AE613E089910E9467
:100C8000FA05C017D107D1F7E5E0F1E08081806176
:100C900080830F2EFAE6EF2EF3E0FF2EF02D0F2EBD
:100CA000F3E8CF2EF3E0DF2EF02DA12CB12C0FC0F6
:100CB000F80181918F010E94FA052196C530D10576
:100CC000B9F7F5E0EF0EF11CEC14FD0421F08701FB
:100CD000CA2DDB2DEDCF2F9AF5E3FA95F1F7000041
:100CE0002F98DF91CF911F910F91FF90EF90DF90A0
:100CF000CF90BF90AF900895CF93DF9300D000D0F6
:100D00001F92CDB7DEB785E0EAE4F2E0DE0111968E
:100D100001900D928A95E1F7BE016F5F7F4F80E0F1
:100D20000E94150619821A821B821C821D82BE0136
:100D30006F5F7F4F81E00E94150619821A8288E05A
:100D40008B831C821D82BE016F5F7F4F82E00E94F9
:100D5000150619821A821B821C821D82BE016F5FDA
:100D60007F4F83E00E941506198280E28A831B82EE
:100D70001C821D82BE016F5F7F4F84E00E941506BA
:100D800019821A821B8284E08C831D82BE016F5FF0
:100D90007F4F85E00E9415060E9429060F900F9054
:100DA0000F900F900F90DF91CF9108958FEF80BB40
:100DB00011BA84B1806784B985B18F7885B90895F7
:100DC0002C9A08952C9808952D9A08952D98089599
:100DD00041B321E030E0B90102C0660F771F8A9568
:100DE000E2F7CB01842B81BB81E0089541B321E080
:100DF00030E0B90102C0660F771F8A95E2F7CB0198
:100E0000842B81BB81E008952E9A08952E98089531
:100E100041B321E030E0B90102C0660F771F8A9527
:100E2000E2F7CB01842B81BB81E008950F931F93E0
:100E3000CF93DF93182F092FEB018B8181FD03C026
:100E40008FEF9FEF20C082FF10C04E815F812C8109
:100E50003D81421753077CF4E881F9819F012F5FA0
:100E60003F4F39832883108306C0E885F985812F99
:100E70000995892B29F72E813F812F5F3F4F3F83B3
:100E80002E83812F902FDF91CF911F910F91089585
:100E9000A0E0B0E0EEE4F7E00C94E609FE01359640
:100EA00061917191AF0180918503909186030E94B9
:100EB0009007E2E00C94020A60918503709186032A
:100EC0000E94160708950F931F93CF93DF93E0912D
:100ED0008503F0918603238121FF1BC0EC0100E014
:100EE00010E089916091850370918603DB0118966B
:100EF000ED91FC911997882331F00995892B89F39D
:100F00000FEF1FEFEECF8AE00995892B11F4C8018E
:100F100002C08FEF9FEFDF91CF911F910F91089546
:100F2000ACE0B0E0E6E9F7E00C94D6097C016B0197
:100F30008A01FC0117821682838181FFBDC1CE0127
:100F400001964C01F7019381F60193FD859193FF82
:100F500081916F01882309F4ABC1853239F493FD87
:100F6000859193FF81916F01853229F4B70190E05B
:100F70000E941607E7CF512C312C20E02032A0F43C
:100F80008B3269F030F4803259F0833269F4206199
:100F90002CC08D3239F0803339F4216026C02260B4
:100FA000246023C0286021C027FD27C030ED380F02
:100FB0003A3078F426FF06C0FAE05F9E300D112427
:100FC000532E13C08AE0389E300D1124332E206238
:100FD0000CC08E3221F426FD6BC1206406C08C3615
:100FE00011F4206802C0883641F4F60193FD859122
:100FF00093FF81916F018111C1CF982F9F7D9554EF
:10100000933028F40C5F1F4FFFE3F9830DC0833644
:1010100031F0833771F0833509F05BC022C0F801ED
:10102000808189830E5F1F4F44244394512C5401C7
:1010300015C03801F2E06F0E711CF801A080B1807C
:1010400026FF03C0652D70E002C06FEF7FEFC50182
:101050002C870E946D092C0183012C852F77222E6D
:1010600017C03801F2E06F0E711CF801A080B1804A
:1010700026FF03C0652D70E002C06FEF7FEFC50152
:101080002C870E9462092C012C852068222E830166
:1010900023FC1BC0832D90E048165906B0F4B7011D
:1010A00080E290E00E9416073A94F4CFF50127FC05
:1010B000859127FE81915F01B70190E00E9416079C
:1010C00031103A94F1E04F1A51084114510471F76C
:1010D000E5C0843611F0893639F5F80127FF07C0DD
:1010E00060817181828193810C5F1F4F08C0608194
:1010F0007181882777FD8095982F0E5F1F4F2F767F
:10110000B22E97FF09C090958095709561957F4F9D
:101110008F4F9F4F2068B22E2AE030E0A4010E943A
:101120007809A82EA81844C0853729F42F7EB22E3E
:101130002AE030E025C0F22FF97FBF2E8F36C1F0B4
:1011400018F4883579F0B4C0803719F0883721F069
:10115000AFC02F2F2061B22EB4FE0DC08B2D846046
:10116000B82E09C024FF0AC09F2F9660B92E06C072
:1011700028E030E005C020E130E002C020E132E0AC
:10118000F801B7FE07C060817181828193810C5F95
:101190001F4F06C06081718180E090E00E5F1F4F9D
:1011A000A4010E947809A82EA818FB2DFF77BF2E56
:1011B000B6FE0BC02B2D2E7FA51450F4B4FE0AC032
:1011C000B2FC08C02B2D2E7E05C07A2C2B2D03C01F
:1011D0007A2C01C0752C24FF0DC0FE01EA0DF11D13
:1011E0008081803311F4297E09C022FF06C07394E8
:1011F000739404C0822F867809F0739423FD13C082
:1012000020FF06C05A2C731418F4530C5718732C73
:10121000731468F4B70180E290E02C870E941607EF
:1012200073942C85F5CF731410F4371801C0312C4A
:1012300024FF12C0B70180E390E02C870E941607BC
:101240002C8522FF17C021FF03C088E590E002C073
:1012500088E790E0B7010CC0822F867859F021FD15
:1012600002C080E201C08BE227FD8DE2B70190E071
:101270000E941607A51438F4B70180E390E00E949D
:1012800016075A94F7CFAA94F401EA0DF11D808154
:10129000B70190E00E941607A110F5CF332009F4A2
:1012A00051CEB70180E290E00E9416073A94F6CF43
:1012B000F7018681978102C08FEF9FEF2C96E2E1C4
:1012C0000C94F209FC010590615070400110D8F7B0
:1012D000809590958E0F9F1F0895FC01615070407E
:1012E00001900110D8F7809590958E0F9F1F08955B
:1012F000FA01AA27283051F1203181F1E8946F9347
:101300006E7F6E5F7F4F8F4F9F4FAF4FB1E03ED0EC
:10131000B4E03CD0670F781F891F9A1FA11D680F8A
:10132000791F8A1F911DA11D6A0F711D811D911DBD
:10133000A11D20D009F468943F912AE0269F112432
:101340003019305D3193DEF6CF010895462F477096
:10135000405D4193B3E00FD0C9F7F6CF462F4F70F1
:10136000405D4A3318F0495D31FD4052419302D04F
:10137000A9F7EACFB4E0A6959795879577956795F5
:10138000BA95C9F700976105710508959B01AC01F5
:101390000A2E06945795479537952795BA95C9F71C
:1013A000620F731F841F951FA01D08952F923F92F7
:1013B0004F925F926F927F928F929F92AF92BF9265
:1013C000CF92DF92EF92FF920F931F93CF93DF9311
:1013D000CDB7DEB7CA1BDB0B0FB6F894DEBF0FBE6E
:1013E000CDBF09942A88398848885F846E847D84BB
:1013F0008C849B84AA84B984C884DF80EE80FD80BD
:101400000C811B81AA81B981CE0FD11D0FB6F89432
:0E141000DEBF0FBECDBFED010895F894FFCFF3
:10141E003A1000000014C019C018C017C016C0152D
:10142E00C014C013C0423A1000100012C011C010F8
:10143E00C00FC00EC00DC00CC00BC06C3A00000037
:10144E0001FF00000000000000000000000000038B
:10145E0000000000A604B8040000001FF7D0003002
:10146E0078253032582000416464726573733A20D7
:10147E003078253034580A00576F72643A2030782D
:10148E00253034580A000A5369676E6174757265A7
:10149E002042797465733A203078253032582030E6
:1014AE007825303258203078253032580A0053745F
:1014BE00617274696E672050726F6772616D6D69CB
:1014CE006E67210045726173696E672E2E2E000ABB
:1014DE00446F6E652045726173696E6721005072AC
:1014EE006F6772616D6D696E672E2E2E0056657276
:1014FE00696679696E672E2E2E000A446F6E65211D
:10150E000A004552524F523A205369676E61747504
:10151E007265204279746573204D69736D617463D1
:10152E006800416464726573733A203078253036F2
:0E153E00780A000A53697A653A2025640A008B
:00000001FF
