:100000000C943E000C945B000C945B000C945B0021
:100010000C945B000C945B000C945B000C945B00F4
:100020000C945B000C945B000C945B000C945B00E4
:100030000C945B000C945B000C945B000C945B00D4
:100040000C945B000C945B000C945B000C945B00C4
:100050000C945B000C945B000C945B000C945B00B4
:100060000C945B000C945B000C945B000C945B00A4
:100070000C9407020C945B000C945B0011241FBECF
:10008000CFEFD8E0DEBFCDBF12E0A0E0B1E0E2E408
:10009000FDE002C005900D92A434B107D9F723E02A
:1000A000A4E4B2E001C01D92AB31B207E1F70E94B7
:1000B0007C000C949F060C940000549A5598089567
:1000C00048E151E06AE171E082E00E9492014DE274
:1000D00051E06FE271E082E00E94920148E151E05C
:1000E00069E471E082E00E94920143E651E067E634
:1000F00071E082E00C9492010E94CD000E94B00059
:1001000078940E945D000E9460000E94C6000E94D8
:10011000180188EB91E00E94C30380E090E008950D
:10012000CF93C82F8A3019F48DE00E9490008091FF
:10013000C00085FFFCCFC093C60080E090E0CF9167
:100140000895CF93BC018091C00087FFFCCFC09180
:10015000C6008C2F0E9490008C2F90E0CF910895C4
:100160001092C50081E08093C40088E18093C100B3
:1001700086E08093C20086E091E09093160380931E
:1001800015039093180380931703089581E090E07E
:10019000909345028093440208951092CD0081E02F
:1001A0008093CC00E9ECF0E088E1808386E08093E6
:1001B000CA00808180688083099A0895FC019F01AC
:1001C000281B390B41914111FACFC90108952091A3
:1001D000C90020682093C900109246022EEE32E03A
:1001E000EDEAF2E0DF01A9011D9241505040E1F734
:1001F0005C9A40E0242F30E02617370760F45091D6
:10020000C80055FFFCCFFC01E20FF31F20812093B3
:10021000CE004F5FEFCF80E090E008958091C8005E
:1002200087FFFCCF82B1809582B98091CE0008957E
:1002300080914602811105C081E28A95F1F70000A4
:10024000F7CF8DEA92E09F938F9381EC91E09F939B
:100250008F930E94A8030F900F900F900F908DEA3C
:1002600092E008950F931F93CF93DF938091440200
:1002700090914502892BE9F0C8EAD2E004ED11E043
:10028000FE012196FF93EF9380811F928F931F931E
:100290000F930E94A8030F900F900F900F900F9054
:1002A0000F9082E0C43BD80759F78AE090E00E94A3
:1002B000BC038091B2028F702091B1022F7094E63E
:1002C000299F900111249AE0899F200D311D11244E
:1002D0008091B3028F70280F311D6091B0026F7052
:1002E00048EE53E0649FC001659F900D1124280FD4
:1002F000391F6091AF026F7040E157E2649FC00107
:10030000659F900D1124280F391F2E3E82E038077B
:1003100018F086EE92E001C0C901DF91CF911F91E4
:100320000F910895CF92DF92EF92FF920F931F9358
:10033000CF93DF9300D0CDB7DEB7282F8B016A01B2
:1003400082E390E029830E9476027C01298121309A
:1003500031F0223039F02F3F09F04CC008C06CEE6C
:1003600071E002C061EF71E0C7010E949D03B80116
:10037000C7010E949D0383E3C81682E0D80649F0B6
:100380006FEE71E0C7010E949D03B601C7010E9494
:100390009D0364E171E0C7010E949D03C7010E94B3
:1003A000DE00BC01FF92EF927F938F93FF92EF925A
:1003B00026EF31E03F932F9389837A830E94A8032D
:1003C00069817A81C7010E94E7005C9A0FB6F894B0
:1003D000DEBF0FBECDBF80914602811105C0F3E0A4
:1003E000FA95F1F70000F7CFC7010E940E0381E0F4
:1003F00090E002C080E090E00F900F90DF91CF91ED
:100400001F910F91FF90EF90DF90CF9008951F9272
:100410000F920FB60F9211240F931F932F933F93B8
:100420004F935F936F937F938F939F93AF93BF93FC
:10043000CF93DF93EF93FF93F894C0914702D0914D
:100440004802C730D10530F40E940E01C355DD4F7C
:1004500088832DC0C730D10551F18E0103551D4F42
:10046000609728F40E940E01F801808320C0F801F3
:1004700010828091C9008F778093C9001092480242
:100480001092470281E0809346020E9432019F93BE
:100490008F938BE192E09F938F930E94A80384E354
:1004A00092E00E94C3030F900F900F900F908091E5
:1004B0004702909148020196909348028093470228
:1004C0007894FF91EF91DF91CF91BF91AF919F9180
:1004D0008F917F916F915F914F913F912F911F91DC
:1004E0000F910F900FBE0F901F901895CF93DF9331
:1004F0008230910510F482E090E0E0911303F091D6
:10050000140320E030E0A0E0B0E0309739F1408102
:10051000518148175907B8F04817590771F482817B
:100520009381109729F013969C938E9312972CC069
:10053000909314038093130327C02115310531F0E4
:100540004217530718F0A901DB0101C0EF019A011E
:10055000BD01DF010280F381E02DD7CF21153105E8
:10056000F9F0281B390B2430310580F48A819B81F6
:100570006115710521F0FB019383828304C0909380
:10058000140380931303FE01329644C0FE01E20F70
:10059000F31F8193919322503109398328833AC004
:1005A0002091110330911203232B41F42091020179
:1005B0003091030130931203209311032091000125
:1005C000309101012115310541F42DB73EB740911D
:1005D000040150910501241B350BE0911103F091AA
:1005E0001203E217F307A0F42E1B3F0B281739075D
:1005F00078F0AC014E5F5F4F2417350748F04E0F7F
:100600005F1F50931203409311038193919302C093
:10061000E0E0F0E0CF01DF91CF910895CF93DF9339
:10062000009709F487C0FC01329713821282C091AF
:100630001303D0911403209781F420813181280F76
:10064000391F80911103909112038217930779F556
:10065000F0931203E09311036DC0DE0120E030E05F
:10066000AE17BF0750F412964D915C9113979D0100
:100670004115510509F1DA01F3CFB383A28340811B
:100680005181840F951F8A179B0771F48D919C915E
:100690001197840F951F02969183808312968D91F6
:1006A0009C911397938382832115310529F4F0934C
:1006B0001403E09313033EC0D9011396FC93EE9309
:1006C00012974D915D91A40FB51FEA17FB0779F4BE
:1006D00080819181840F951F0296D90111969C9378
:1006E0008E938281938113969C938E931297E0E070
:1006F000F0E08A819B81009719F0FE01EC01F9CFAF
:10070000CE01029628813981820F931F2091110317
:10071000309112032817390769F4309729F41092A1
:1007200014031092130302C013821282D093120397
:10073000C0931103DF91CF910895FB01DC010D906F
:100740000020E9F7119701900D920020E1F708953C
:10075000A0E0B0E0EEEAF3E00C947806FE013596F6
:1007600061917191AF0180911703909118030E94DC
:10077000F003E2E00C949406609117037091180363
:100780000E94D80508950F931F93CF93DF93E091B4
:100790001703F0911803238121FF1BC0EC0100E037
:1007A00010E089916091170370911803DB0118968E
:1007B000ED91FC911997882331F00995892B89F3E4
:1007C0000FEF1FEFEECF8AE00995892B11F4C801D6
:1007D00002C08FEF9FEFDF91CF911F910F9108958E
:1007E000ACE0B0E0E6EFF3E00C9468067C016B014E
:1007F0008A01FC0117821682838181FFBDC1CE016F
:1008000001964C01F7019381F60193FD859193FFC9
:1008100081916F01882309F4ABC1853239F493FDCE
:10082000859193FF81916F01853229F4B70190E0A2
:100830000E94D805E7CF512C312C20E02032A0F4C3
:100840008B3269F030F4803259F0833269F42061E0
:100850002CC08D3239F0803339F4216026C02260FB
:10086000246023C0286021C027FD27C030ED380F49
:100870003A3078F426FF06C0FAE05F9E300D11246E
:10088000532E13C08AE0389E300D1124332E20627F
:100890000CC08E3221F426FD6BC1206406C08C365C
:1008A00011F4206802C0883641F4F60193FD859169
:1008B00093FF81916F018111C1CF982F9F7D955436
:1008C000933028F40C5F1F4FFFE3F9830DC083368C
:1008D00031F0833771F0833509F05BC022C0F80135
:1008E000808189830E5F1F4F44244394512C54010F
:1008F00015C03801F2E06F0E711CF801A080B180C4
:1009000026FF03C0652D70E002C06FEF7FEFC501C9
:100910002C870E94CD052C0183012C852F77222E58
:1009200017C03801F2E06F0E711CF801A080B18091
:1009300026FF03C0652D70E002C06FEF7FEFC50199
:100940002C870E94C2052C012C852068222E830151
:1009500023FC1BC0832D90E048165906B0F4B70164
:1009600080E290E00E94D8053A94F4CFF50127FC8C
:10097000859127FE81915F01B70190E00E94D80523
:1009800031103A94F1E04F1A51084114510471F7B3
:10099000E5C0843611F0893639F5F80127FF07C024
:1009A00060817181828193810C5F1F4F08C06081DB
:1009B0007181882777FD8095982F0E5F1F4F2F76C6
:1009C000B22E97FF09C090958095709561957F4FE5
:1009D0008F4F9F4F2068B22E2AE030E0A4010E9482
:1009E0000A06A82EA81844C0853729F42F7EB22EF7
:1009F0002AE030E025C0F22FF97FBF2E8F36C1F0FC
:100A000018F4883579F0B4C0803719F0883721F0B0
:100A1000AFC02F2F2061B22EB4FE0DC08B2D84608D
:100A2000B82E09C024FF0AC09F2F9660B92E06C0B9
:100A300028E030E005C020E130E002C020E132E0F3
:100A4000F801B7FE07C060817181828193810C5FDC
:100A50001F4F06C06081718180E090E00E5F1F4FE4
:100A6000A4010E940A06A82EA818FB2DFF77BF2E0E
:100A7000B6FE0BC02B2D2E7FA51450F4B4FE0AC079
:100A8000B2FC08C02B2D2E7E05C07A2C2B2D03C066
:100A90007A2C01C0752C24FF0DC0FE01EA0DF11D5A
:100AA0008081803311F4297E09C022FF06C073942F
:100AB000739404C0822F867809F0739423FD13C0C9
:100AC00020FF06C05A2C731418F4530C5718732CBB
:100AD000731468F4B70180E290E02C870E94D80577
:100AE00073942C85F5CF731410F4371801C0312C92
:100AF00024FF12C0B70180E390E02C870E94D80544
:100B00002C8522FF17C021FF03C088E590E002C0BA
:100B100088E790E0B7010CC0822F867859F021FD5C
:100B200002C080E201C08BE227FD8DE2B70190E0B8
:100B30000E94D805A51438F4B70180E390E00E9424
:100B4000D8055A94F7CFAA94F401EA0DF11D8081DB
:100B5000B70190E00E94D805A110F5CF332009F429
:100B600051CEB70180E290E00E94D8053A94F6CFCA
:100B7000F7018681978102C08FEF9FEF2C96E2E10B
:100B80000C948406FC010590615070400110D8F768
:100B9000809590958E0F9F1F0895FC0161507040C5
:100BA00001900110D8F7809590958E0F9F1F0895A2
:100BB0000F931F93CF93DF93182F092FEB018B8196
:100BC00081FD03C08FEF9FEF20C082FF10C04E81D8
:100BD0005F812C813D81421753077CF4E881F981C4
:100BE0009F012F5F3F4F39832883108306C0E8851C
:100BF000F985812F0995892B29F72E813F812F5F58
:100C00003F4F3F832E83812F902FDF91CF911F91F4
:100C10000F910895FA01AA27283051F1203181F16E
:100C2000E8946F936E7F6E5F7F4F8F4F9F4FAF4FF4
:100C3000B1E03ED0B4E03CD0670F781F891F9A1F07
:100C4000A11D680F791F8A1F911DA11D6A0F711DBB
:100C5000811D911DA11D20D009F468943F912AE0C7
:100C6000269F11243019305D3193DEF6CF010895AF
:100C7000462F4770405D4193B3E00FD0C9F7F6CFE0
:100C8000462F4F70405D4A3318F0495D31FD4052A8
:100C9000419302D0A9F7EACFB4E0A695979587953E
:100CA00077956795BA95C9F700976105710508951D
:100CB0009B01AC010A2E06945795479537952795C9
:100CC000BA95C9F7620F731F841F951FA01D089561
:100CD0002F923F924F925F926F927F928F929F924C
:100CE000AF92BF92CF92DF92EF92FF920F931F933A
:100CF000CF93DF93CDB7DEB7CA1BDB0B0FB6F894EB
:100D0000DEBF0FBECDBF09942A88398848885F842A
:100D10006E847D848C849B84AA84B984C884DF809B
:100D2000EE80FD800C811B81AA81B981CE0FD11D7F
:100D30000FB6F894DEBF0FBECDBFED010895F89455
:020D4000FFCFE3
:100D420000001B03200000000003000000009000D0
:100D5200A10000000D0A0000300073797374656D04
:100D62002E7072696E745F6C6576656C003100730B
:100D7200797374656D2E636D642E68656164657246
:100D82005F656E61626C65640073797374656D2E64
:100D9200636D642E70726F6D70745F656E61626CEC
:100DA2006564006F66660073797374656D2E636D9A
:100DB200642E6563686F006F6E007363616E007707
:100DC2006C616E2E7373696400776C616E2E706154
:100DD20073736B6579007777772E77692D70726FF1
:100DE2002E757300687474705F6765740074637045
:100DF2005F636C69656E7400446F6E6521002573D4
:100E020000526563656976656420446174613A20C5
:100E120025730A0056616C75653A2025632C2041C2
:100E22006464726573733A2025700A0067657420E2
:100E3200007365742000436F6D6D616E643A202506
:100E420073204C656E6774683A2025642C204164D7
:100E520064726573733A2025700A005472616E736E
:100E62006D697373696F6E204C656E6774683A20A2
:100E720025640A00446F6E65205265636569766970
:040E82006E67210076
:00000001FF
