:100000000C943E000C945B000C945B000C945B0021
:100010000C945B000C945B000C945B000C945B00F4
:100020000C945B000C945B000C945B000C945B00E4
:100030000C945B000C945B000C945B000C945B00D4
:100040000C945B000C945B000C945B000C945B00C4
:100050000C945B000C945B000C945B000C945B00B4
:100060000C945B000C945B000C945B000C945B00A4
:100070000C9489010C945B000C945B0011241FBE4E
:10008000CFEFD8E0DEBFCDBF11E0A0E0B1E0E4E10A
:10009000FAE002C005900D92A63EB107D9F724E020
:1000A000A6EEB1E001C01D92AF3DB207E1F70E949C
:1000B0005D000C9408050C9400000F931F93CF93E0
:1000C000DF930E94D0000E94BA00789467E070E04D
:1000D00084E191E00E94E0000E9424018C018CE107
:1000E00091E00E942C021F930F932BE231E03F938B
:1000F0002F930E941102E8010F900F900F900F9024
:1001000000E010E0899190E00E9425020F5F1F4FF0
:10011000003B1105B9F78AE090E00E9425028EE3CA
:1001200091E00E942C0280E090E0DF91CF911F913E
:100130000F910895CF93C82F8A3019F48DE00E9453
:100140009A008091C00085FFFCCFC093C60080E07C
:1001500090E0CF910895CF93BC018091C00087FFBC
:10016000FCCFC091C6008C2F0E949A008C2F90E08B
:10017000CF9108951092C5008CE08093C40088E16F
:100180008093C10086E08093C20086E091E0909366
:10019000DA048093D9049093DC048093DB040895FF
:1001A0001092CD008CE08093CC00E9ECF0E088E187
:1001B000808386E08093CA00808180688083089570
:1001C0000F931F93CF93DF93EC018B01DF93CF93BA
:1001D000DF93CF9384E491E09F938F930E94110269
:1001E0000F900F900F900F900F900F9020E0822FA4
:1001F00090E00817190760F03091C80035FFFCCF78
:10020000FE01E80FF91F80818093CE002F5FEFCFB2
:100210001092E8014BEE51E060E070E0CA010E94EC
:100220000A028091C90080688093C90080E090E054
:10023000DF91CF911F910F9108958091C80087FFA2
:10024000FCCF8091CE0008958AE691E00E942C02B6
:100250008091E801811105C081E28A95F1F70000E3
:10026000F7CF8BEE91E09F938F938BE291E09F937A
:100270008F930E9411020F900F900F900F908BEEB2
:1002800091E00895CF93DF93CBEED1E0899190E098
:100290000E94250281E0C23FD807C1F78AE090E0C2
:1002A0000E9425028091F0018F702091EF012F7044
:1002B00094E6299F900111249AE0899F200D311D19
:1002C00011248091F1018F70280F311D6091EE0192
:1002D0006F7048EE53E0649FC001659F900D11243C
:1002E000280F391F6091ED016F7040E157E2649F64
:1002F000C001659F900D1124280F391F2E3E82E00A
:10030000380718F08EEE92E001C0C901DF91CF915D
:1003100008951F920F920FB60F9211240F931F93FF
:100320002F933F934F935F936F937F938F939F93FD
:10033000AF93BF93CF93DF93EF93FF93F894C09164
:10034000E901D091EA01C730D10530F40E941D01C6
:10035000C551DE4F88833FC0C730D10579F40E9474
:1003600042018093E6019093E7019F938F938CEB7A
:1003700091E09F938F930E94110229C08E01055135
:100380001E4FC03BD10528F40E941D01F801808357
:1003900022C0F80110828091C9008F778093C90034
:1003A0001092EA011092E90181E08093E8018091C6
:1003B000E7018F938091E6018F938CEB91E09F93FF
:1003C0008F930E94110285ED91E00E942C020F9004
:1003D0000F900F900F908091E9019091EA010196A2
:1003E0009093EA018093E9017894FF91EF91DF9176
:1003F000CF91BF91AF919F918F917F916F915F91BD
:100400004F913F912F911F910F910F900FBE0F9021
:100410001F901895DC0101C06D9341505040E0F7EA
:100420000895A0E0B0E0E7E1F2E00C94E104FE0101
:10043000359661917191AF018091DB049091DC045C
:100440000E945902E2E00C94FD046091DB0470917B
:10045000DC040E94410408950F931F93CF93DF9310
:10046000E091DB04F091DC04238121FF1BC0EC014F
:1004700000E010E089916091DB047091DC04DB0105
:100480001896ED91FC911997882331F00995892BE5
:1004900089F30FEF1FEFEECF8AE00995892B11F456
:1004A000C80102C08FEF9FEFDF91CF911F910F9195
:1004B0000895ACE0B0E0EFE5F2E00C94D1047C01EB
:1004C0006B018A01FC0117821682838181FFBDC105
:1004D000CE0101964C01F7019381F60193FD8591C0
:1004E00093FF81916F01882309F4ABC1853239F400
:1004F00093FD859193FF81916F01853229F4B701B6
:1005000090E00E944104E7CF512C312C20E02032B2
:10051000A0F48B3269F030F4803259F0833269F400
:1005200020612CC08D3239F0803339F4216026C02F
:100530002260246023C0286021C027FD27C030ED41
:10054000380F3A3078F426FF06C0FAE05F9E300D8F
:100550001124532E13C08AE0389E300D1124332EFF
:1005600020620CC08E3221F426FD6BC1206406C0CF
:100570008C3611F4206802C0883641F4F60193FDF0
:10058000859193FF81916F018111C1CF982F9F7D3C
:100590009554933028F40C5F1F4FFFE3F9830DC08F
:1005A000833631F0833771F0833509F05BC022C0A8
:1005B000F801808189830E5F1F4F44244394512C9E
:1005C000540115C03801F2E06F0E711CF801A080D3
:1005D000B18026FF03C0652D70E002C06FEF7FEF92
:1005E000C5012C870E9436042C0183012C852F77AE
:1005F000222E17C03801F2E06F0E711CF801A080A6
:10060000B18026FF03C0652D70E002C06FEF7FEF61
:10061000C5012C870E942B042C012C852068222EDA
:10062000830123FC1BC0832D90E048165906B0F4CB
:10063000B70180E290E00E9441043A94F4CFF501C2
:1006400027FC859127FE81915F01B70190E00E9410
:10065000410431103A94F1E04F1A51084114510409
:1006600071F7E5C0843611F0893639F5F80127FFB6
:1006700007C060817181828193810C5F1F4F08C028
:1006800060817181882777FD8095982F0E5F1F4FBD
:100690002F76B22E97FF09C0909580957095619541
:1006A0007F4F8F4F9F4F2068B22E2AE030E0A40189
:1006B0000E947304A82EA81844C0853729F42F7E01
:1006C000B22E2AE030E025C0F22FF97FBF2E8F3600
:1006D000C1F018F4883579F0B4C0803719F0883744
:1006E00021F0AFC02F2F2061B22EB4FE0DC08B2D94
:1006F0008460B82E09C024FF0AC09F2F9660B92ECF
:1007000006C028E030E005C020E130E002C020E172
:1007100032E0F801B7FE07C0608171818281938168
:100720000C5F1F4F06C06081718180E090E00E5F1A
:100730001F4FA4010E947304A82EA818FB2DFF7759
:10074000BF2EB6FE0BC02B2D2E7FA51450F4B4FE89
:100750000AC0B2FC08C02B2D2E7E05C07A2C2B2D92
:1007600003C07A2C01C0752C24FF0DC0FE01EA0DD8
:10077000F11D8081803311F4297E09C022FF06C05B
:100780007394739404C0822F867809F0739423FDC8
:1007900013C020FF06C05A2C731418F4530C5718BA
:1007A000732C731468F4B70180E290E02C870E94E8
:1007B000410473942C85F5CF731410F4371801C0DD
:1007C000312C24FF12C0B70180E390E02C870E94F7
:1007D00041042C8522FF17C021FF03C088E590E06B
:1007E00002C088E790E0B7010CC0822F867859F0EC
:1007F00021FD02C080E201C08BE227FD8DE2B7013E
:1008000090E00E944104A51438F4B70180E390E021
:100810000E9441045A94F7CFAA94F401EA0DF11D05
:100820008081B70190E00E944104A110F5CF3320F0
:1008300009F451CEB70180E290E00E9441043A945D
:10084000F6CFF7018681978102C08FEF9FEF2C963C
:10085000E2E10C94ED04FC01059061507040011040
:10086000D8F7809590958E0F9F1F0895FC016150D9
:10087000704001900110D8F7809590958E0F9F1FC2
:1008800008950F931F93CF93DF93182F092FEB0138
:100890008B8181FD03C08FEF9FEF20C082FF10C0CE
:1008A0004E815F812C813D81421753077CF4E881A2
:1008B000F9819F012F5F3F4F39832883108306C042
:1008C000E885F985812F0995892B29F72E813F81AC
:1008D0002F5F3F4F3F832E83812F902FDF91CF914A
:1008E0001F910F910895FA01AA27283051F1203164
:1008F00081F1E8946F936E7F6E5F7F4F8F4F9F4FB4
:10090000AF4FB1E03ED0B4E03CD0670F781F891FF5
:100910009A1FA11D680F791F8A1F911DA11D6A0FC3
:10092000711D811D911DA11D20D009F468943F9176
:100930002AE0269F11243019305D3193DEF6CF0175
:100940000895462F4770405D4193B3E00FD0C9F73B
:10095000F6CF462F4F70405D4A3318F0495D31FDA8
:100960004052419302D0A9F7EACFB4E0A6959795FB
:10097000879577956795BA95C9F7009761057105D1
:1009800008959B01AC010A2E06945795479537951B
:100990002795BA95C9F7620F731F841F951FA01D75
:1009A00008952F923F924F925F926F927F928F9213
:1009B0009F92AF92BF92CF92DF92EF92FF920F93EE
:1009C0001F93CF93DF93CDB7DEB7CA1BDB0B0FB6F8
:1009D000F894DEBF0FBECDBF09942A8839884888B5
:1009E0005F846E847D848C849B84AA84B984C8844B
:1009F000DF80EE80FD800C811B81AA81B981CE0F42
:100A0000D11D0FB6F894DEBF0FBECDBFED01089526
:040A1000F894FFCF88
:100A14000000DF04200000000003000000009A0032
:100A2400AB0000007363616E0D0A0000466F756EC3
:100A34006420526563656976652100526563656962
:100A440076656420446174613A2025730A00446F1A
:100A54006E652100556172742053656E642046757D
:100A64006E6374696F6E3A2025730A41646472651B
:100A740073733A2025700025730057616974696E99
:100A84006720666F72205265636569766520746FAE
:100A940020436F6D706C6574652E2E2E006765742F
:100AA40020007365742000436F6D6D616E643A209D
:100AB4002573204C656E6774683A2025642C2041A8
:100AC4006464726573733A2025700A005472616E0F
:100AD400736D697373696F6E204C656E6774683AE1
:100AE4002025640A00446F6E65205265636569764B
:060AF400696E672100009D
:00000001FF
