S0120000576966694D6F64756C652E737265631D
S11300000C943E000C945B000C945B000C945B001D
S11300100C945B000C945B000C945B000C945B00F0
S11300200C945B000C945B000C945B000C945B00E0
S11300300C945B000C945B000C945B000C945B00D0
S11300400C945B000C945B000C945B000C945B00C0
S11300500C945B000C945B000C945B000C945B00B0
S11300600C945B000C945B000C945B000C945B00A0
S11300700C946A020C945B000C945B0011241FBE68
S1130080CFEFD8E0DEBFCDBF12E0A0E0B1E0EEE6F6
S1130090FEE002C005900D92A436B107D9F722E024
S11300A0A4E6B2E001C01D92A039B207E1F70E94B4
S11300B0DD000C9435070C94000080EB84B9099A98
S11300C080E58CBD0895119891E09EBD0DB407FEA6
S11300D0FDCF8EBD0DB407FEFDCF119A089522E029
S11300E02EBD0DB407FEFDCF9EBD0DB407FEFDCFA2
S11300F08EBD0DB407FEFDCF08958EBD0DB407FE71
S1130100FDCF089523E02EBD0DB407FEFDCF9EBDA7
S11301100DB407FEFDCF8EBD0DB407FEFDCF0895CF
S11301201EBC0DB407FEFDCF8EB508950F931F932B
S1130130CF93DF938C01EB0180E40E94630011985C
S1130140C8010E94820000E010E02A960C171D07E7
S113015058F40B3011052CF00E94900090E00E949E
S113016052040F5F1F4FF2CF119ADF93CF9388E1B0
S113017091E09F938F930E943E040F900F900F90F5
S11301800F9082E592E0DF91CF911F910F91089536
S1130190CF93C82F1198CB010E946F008C2F0E941F
S11301A07D00119ACF91089542E552E069E871E02B
S11301B08FEF0E94EF010C948B01CF93DF9300D05B
S11301C0CDB7DEB70E944B010E94350178940E949E
S11301D05D0080E00E94630060E070E080E00E94C7
S11301E0C8000E94D4000E949701BC017F938F93A2
S11301F027EC31E03F932F9389837A830E943E0456
S113020069817A8180E090E00E94960082ED91E01D
S11302100E94590480E090E00F900F900F900F908F
S11302200F900F90DF91CF910895CF93C82F8A300C
S113023019F48DE00E9415018091C00085FFFCCF68
S1130240C093C60080E090E0CF910895CF93BC01A5
S11302508091C00087FFFCCFC091C6008C2F0E9404
S113026015018C2F90E0CF9108951092C50081E084
S11302708093C40088E18093C10086E08093C2002B
S113028086E091E090938B0280938A0290938D0292
S113029080938C0208951092CD0081E08093CC006D
S11302A0E9ECF0E088E1808386E08093CA008081F5
S11302B080688083099A0895FC019F01281B390BEB
S11302C041914111FACFC90108951092680229E1C0
S11302D0EDE6F2E0DF011D922A95E9F75D9A40E030
S11302E0242F30E02617370760F45091C80055FFDB
S11302F0FCCFFC01E20FF31F20812093CE004F5F5F
S1130300EFCF80E090E008958091C80087FFFCCF94
S11303108091CE00089580916802811105C081E228
S11303208A95F1F70000F7CF8DE692E008950F93D8
S11303301F93CF93DF938091640290916502892B80
S1130340E9F0CDE6D2E00CED11E0FE012196FF9339
S1130350EF9380811F928F931F930F930E943E040B
S11303600F900F900F900F900F900F9032E0C437C2
S1130370D30759F78AE090E00E9452042091720258
S11303802F70809171028F7034E6839FC001112415
S11303903AE0239F800D911D1124209173022F7048
S11303A0820F911D609170026F7048EE53E0649F5C
S11303B09001659F300D1124820F931F60916F028D
S11303C06F7040E157E2649F9001659F300D1124E6
S11303D0820F931FDF91CF911F910F910895CF92B8
S11303E0DF92EF92FF920F931F93CF93DF9300D08E
S11303F0CDB7DEB7282F6B018A0188EF91E02983FE
S11304000E94590482E390E00E940C037C0129813C
S1130410213031F0223039F02F3F09F04EC008C0AE
S11304206BE072E002C060E172E0C7010E94330435
S1130430B601C7010E94330482E00235180749F06F
S11304406EE072E0C7010E943304B801C7010E9444
S1130450330464E171E0C7010E943304C7010E94C0
S11304605C01BC01FF92EF927F938F93FF92EF9216
S113047025E132E03F932F9389837A830E943E04DF
S113048069817A81C7010E9465015D9A0FB6F8946B
S1130490DEBF0FBECDBF80916802811105C0F3E0BD
S11304A0FA95F1F70000F7CFC7010E94A403C60133
S11304B00E94A40381E090E002C080E090E00F90ED
S11304C00F90DF91CF911F910F91FF90EF90DF90EC
S11304D0CF9008951F920F920FB60F9211242F936D
S11304E03F934F935F936F937F938F939F93AF93B8
S11304F0BF93CF93DF93EF93FF93F89480916902B6
S113050090916A02C0916B02D0916C02892BE1F444
S11305108091640290916502892BB1F00E9484015C
S1130520C359DD4F8883E0916B02F0916C02E3596B
S1130530FD4F8081823509F05BC081E090E09093AB
S11305406A028093690254C0C730D10530F40E9416
S11305508401C359DD4F888342C0C730D10539F4C3
S11305600E949701909367028093660238C080913D
S11305706602909167020896C817D90750F48091D3
S1130580C80087FFFCCF8091CE00BE010E94C80046
S113059026C0BE0180E00E94C8008091C9008F7708
S11305A08093C90010926C0210926B0210926A023E
S11305B01092690281E0809368020E9497019F93E0
S11305C08F938AE392E09F938F930E943E0483E586
S11305D092E00E9459040F900F900F900F90809119
S11305E06B0290916C02019690936C0280936B0263
S11305F07894FF91EF91DF91CF91BF91AF919F914B
S11306008F917F916F915F914F913F912F910F90B7
S11306100FBE0F901F901895CF93DF9382309105F2
S113062010F482E090E0E0918802F091890220E0E9
S113063030E0A0E0B0E0309739F1408151814817B3
S11306405907B8F04817590771F4828193811097BC
S113065029F013969C938E9312972CC09093890241
S11306608093880227C02115310531F042175307C2
S113067018F0A901DB0101C0EF019A01BD01DF01FE
S11306800280F381E02DD7CF21153105F9F0281B25
S1130690390B2430310580F48A819B816115710501
S11306A021F0FB019383828304C090938902809399
S11306B08802FE01329644C0FE01E20FF31F8193CB
S11306C0919322503109398328833AC020918602BC
S11306D030918702232B41F42091020130910301D0
S11306E0309387022093860220910001309101010A
S11306F02115310541F42DB73EB7409104015091C5
S11307000501241B350BE0918602F0918702E21764
S1130710F307A0F42E1B3F0B2817390778F0AC0120
S11307204E5F5F4F2417350748F04E0F5F1F5093FD
S11307308702409386028193919302C0E0E0F0E047
S1130740CF01DF91CF910895CF93DF93009709F400
S113075087C0FC01329713821282C0918802D09123
S11307608902209781F420813181280F391F8091DB
S11307708602909187028217930779F5F093870296
S1130780E09386026DC0DE0120E030E0AE17BF07C3
S113079050F412964D915C9113979D0141155105AA
S11307A009F1DA01F3CFB383A28340815181840F2D
S11307B0951F8A179B0771F48D919C911197840F53
S11307C0951F02969183808312968D919C91139725
S11307D0938382832115310529F4F0938902E093F0
S11307E088023EC0D9011396FC93EE9312974D9163
S11307F05D91A40FB51FEA17FB0779F480819181FD
S1130800840F951F0296D90111969C938E93828131
S1130810938113969C938E931297E0E0F0E08A8183
S11308209B81009719F0FE01EC01F9CFCE010296ED
S113083028813981820F931F20918602309187028B
S11308402817390769F4309729F410928902109215
S1130850880202C013821282D0938702C093860258
S1130860DF91CF910895FB01DC010D900020E9F7A1
S1130870119701900D920020E1F70895A0E0B0E0F7
S1130880E4E4F4E00C940E07FE0135966191719155
S1130890AF0180918C0290918D020E948604E2E067
S11308A00C942A0760918C0270918D020E946E064E
S11308B008950F931F93CF93DF93E0918C02F091EF
S11308C08D02238121FF1BC0EC0100E010E089911F
S11308D060918C0270918D02DB011896ED91FC9170
S11308E01997882331F00995892B89F30FEF1FEFAE
S11308F0EECF8AE00995892B11F4C80102C08FEF6D
S11309009FEFDF91CF911F910F910895ACE0B0E07C
S1130910ECE8F4E00C94FE067C016B018A01FC0116
S113092017821682838181FFBDC1CE0101964C01DD
S1130930F7019381F60193FD859193FF81916F01F6
S1130940882309F4ABC1853239F493FD859193FF73
S113095081916F01853229F4B70190E00E946E06FF
S1130960E7CF512C312C20E02032A0F48B3269F0F7
S113097030F4803259F0833269F420612CC08D3216
S113098039F0803339F4216026C02260246023C00A
S1130990286021C027FD27C030ED380F3A3078F4A5
S11309A026FF06C0FAE05F9E300D1124532E13C0BB
S11309B08AE0389E300D1124332E20620CC08E3212
S11309C021F426FD6BC1206406C08C3611F4206826
S11309D002C0883641F4F60193FD859193FF81911D
S11309E06F018111C1CF982F9F7D9554933028F4C6
S11309F00C5F1F4FFFE3F9830DC0833631F083375B
S1130A0071F0833509F05BC022C0F80180818983CD
S1130A100E5F1F4F44244394512C540115C03801D8
S1130A20F2E06F0E711CF801A080B18026FF03C0B4
S1130A30652D70E002C06FEF7FEFC5012C870E9427
S1130A4063062C0183012C852F77222E17C03801D1
S1130A50F2E06F0E711CF801A080B18026FF03C084
S1130A60652D70E002C06FEF7FEFC5012C870E94F7
S1130A7058062C012C852068222E830123FC1BC0E0
S1130A80832D90E048165906B0F4B70180E290E057
S1130A900E946E063A94F4CFF50127FC859127FE57
S1130AA081915F01B70190E00E946E0631103A9483
S1130AB0F1E04F1A51084114510471F7E5C084362E
S1130AC011F0893639F5F80127FF07C0608171817B
S1130AD0828193810C5F1F4F08C0608171818827D8
S1130AE077FD8095982F0E5F1F4F2F76B22E97FFBC
S1130AF009C090958095709561957F4F8F4F9F4F5A
S1130B002068B22E2AE030E0A4010E94A006A82E9C
S1130B10A81844C0853729F42F7EB22E2AE030E08D
S1130B2025C0F22FF97FBF2E8F36C1F018F4883517
S1130B3079F0B4C0803719F0883721F0AFC02F2F77
S1130B402061B22EB4FE0DC08B2D8460B82E09C076
S1130B5024FF0AC09F2F9660B92E06C028E030E01B
S1130B6005C020E130E002C020E132E0F801B7FE28
S1130B7007C060817181828193810C5F1F4F06C021
S1130B806081718180E090E00E5F1F4FA4010E949C
S1130B90A006A82EA818FB2DFF77BF2EB6FE0BC00B
S1130BA02B2D2E7FA51450F4B4FE0AC0B2FC08C04D
S1130BB02B2D2E7E05C07A2C2B2D03C07A2C01C040
S1130BC0752C24FF0DC0FE01EA0DF11D80818033D8
S1130BD011F4297E09C022FF06C07394739404C0E3
S1130BE0822F867809F0739423FD13C020FF06C07A
S1130BF05A2C731418F4530C5718732C731468F488
S1130C00B70180E290E02C870E946E0673942C85D5
S1130C10F5CF731410F4371801C0312C24FF12C01F
S1130C20B70180E390E02C870E946E062C8522FF9A
S1130C3017C021FF03C088E590E002C088E790E078
S1130C40B7010CC0822F867859F021FD02C080E2E2
S1130C5001C08BE227FD8DE2B70190E00E946E0691
S1130C60A51438F4B70180E390E00E946E065A940C
S1130C70F7CFAA94F401EA0DF11D8081B70190E049
S1130C800E946E06A110F5CF332009F451CEB701AE
S1130C9080E290E00E946E063A94F6CFF7018681D6
S1130CA0978102C08FEF9FEF2C96E2E10C941A0714
S1130CB0FC010590615070400110D8F78095909523
S1130CC08E0F9F1F0895FC01615070400190011028
S1130CD0D8F7809590958E0F9F1F08950F931F93BB
S1130CE0CF93DF93182F092FEB018B8181FD03C074
S1130CF08FEF9FEF20C082FF10C04E815F812C8157
S1130D003D81421753077CF4E881F9819F012F5FED
S1130D103F4F39832883108306C0E885F985812FE6
S1130D200995892B29F72E813F812F5F3F4F3F8300
S1130D302E83812F902FDF91CF911F910F910895D2
S1130D40FA01AA27283051F1203181F1E8946F93F8
S1130D506E7F6E5F7F4F8F4F9F4FAF4FB1E03ED09E
S1130D60B4E03CD0670F781F891F9A1FA11D680F3C
S1130D70791F8A1F911DA11D6A0F711D811D911D6F
S1130D80A11D20D009F468943F912AE0269F1124E4
S1130D903019305D3193DEF6CF010895462F477048
S1130DA0405D4193B3E00FD0C9F7F6CF462F4F70A3
S1130DB0405D4A3318F0495D31FD4052419302D001
S1130DC0A9F7EACFB4E0A6959795879577956795A7
S1130DD0BA95C9F700976105710508959B01AC01A7
S1130DE00A2E06945795479537952795BA95C9F7CE
S1130DF0620F731F841F951FA01D08952F923F92A9
S1130E004F925F926F927F928F929F92AF92BF9216
S1130E10CF92DF92EF92FF920F931F93CF93DF93C2
S1130E20CDB7DEB7CA1BDB0B0FB6F894DEBF0FBE1F
S1130E30CDBF09942A88398848885F846E847D846C
S1130E408C849B84AA84B984C884DF80EE80FD806E
S1130E500C811B81AA81B981CE0FD11D0FB6F894E4
S1110E60DEBF0FBECDBFED010895F894FFCFA5
S1130E6E00009002200000000003000000001501A5
S1130E7E260100000D0A00000A0A506F7369746996
S1130E8E6F6E3A20256400300073797374656D2E8D
S1130E9E7072696E745F6C6576656C00310073797F
S1130EAE7374656D2E636D642E6865616465725F1F
S1130EBE656E61626C65640073797374656D2E631F
S1130ECE6D642E70726F6D70745F656E61626C65A9
S1130EDE64006F66660073797374656D2E636D645A
S1130EEE2E6563686F006F6E007363616E00776CBE
S1130EFE616E2E7373696400776C616E2E7061730C
S1130F0E736B6579007777772E77692D70726F2EF4
S1130F1E757300687474705F676574007463705FD2
S1130F2E636C69656E74004C656E6774683A20254F
S1130F3E64000A446F6E65210025730056616C755A
S1130F4E653A203078253032782C204164647265FD
S1130F5E73733A2025700A00426567696E205365E3
S1130F6E6E6420436F6D6D616E640067657420005E
S1130F7E7365742000436F6D6D616E643A20257342
S1130F8E204C656E6774683A2025642C2041646495
S1130F9E726573733A2025700A005472616E736D14
S1130FAE697373696F6E204C656E6774683A202599
S1130FBE640A00446F6E6520526563656976696ED6
S1070FCE6721000093
S9030000FC
