:100000000C943E000C945B000C945B000C945B0021
:100010000C945B000C945B000C945B000C945B00F4
:100020000C945B000C945B000C945B000C945B00E4
:100030000C945B000C945B000C945B000C945B00D4
:100040000C945B000C945B000C945B000C945B00C4
:100050000C945B000C945B000C945B000C945B00B4
:100060000C945B000C945B000C945B000C945B00A4
:100070000C947B010C945B000C945B0011241FBE5C
:10008000CFEFD8E0DEBFCDBF11E0A0E0B1E0EAEFF6
:10009000F9E002C005900D92AE38B107D9F725E01E
:1000A000AEE8B1E001C01D92A138B207E1F70E94AD
:1000B0005D000C94FB040C9400000F931F93CF93EE
:1000C000DF93F8940E94C8000E94B200789468E11F
:1000D00071E080E00E944E010E94FB008C011F93A2
:1000E0008F932CE131E03F932F930E940402E801AB
:1000F0000F900F900F900F9000E010E0899190E02A
:100100000E9418020F5F1F4F083C1105B9F78FE2DC
:1001100091E00E941F0280E090E0DF91CF911F915B
:100120000F910895CF93C82F8A3019F48DE00E9463
:1001300092008091C00085FFFCCFC093C60080E094
:1001400090E0CF910895CF93BC018091C00087FFCC
:10015000FCCFC091C6008C2F0E9492008C2F90E0A3
:10016000CF9108951092C5008CE08093C40088E17F
:100170008093C10086E08093C20080E091E090937C
:100180007C0580937B0590937E0580937D05089583
:100190001092CD008CE08093CC00E9ECF0E088E197
:1001A000808386E08093CA00808180688083089580
:1001B00040E0242F30E06217730760F05091C800D0
:1001C00055FFFCCFFC01E20FF31F20812093CE00EE
:1001D0004F5FEFCF109290018091C90080688093AB
:1001E000C90080E090E008958091C80087FFFCCFAF
:1001F0008091CE00089588E391E00E941F028091D3
:100200009001811105C081E28A95F1F70000F7CFD6
:1002100083E991E09F938F938CE191E09F938F937B
:100220000E9404020F900F900F900F9083E991E0CD
:100230000895809198018F70209197012F7094E616
:10024000299F900111249AE0899F200D311D1124CE
:10025000809199018F70280F311D609196016F7008
:1002600048EE53E0649FC001659F900D1124280F54
:10027000391F609195016F7040E157E2649FC001A2
:10028000659F900D1124280F391F283E83E0380701
:1002900018F088EE93E00895C9010895CF93DF9395
:1002A000CDB7DEB729970FB6F894DEBF0FBECDBF2E
:1002B000813019F48BE591E002C080E691E00E9464
:1002C000F90189E0EEE0F1E0DE01119601900D9276
:1002D0008A95E1F769E070E0CE0101960E94D800AE
:1002E00081E090E029960FB6F894DEBF0FBECDBF37
:1002F000DF91CF9108951F920F920FB60F921124A4
:100300000F931F932F933F934F935F936F937F931D
:100310008F939F93AF93BF93CF93DF93EF93FF930D
:10032000F894C0919101D0919201C730D10530F479
:100330000E94F400CD56DE4F88833CC0C730D10503
:1003400039F40E94190190938F0180938E0132C07D
:1003500080918E0190918F0106968E010D561E4F51
:10036000C817D90728F40E94F400F801808322C03E
:10037000F80110828091C9008F778093C900109294
:1003800092011092910181E08093900180918F0100
:100390008F9380918E018F9385E691E09F938F9349
:1003A0000E9404028EE791E00E941F020F900F90BE
:1003B0000F900F90809191019091920101969093EE
:1003C0009201809391017894FF91EF91DF91CF9109
:1003D000BF91AF919F918F917F916F915F914F915D
:1003E0003F912F911F910F910F900FBE0F901F9073
:1003F0001895FB01DC010D900020E9F711970190A1
:100400000D920020E1F70895A0E0B0E0EAE0F2E00C
:100410000C94D404FE01359661917191AF018091E5
:100420007D0590917E050E944C02E2E00C94F00460
:1004300060917D0570917E050E94340408950F93AC
:100440001F93CF93DF93E0917D05F0917E0523818B
:1004500021FF1BC0EC0100E010E0899160917D0557
:1004600070917E05DB011896ED91FC911997882318
:1004700031F00995892B89F30FEF1FEFEECF8AE05A
:100480000995892B11F4C80102C08FEF9FEFDF910E
:10049000CF911F910F910895ACE0B0E0E2E5F2E05A
:1004A0000C94C4047C016B018A01FC011782168242
:1004B000838181FFBDC1CE0101964C01F70193817B
:1004C000F60193FD859193FF81916F01882309F4D3
:1004D000ABC1853239F493FD859193FF81916F0112
:1004E000853229F4B70190E00E943404E7CF512C03
:1004F000312C20E02032A0F48B3269F030F48032CD
:1005000059F0833269F420612CC08D3239F0803388
:1005100039F4216026C02260246023C0286021C0F5
:1005200027FD27C030ED380F3A3078F426FF06C09B
:10053000FAE05F9E300D1124532E13C08AE0389EDE
:10054000300D1124332E20620CC08E3221F426FD92
:100550006BC1206406C08C3611F4206802C0883656
:1005600041F4F60193FD859193FF81916F01811113
:10057000C1CF982F9F7D9554933028F40C5F1F4F67
:10058000FFE3F9830DC0833631F0833771F0833593
:1005900009F05BC022C0F801808189830E5F1F4F84
:1005A00044244394512C540115C03801F2E06F0EDD
:1005B000711CF801A080B18026FF03C0652D70E09A
:1005C00002C06FEF7FEFC5012C870E9429042C0128
:1005D00083012C852F77222E17C03801F2E06F0E91
:1005E000711CF801A080B18026FF03C0652D70E06A
:1005F00002C06FEF7FEFC5012C870E941E042C0103
:100600002C852068222E830123FC1BC0832D90E0C3
:1006100048165906B0F4B70180E290E00E94340415
:100620003A94F4CFF50127FC859127FE81915F0173
:10063000B70190E00E94340431103A94F1E04F1A6F
:1006400051084114510471F7E5C0843611F0893620
:1006500039F5F80127FF07C060817181828193819C
:100660000C5F1F4F08C060817181882777FD8095DE
:10067000982F0E5F1F4F2F76B22E97FF09C09095CF
:100680008095709561957F4F8F4F9F4F2068B22E58
:100690002AE030E0A4010E946604A82EA81844C0F5
:1006A000853729F42F7EB22E2AE030E025C0F22FC4
:1006B000F97FBF2E8F36C1F018F4883579F0B4C0B9
:1006C000803719F0883721F0AFC02F2F2061B22E6C
:1006D000B4FE0DC08B2D8460B82E09C024FF0AC063
:1006E0009F2F9660B92E06C028E030E005C020E1BB
:1006F00030E002C020E132E0F801B7FE07C06081BF
:100700007181828193810C5F1F4F06C0608171816E
:1007100080E090E00E5F1F4FA4010E946604A82EA7
:10072000A818FB2DFF77BF2EB6FE0BC02B2D2E7FFA
:10073000A51450F4B4FE0AC0B2FC08C02B2D2E7EC6
:1007400005C07A2C2B2D03C07A2C01C0752C24FFF8
:100750000DC0FE01EA0DF11D8081803311F4297E68
:1007600009C022FF06C07394739404C0822F867858
:1007700009F0739423FD13C020FF06C05A2C731494
:1007800018F4530C5718732C731468F4B70180E2F3
:1007900090E02C870E94340473942C85F5CF731459
:1007A00010F4371801C0312C24FF12C0B70180E3C8
:1007B00090E02C870E9434042C8522FF17C021FF73
:1007C00003C088E590E002C088E790E0B7010CC064
:1007D000822F867859F021FD02C080E201C08BE2B1
:1007E00027FD8DE2B70190E00E943404A51438F48F
:1007F000B70180E390E00E9434045A94F7CFAA94A2
:10080000F401EA0DF11D8081B70190E00E943404EB
:10081000A110F5CF332009F451CEB70180E290E06A
:100820000E9434043A94F6CFF7018681978102C082
:100830008FEF9FEF2C96E2E10C94E004FC01059011
:10084000615070400110D8F7809590958E0F9F1FD2
:100850000895FC016150704001900110D8F7809517
:1008600090958E0F9F1F08950F931F93CF93DF9343
:10087000182F092FEB018B8181FD03C08FEF9FEFB4
:1008800020C082FF10C04E815F812C813D814217C4
:1008900053077CF4E881F9819F012F5F3F4F398333
:1008A0002883108306C0E885F985812F0995892B57
:1008B00029F72E813F812F5F3F4F3F832E83812F6A
:1008C000902FDF91CF911F910F910895FA01AA27E0
:1008D000283051F1203181F1E8946F936E7F6E5F83
:1008E0007F4F8F4F9F4FAF4FB1E03ED0B4E03CD031
:1008F000670F781F891F9A1FA11D680F791F8A1F14
:10090000911DA11D6A0F711D811D911DA11D20D07A
:1009100009F468943F912AE0269F11243019305D34
:100920003193DEF6CF010895462F4770405D419325
:10093000B3E00FD0C9F7F6CF462F4F70405D4A3372
:1009400018F0495D31FD4052419302D0A9F7EACF3A
:10095000B4E0A6959795879577956795BA95C9F769
:1009600000976105710508959B01AC010A2E06945C
:100970005795479537952795BA95C9F7620F731F15
:10098000841F951FA01D08952F923F924F925F9252
:100990006F927F928F929F92AF92BF92CF92DF928F
:1009A000EF92FF920F931F93CF93DF93CDB7DEB7F4
:1009B000CA1BDB0B0FB6F894DEBF0FBECDBF099488
:1009C0002A88398848885F846E847D848C849B84DF
:1009D000AA84B984C884DF80EE80FD800C811B81ED
:1009E000AA81B981CE0FD11D0FB6F894DEBF0FBE1C
:0A09F000CDBFED010895F894FFCF8C
:1009FA0000000003000000009200A30000006765E9
:100A0A0074206275730D0A0062757300526563651E
:100A1A006976656420446174613A2025730A00444A
:100A2A006F6E65210025730057616974696E6720CE
:100A3A00666F72205265636569766520746F20431C
:100A4A006F6D706C6574652E2E2E007365742000B0
:100A5A0067657420005472616E736D697373696F90
:100A6A006E204C656E6774683A2025640A00446FEC
:0E0A7A006E6520526563656976696E672100BE
:00000001FF
