S010000057696669546573742E73726563E5
S113000071C000008CC000008AC0000088C00000DD
S113001086C0000084C0000082C0000080C00000D0
S11300207EC000007CC000007AC0000078C00000E0
S113003076C0000074C0000072C0000070C00000F0
S11300406EC000006CC000006AC0000068C0000000
S113005066C0000064C0000062C0000060C0000010
S11300605EC000003AC100005AC0000058C0000041
S113007056C0000054C0000052C0000050C0000030
S11300804EC000004CC000004AC0000048C0000040
S113009046C0000044C0000042C0000040C0000050
S11300A03EC000003CC000003AC0000038C0000060
S11300B036C0000034C0000032C0000030C0000070
S11300C02EC000002CC000002AC0000028C0000080
S11300D026C0000024C0000022C0000020C0000090
S11300E01EC0000011241FBECFEFD1E2DEBFCDBF82
S11300F012E0A0E0B2E0E4E0F6E000E00BBF02C0F2
S113010007900D92A43BB107D9F725E0A4EBB2E028
S113011001C01D92A93AB207E1F73AD171C270CF7A
S11301204DEA52E068E672E08FEF68D058C0089557
S11301301092C50083E08093C400E1ECF0E088E114
S1130140808386E08093C2008081806880830895E4
S1130150FC012081222341F0319680E090E0019659
S113016021912111FCCF089580E090E00895CF9370
S1130170DF93E1ECF0E02081206820831092B40248
S11301802EEE32E0E7EBF2E0DF01A9011D924150CF
S11301905040E1F761157105A9F020E030E050E02E
S11301A0E0ECF0E0A6ECB0E0408145FFFDCFEC01CF
S11301B0C20FD31F28812C935F5F252F30E02617B1
S11301C0370790F380E090E0DF91CF910895E0EC61
S11301D0F0E080818823ECF78091C6000895809137
S11301E0B402811108C081E28A95F1F70000809180
S11301F0B4028823C1F387EB92E00895DF92EF9273
S1130200FF920F931F93CF93DF93D82E7B018A0124
S113021082E390E0C3D0EC0181E0D81639F082E0AB
S1130220D81689F08FEFD8124EC019C0DE010D9098
S11302300020E9F7119785E0E9EAF2E001900D92D8
S11302408A95E1F70CC0DE010D900020E9F71197C3
S113025085E0EEEAF2E001900D928A95E1F7B701AC
S1130260CE01C3D182E00D3A180761F0FE0101907E
S11302700020E9F7319780E290E091838083B80110
S1130280CE01B3D1FE0101900020E9F731972DE0B2
S11302903AE040E0208331834283CE0159DFBC0140
S11302A0CE0165DF8091B402811108C083E08A9594
S11302B0F1F700008091B4028823C1F3CE0106D186
S11302C081E090E002C080E090E0DF91CF911F9147
S11302D00F91FF90EF90DF9008951F920F920FB649
S11302E00F9211240BB60F922F933F934F935F936A
S11302F06F937F938F939F93AF93BF93CF93DF932A
S1130300EF93FF93F894C091B502D091B602C73031
S1130310D10528F45CDFC954DD4F88831AC0C73087
S1130320D105B9F0C031D10528F451DFC954DD4FEE
S113033088830FC0C954DD4F1882E1ECF0E080815E
S11303408F7780831092B6021092B50281E0809379
S1130350B4028091B5029091B60201969093B602D0
S11303608093B5027894FF91EF91DF91CF91BF9183
S1130370AF919F918F917F916F915F914F913F9139
S11303802F910F900BBE0F900FBE0F901F901895DA
S1130390CFDE7894C5DE80E090E00895CF93DF93BC
S11303A08230910510F482E090E0E091A705F0918D
S11303B0A80520E030E0A0E0B0E0309739F14081BA
S11303C0518148175907B8F04817590771F48281C9
S11303D09381109729F013969C938E9312972CC0B7
S11303E09093A8058093A70527C02115310531F006
S11303F04217530718F0A901DB0101C0EF019A016C
S1130400BD01DF010280F381E02DD7CF2115310535
S1130410F9F0281B390B2430310580F48A819B8143
S11304206115710521F0FB019383828304C09093CD
S1130430A8058093A705FE01329644C0FE01E20F91
S1130440F31F8193919322503109398328833AC051
S11304502091A5053091A605232B41F42091020299
S1130460309103023093A6052093A5052091000244
S1130470309101022115310541F42DB73EB7409169
S1130480040250910502241B350BE091A505F0915F
S1130490A605E217F307A0F42E1B3F0B2817390714
S11304A078F0AC014E5F5F4F2417350748F04E0FCC
S11304B05F1F5093A6054093A5058193919302C0B5
S11304C0E0E0F0E0CF01DF91CF910895CF93DF9387
S11304D0009709F487C0FC01329713821282C091FD
S11304E0A705D091A805209781F420813181280F98
S11304F0391F8091A5059091A6058217930779F578
S1130500F093A605E093A5056DC0DE0120E030E080
S1130510AE17BF0750F412964D915C9113979D014D
S11305204115510509F1DA01F3CFB383A283408168
S11305305181840F951F8A179B0771F48D919C91AB
S11305401197840F951F02969183808312968D9143
S11305509C911397938382832115310529F4F09399
S1130560A805E093A7053EC0D9011396FC93EE932A
S113057012974D915D91A40FB51FEA17FB0779F40B
S113058080819181840F951F0296D90111969C93C5
S11305908E938281938113969C938E931297E0E0BD
S11305A0F0E08A819B81009719F0FE01EC01F9CFFC
S11305B0CE01029628813981820F931F2091A505CF
S11305C03091A6052817390769F4309729F4109259
S11305D0A8051092A70502C013821282D093A60523
S11305E0C093A505DF91CF910895FB01DC010D9027
S11305F00020E9F7119701900D920020E1F708958A
S1070600F894FFCF98
S11306040000A9052000300073797374656D2E70A1
S113061472696E745F6C6576656C0031007379730E
S113062474656D2E636D642E6865616465725F65BF
S11306346E61626C65640073797374656D2E636DA9
S1130644642E70726F6D70745F656E61626C656444
S1130654006F66660073797374656D2E636D642E22
S11306646563686F006F6E007363616E00776C611D
S11306746E2E7373696400776C616E2E706173738C
S11306846B6579007777772E77692D70726F2E7585
S11306947300687474705F676574007463705F6377
S11306A46C69656E74002573006765742000736556
S10706B474200000AA
S9030000FC
