:100000000C943E000C944E010C945B000C945B002D
:100010000C945B000C945B000C945B000C945B00F4
:100020000C945B000C945B000C945B000C945B00E4
:100030000C945B000C945B000C945B000C945B00D4
:100040000C945B000C945B000C945B000C945B00C4
:100050000C945B000C945B000C945B000C945B00B4
:100060000C945B000C945B000C945B000C945B00A4
:100070000C94AA030C945B000C945B0011241FBE2B
:10008000CFEFD8E0DEBFCDBF15E0A0E0B1E0EAEAF7
:10009000FEE002C005900D92A434B107D9F725E027
:1000A000A4E4B5E001C01D92AA3DB207E1F70E94A9
:1000B0005D000C9453070C9400000E9460020E94A3
:1000C000FF010E94340278940E943F02FFCF1098F3
:1000D00020EF2EBD0DB407FEFDCF9EBD0DB407FE73
:1000E000FDCF8EBD0DB407FEFDCF6EBD0DB407FE76
:1000F000FDCF109A089510982FE02EBD0DB407FE85
:10010000FDCF9EBD0DB407FEFDCF8EBD0DB407FE25
:10011000FDCF1EBC0DB407FEFDCF109A8EB508951D
:10012000682F81E094E00E94670008956F927F92AB
:100130008F929F92AF92BF92CF92DF92EF92FF92F7
:100140000F931F93CF93DF937C016B01CAEED3E033
:1001500083E094E00E947B00873109F075C088E25B
:1001600094E00E947B00C82F89E294E00E947B000B
:10017000D0E0DC2FCC27C80FD11DE114F10409F425
:1001800051C0812C992493940CEE12E00F2EF8EFBD
:10019000AF2EF2E0BF2EF02D712C8091550590917D
:1001A00056058C239D232091530530915405820FD1
:1001B000931F0E947B00682E1F928F931F930F93B3
:1001C0000E948E040F900F900F900F908AE068129B
:1001D00007C0992039F0839499E09815E8F01DC084
:1001E00091101BC0DF92CF921F926F92BF92AF927D
:1001F0000E948E04B601862D0E9428028FEFC81A35
:10020000D80A91E0E91AF1080F900F900F900F9023
:100210000F900F90972C01C0972C2196E114F104B8
:1002200009F0BBCF6D2F88E294E00E9467006C2F2D
:1002300089E294E00E94670080E40E9490008DE0D3
:100240008A95F1F700000FC02197209729F489E1E2
:1002500093E00E94A90407C08FE19EE40197F1F7A3
:1002600000C0000075CF81E090E0DF91CF911F9139
:100270000F91FF90EF90DF90CF90BF90AF909F9045
:100280008F907F906F90089588E00E94900081E0A9
:1002900094E00E947B008111FACF08951F920F9283
:1002A0000FB60F9211242F933F934F935F936F9349
:1002B0007F938F939F93AF93BF93CF93EF93FF93CE
:1002C000F89486E190E00E947B001F928F938DE26C
:1002D00093E09F938F930E948E0485E190E00E94AB
:1002E0007B00C82F1F928F9326E433E03F932F9318
:1002F0000E948E048DB79EB708960FB6F8949EBFE5
:100300000FBE8DBFC0FF47C082E094E00E947B001B
:10031000C82F6FEF82E094E00E946700C4FF05C021
:1003200084E693E00E94A90436C0C3FF05C08DE7B0
:1003300093E00E94A9042FC0C2FF13C060E070E0E8
:1003400080E49FE10E9496000E94440181E090E0D9
:1003500090934505809344058BE993E00E94A9049E
:100360001AC0C1FF05C08DEA93E00E94A90413C022
:10037000C0FF05C082EC93E00E94A9040CC01F924C
:10038000CF9386ED93E09F938F930E948E040F90FE
:100390000F900F900F90FF91EF91CF91BF91AF9180
:1003A0009F918F917F916F915F914F913F912F918D
:1003B0000F900FBE0F901F901895CF93C82F8A30C3
:1003C00019F48DE00E94DD01E0ECF0E0908195FFF2
:1003D000FDCFC093C60080E090E0CF910895CF9309
:1003E000BC01E0ECF0E080818823ECF7C091C6000E
:1003F0008C2F0E94DD018C2F90E0CF9108951092F8
:10040000C50083E38093C40088E18093C10086E047
:100410008093C20080E091E09093D5058093D4054D
:100420009093D7058093D605089522E02EBD0DB494
:1004300007FEFDCF9EBD0DB407FEFDCF8EBD0DB4F2
:1004400007FEFDCF08958EBD0DB407FEFDCF0895C4
:10045000CF93C82F1198CB010E9415028C2F0E94B8
:100460002302119ACF91089580EB84B9099A80E50F
:100470008CBD60E070E082E30E94280208950E9433
:10048000AF0242E054E064E074E082E00E942003A6
:1004900047E154E069E174E082E00E94200342E019
:1004A00054E063E374E082E00E9420034DE454E0F2
:1004B00061E574E082E00E9420030E94A602089594
:1004C0001092CD0081E08093CC00E9ECF0E088E16F
:1004D000808386E08093CA00808180688083099A47
:1004E0000895CF93DF9310924A0529E1E7E5F5E0FF
:1004F000DF011D922A95E9F75D9A61157105A9F052
:1005000020E030E050E0E8ECF0E0AEECB0E040811C
:1005100045FFFDCFEC01C20FD31F28812C935F5FF5
:10052000252F30E02617370790F382EA94E00E94E7
:10053000A90480E090E0DF91CF910895E8ECF0E02D
:1005400080818823ECF78091CE000895E9ECF0E0FB
:10055000808180688083789481E090E00895E9EC60
:10056000F0E080818F77808381E090E00895EF92C2
:10057000FF920F931F93CF93DF9380914605909145
:100580004705892B11F1C7E5D5E00F2EFEE5EF2ECB
:10059000F5E0FF2EF02D0BEA14E0FE012196FF930B
:1005A000EF9380811F928F931F930F930E948E046D
:1005B0000F900F900F900F900F900F90CE15DF05BA
:1005C00061F78AE090E00E94A20480915C058F7040
:1005D00090E09C01220F331F880F991F880F991FED
:1005E000880F991F820F931F20915B052F7034E6AF
:1005F000239F800D911D112420915D052F70820F86
:10060000911D60915A056F7048EE53E0649F900110
:10061000659F300D1124820F931F609159056F70F3
:1006200040E157E2649F9001659F300D1124820FD5
:10063000931FDF91CF911F910F91FF90EF9008953D
:10064000FF920F931F93CF93DF93F82E8B01EA0154
:1006500087EC94E00E94A90481E0F81639F092E05A
:10066000F91671F0EFEFFE126DC017C085E0EAEDEC
:10067000F4E0A0E7B5E001900D928A95E1F70DC096
:10068000A0E7B5E00D900020E9F7119785E0EFEDC8
:10069000F4E001900D928A95E1F7B80180E795E0CA
:1006A0000E945104F1E0CD3CDF0779F0E0E7F5E08E
:1006B00001900020E9F7319780E290E091838083F8
:1006C000BE0180E795E00E945104C0E7D5E0FE013D
:1006D00001900020E9F731978DE09AE0A0E0808357
:1006E0009183A283FE0101900020E9F731978F01E9
:1006F00000571540DF93CF931F930F93DF93CF9352
:1007000084EE94E09F938F930E948E04B801CE01F3
:100710000E94710284E6FE0111928A95E9F789E050
:1007200095E00E94A90480E195E00E94A9048DB79C
:100730009EB708960FB6F8949EBF0FBE8DBF81E09E
:1007400090E002C080E090E0DF91CF911F910F9187
:10075000FF9008951F920F920FB60F9211242F93BE
:100760003F934F935F936F937F938F939F93AF9339
:10077000BF93CF93DF93EF93FF93F89480914B0552
:1007800090914C05892B01F5809146059091470584
:10079000892BD1F0C0914D05D0914E050E949E024B
:1007A000C95ADA4F8883E0914D05F0914E05E95A18
:1007B000FA4F8081823509F060C081E090E090932B
:1007C0004C0580934B0559C0C0914D05D0914E0505
:1007D000C730D10530F40E949E02C95ADA4F88838F
:1007E00043C0C730D10539F40E94B7029093490540
:1007F0008093480539C08091480590914905089635
:10080000C817D90758F4E8ECF0E080818823ECF7AA
:100810008091CE00BE010E94280226C0BE0180E069
:100820000E942802E9ECF0E080818F7780831092AB
:100830004E0510924D0510924C0510924B0581E02B
:1008400080934A050E94B7029F938F938BE195E0B6
:100850009F938F930E948E0484E395E00E94A904E5
:100860000F900F900F900F9080914D0590914E0535
:10087000019690934E0580934D057894FF91EF91EA
:10088000DF91CF91BF91AF919F918F917F916F91A8
:100890005F914F913F912F910F900FBE0F901F903E
:1008A0001895FB01DC010D900020E9F711970190EC
:1008B0000D920020E1F708950F931F93CF93DF93DC
:1008C000182F092FEB018B8181FD03C08FEF9FEF64
:1008D00020C082FF10C04E815F812C813D81421774
:1008E00053077CF4E881F9819F012F5F3F4F3983E3
:1008F0002883108306C0E885F985812F0995892B07
:1009000029F72E813F812F5F3F4F3F832E83812F19
:10091000902FDF91CF911F910F910895A0E0B0E04B
:10092000E4E9F4E00C942C07FE0135966191719195
:10093000AF018091D6059091D7050E94D604E2E0E0
:100940000C9448076091D6057091D7050E945C040D
:1009500008950F931F93CF93DF93E091D605F09105
:10096000D705238121FF1BC0EC0100E010E0899135
:100970006091D6057091D705DB011896ED91FC9139
:100980001997882331F00995892B89F30FEF1FEF11
:10099000EECF8AE00995892B11F4C80102C08FEFD0
:1009A0009FEFDF91CF911F910F910895ACE0B0E0E0
:1009B000ECEDF4E00C941C077C016B018A01FC0156
:1009C00017821682838181FFBDC1CE0101964C0141
:1009D000F7019381F60193FD859193FF81916F015A
:1009E000882309F4ABC1853239F493FD859193FFD7
:1009F00081916F01853229F4B70190E00E945C0477
:100A0000E7CF512C312C20E02032A0F48B3269F05A
:100A100030F4803259F0833269F420612CC08D3279
:100A200039F0803339F4216026C02260246023C06D
:100A3000286021C027FD27C030ED380F3A3078F408
:100A400026FF06C0FAE05F9E300D1124532E13C01E
:100A50008AE0389E300D1124332E20620CC08E3275
:100A600021F426FD6BC1206406C08C3611F4206889
:100A700002C0883641F4F60193FD859193FF819180
:100A80006F018111C1CF982F9F7D9554933028F429
:100A90000C5F1F4FFFE3F9830DC0833631F08337BE
:100AA00071F0833509F05BC022C0F8018081898331
:100AB0000E5F1F4F44244394512C540115C038013C
:100AC000F2E06F0E711CF801A080B18026FF03C018
:100AD000652D70E002C06FEF7FEFC5012C870E948B
:100AE000B3062C0183012C852F77222E17C03801E5
:100AF000F2E06F0E711CF801A080B18026FF03C0E8
:100B0000652D70E002C06FEF7FEFC5012C870E945A
:100B1000A8062C012C852068222E830123FC1BC0F3
:100B2000832D90E048165906B0F4B70180E290E0BA
:100B30000E945C043A94F4CFF50127FC859127FECE
:100B400081915F01B70190E00E945C0431103A94FA
:100B5000F1E04F1A51084114510471F7E5C0843691
:100B600011F0893639F5F80127FF07C060817181DE
:100B7000828193810C5F1F4F08C06081718188273B
:100B800077FD8095982F0E5F1F4F2F76B22E97FF1F
:100B900009C090958095709561957F4F8F4F9F4FBD
:100BA0002068B22E2AE030E0A4010E94BE06A82EE2
:100BB000A81844C0853729F42F7EB22E2AE030E0F1
:100BC00025C0F22FF97FBF2E8F36C1F018F488357B
:100BD00079F0B4C0803719F0883721F0AFC02F2FDB
:100BE0002061B22EB4FE0DC08B2D8460B82E09C0DA
:100BF00024FF0AC09F2F9660B92E06C028E030E07F
:100C000005C020E130E002C020E132E0F801B7FE8B
:100C100007C060817181828193810C5F1F4F06C084
:100C20006081718180E090E00E5F1F4FA4010E94FF
:100C3000BE06A82EA818FB2DFF77BF2EB6FE0BC050
:100C40002B2D2E7FA51450F4B4FE0AC0B2FC08C0B0
:100C50002B2D2E7E05C07A2C2B2D03C07A2C01C0A3
:100C6000752C24FF0DC0FE01EA0DF11D808180333B
:100C700011F4297E09C022FF06C07394739404C046
:100C8000822F867809F0739423FD13C020FF06C0DD
:100C90005A2C731418F4530C5718732C731468F4EB
:100CA000B70180E290E02C870E945C0473942C854D
:100CB000F5CF731410F4371801C0312C24FF12C083
:100CC000B70180E390E02C870E945C042C8522FF12
:100CD00017C021FF03C088E590E002C088E790E0DC
:100CE000B7010CC0822F867859F021FD02C080E246
:100CF00001C08BE227FD8DE2B70190E00E945C0409
:100D0000A51438F4B70180E390E00E945C045A9483
:100D1000F7CFAA94F401EA0DF11D8081B70190E0AC
:100D20000E945C04A110F5CF332009F451CEB70125
:100D300080E290E00E945C043A94F6CFF70186814D
:100D4000978102C08FEF9FEF2C96E2E10C94380759
:100D5000FC010590615070400110D8F78095909586
:100D60008E0F9F1F0895FC0161507040019001108B
:100D7000D8F7809590958E0F9F1F0895FA01AA27A6
:100D8000283051F1203181F1E8946F936E7F6E5FCE
:100D90007F4F8F4F9F4FAF4FB1E03ED0B4E03CD07C
:100DA000670F781F891F9A1FA11D680F791F8A1F5F
:100DB000911DA11D6A0F711D811D911DA11D20D0C6
:100DC00009F468943F912AE0269F11243019305D80
:100DD0003193DEF6CF010895462F4770405D419371
:100DE000B3E00FD0C9F7F6CF462F4F70405D4A33BE
:100DF00018F0495D31FD4052419302D0A9F7EACF86
:100E0000B4E0A6959795879577956795BA95C9F7B4
:100E100000976105710508959B01AC010A2E0694A7
:100E20005795479537952795BA95C9F7620F731F60
:100E3000841F951FA01D08952F923F924F925F929D
:100E40006F927F928F929F92AF92BF92CF92DF92DA
:100E5000EF92FF920F931F93CF93DF93CDB7DEB73F
:100E6000CA1BDB0B0FB6F894DEBF0FBECDBF0994D3
:100E70002A88398848885F846E847D848C849B842A
:100E8000AA84B984C884DF80EE80FD800C811B8138
:100E9000AA81B981CE0FD11D0FB6F894DEBF0FBE67
:0A0EA000CDBFED010895F894FFCFD7
:100EAA000000000300000000DD01EF0100005365AF
:100EBA007474696E6720536F7572636520506F7220
:100ECA0074206F6E20536F636B6574203020256425
:100EDA0025640A0052656164696E6720536F7572F2
:100EEA00636520506F7274206F6E20536F636B6559
:100EFA0074203020256425640A0A005365747469D5
:100F0A006E6720536F636B6574203020746F204FB7
:100F1A0070656E0A0053504920535220537461740D
:100F2A0075733A2025640A0053657474696E6720E4
:100F3A005365727665722049502041646472657304
:100F4A00732025642E25642E25642E25640A0052FA
:100F5A00656164696E672053305F444950523A2094
:100F6A0025642E25642E25642E25640A0A00535012
:100F7A0049205352205374617475733A203078258E
:100F8A003032780A0053657474696E67205365724B
:100F9A0076657220506F72740052656164696E677B
:100FAA002053305F44504F52543A20256425640A36
:100FBA000A00547279696E6720746F2045737461F0
:100FCA00626C69736820436F6E6E656374696F6ED5
:100FDA002E2E2E0054696D656F75742C206469730A
:100FEA00636F6E6E656374696E672100436F6E6E20
:100FFA00656374696F6E20537563636565646564C0
:10100A00210A00436F756C64206E6F7420636F6EE3
:10101A006E6563742E2045786974696E672E2E2E6C
:10102A000A0053656E642053697A653A2025640A7A
:10103A0000545820467265652053697A653A20251E
:10104A00640A0054582053697A653A20256400548A
:10105A005820467265652053697A65204572726F19
:10106A007221005458204275666665723A202578C6
:10107A000A005265616C2057523A2025640A0052D0
:10108A0065616C2052523A2025640A0042756666F0
:10109A0065723A2025630A0057726974696E67207F
:1010AA00746F2052414D3A202563204020616464C8
:1010BA00726573732025640A005468697320736823
:1010CA0069742069732062726F6B656E004D61737B
:1010DA006B2052656769737465722056616C756519
:1010EA003A2025640A00496E74657272757074201C
:1010FA0052656769737465722056616C75653A202A
:10110A0025640A0053656E64204F706572617469C4
:10111A006F6E20436F6D706C6574652E0054696D37
:10112A00656F7574204F63637572726564206F6EA4
:10113A0020536F636B6574203021005265636569C3
:10114A0076696E6720446174612E2E2E00536F6398
:10115A006B657420446973636F6E6E65637465644E
:10116A002E00536F636B6574203020436F6E6E657B
:10117A00637465642E00556E646566696E656420E5
:10118A00496E74657272757074204F6363757272FA
:10119A0065642E20496E742056616C75653A202567
:1011AA006400300073797374656D2E7072696E74A1
:1011BA005F6C6576656C00310073797374656D2EAA
:1011CA00636D642E6865616465725F656E61626CE9
:1011DA0065640073797374656D2E636D642E707225
:1011EA006F6D70745F656E61626C6564006F6666D0
:1011FA000073797374656D2E636D642E6563686F11
:10120A00006F6E007363616E00776C616E2E73738C
:10121A00696400776C616E2E706173736B65790017
:10122A007777772E77692D70726F2E7573006874D1
:10123A0074705F676574007463705F636C69656E70
:10124A00740053656E74210025730056616C7565D0
:10125A003A203078253032782C20416464726573E4
:10126A00733A2025700A00426567696E2053656EDD
:10127A006420436F6D6D616E64006765742000734E
:10128A0065742000436F6D6D616E643A202573208A
:10129A004C656E6774683A2025642C204164647238
:1012AA006573733A2025700A0046726565642100E9
:1012BA0052657475726E696E6721005472616E733D
:1012CA006D697373696F6E204C656E6774683A2036
:1012DA0025640A00446F6E65205265636569766904
:0412EA006E6721000A
:00000001FF
