S0160000436F6D6D756E69636174696F6E732E7372656345
S11300000C9472000C948F000C948F000C948F004D
S11300100C948F000C948F000C948F000C948F0020
S11300200C948F000C948F000C948F000C948F0010
S11300300C948F000C948F000C948F000C948F0000
S11300400C948F000C948F000C948F000C948F00F0
S11300500C94F0010C948F000C948F000C948F007E
S11300600C948F000C948B0A0C948F000C948F00CA
S11300700C948F000C948F000C948F000C948F00C0
S11300800C948F000C948F000C948F000C948F00B0
S11300900C948F000C948F000C948F000C948F00A0
S11300A00C948F000C948F000C948F000C948F0090
S11300B00C948F000C948F000C948F000C948F0080
S11300C00C948F000C948F000C948F000C948F0070
S11300D00C948F000C948F000C948F000C948F0060
S11300E00C948F0011241FBECFEFD1E2DEBFCDBF31
S11300F015E0A0E0B2E0EAEBFCE102C005900D924D
S1130100A63CB107D9F727E0A6ECB5E001C01D92E3
S1130110AE35B207E1F70E941E020C945B0E0C94FC
S11301200000E1E8F0E08081846080831092840024
S11301301092850081E080936F000895CF93DF9340
S113014080913706882399F1C3EDD5E085E0E0E39B
S1130150F2E0DE0101900D928A95E1F7DE010D9047
S11301600020E9F7119785E1E5E3F2E001900D92B3
S11301708A95E1F7DE010D900020E9F7119782E1FD
S1130180EAE4F2E001900D928A95E1F709900020EB
S1130190E9F7DE01119783E1ECE5F2E001900D92BD
S11301A08A95E1F783ED95E00E94DE0236C08091E6
S11301B03806882391F1C3EDD5E089E0EFE6F2E05B
S11301C0DE0101900D928A95E1F7DE010D90002089
S11301D0E9F7119785E1E5E3F2E001900D928A9544
S11301E0E1F7DE010D900020E9F7119782E1EAE4DE
S11301F0F2E001900D928A95E1F709900020E9F769
S1130200DE01119783E1ECE5F2E001900D928A950D
S1130210E1F783ED95E00E94D10884E6E3EDF5E093
S1130220DF011D928A95E9F7DF91CF9108950F932D
S11302301F93CF93DF930E9430080E94D6099F93A7
S11302408F9388E792E09F938F930E94960BC3ED60
S1130250D5E085E0E0E3F2E0DE0101900D928A95BD
S1130260E1F7DE010D900020E9F7119785E1E5E360
S1130270F2E001900D928A95E1F7DE010D900020E5
S1130280E9F7119783E1E9E8F2E001900D928A958C
S1130290E1F7DE010D900020E9F7119783E1ECE529
S11302A0F2E001900D928A95E1F7DE010D900020B5
S11302B0E9F7119787E0ECE9F2E001900D928A9555
S11302C0E1F7DF93CF9383EA92E09F938F930E94A9
S11302D0960BCE010E9466088C01AC0160E074E0CC
S11302E080E090E00E94C10741E050E0B80180E066
S11302F094E00E94F80484E6FE0111928A95E9F7DD
S113030080EB92E09F938F930E94960B8DB79EB7DC
S11303100A960FB6F8949EBF0FBE8DBFDF91CF91A2
S11303201F910F9108950F931F93CF93DF93EFE6DF
S1130330F0E080818E7F808381E080933706109285
S1130340380603E010E020E030E340E050E061E0F4
S113035070E086EB92E00E9472024FE050E060E0B1
S113036070E380E090E00E94C10780E090E30E9487
S11303702608C9E3D6E08F70888381E090E30E9469
S113038026088F7080933A0682E090E30E94260844
S11303908F7080933B0694E6E3EDF5E0DF011D9258
S11303A09A95E9F79881913079F090913A069130D5
S11303B019F40E94170108C0813031F46BED72E02A
S11303C089EE92E00E9444080E949E00EFE6F0E06D
S11303D0808181608083DF91CF911F910F91089577
S11303E01F920F920FB60F9211242F933F934F93A6
S11303F05F936F937F938F939F93AF93BF93EF9389
S1130400FF93F89480EF92E00E94B10B0E94930155
S113041010928400109285007894FF91EF91BF911F
S1130420AF919F918F917F916F915F914F913F9188
S11304302F910F900FBE0F901F901895CF93DF93BD
S1130440CDB7DEB7C456D1090FB6F894DEBF0FBEE0
S1130450CDBF0E94DF080E94E1060E94180878942C
S11304604AE150E060E070E08CEF92E00E944807BF
S11304704AE150E060E070E0CB010E94C1079E01B8
S11304802F5F3F4F4EE150E060E070E0CB010E94EF
S11304908D070E945A0287E193E09F938F930E94F5
S11304A0960B0E94910089E293E00E94B10B0F9099
S11304B00F90FFCF28E032E04CE052E060E172E0C0
S11304C084E192E00E943D0320E032E042E052E009
S11304D064E072E081E00E940C04892BA9F30E947D
S11304E0D10408958F929F92AF92BF92CF92DF92E0
S11304F0EF92FF920F931F93CF93DF934B01690108
S11305007A015801CCE3D6E047E455E464E570E2AF
S1130510488359836A837B83DE010D900020E9F7C9
S1130520119725E1E5E3F2E001900D922A95E1F7B8
S1130530BC01CE010E94520BDE010D900020E9F7B0
S1130540119782E2EFE2F3E001900D928A95E1F7D0
S1130550DF93CF9381E593E09F938F930E94960B53
S1130560FE0101900020E9F73197BF016C537640FA
S113057040E050E0CE010E94F804840121E030E024
S1130580A501A12CB12CB501C6010E94160684E672
S1130590FE0111928A95E9F70F900F900F900F903A
S11305A0C501DF91CF911F910F91FF90EF90DF90E4
S11305B0CF90BF90AF909F908F900895CF93DF938B
S11305C0BC018CE396E00E945D0BCCE3D6E0DE0137
S11305D00D900020E9F7119782E2EFE2F3E0019039
S11305E00D928A95E1F7DF93CF938DEA92E09F9382
S11305F08F930E94960BFE0101900020E9F731973A
S1130600BF016C53764040E050E0CE010E94F804F4
S113061084E6FE0111928A95E9F70F900F900F90EE
S11306200F90DF91CF910895749820EF2EBD0DB4F3
S113063007FEFDCF9EBD0DB407FEFDCF8EBD0DB4EC
S113064007FEFDCF6EBD0DB407FEFDCF749A08956D
S113065074982FE02EBD0DB407FEFDCF9EBD0DB4E2
S113066007FEFDCF8EBD0DB407FEFDCF1EBC0DB43D
S113067007FEFDCF749A8EB50895BF92CF92DF9294
S1130680EF92FF920F931F93CF93DF93EC017B01C3
S11306906A0189016C9A87E084B9749A80E58CBDFB
S11306A060E880E090E00E9414038FEC97E00197EB
S11306B0F1F700C00000F801608181E090E00E9441
S11306C01403F801618182E090E00E941403F801B0
S11306D0628183E090E00E941403F801638184E066
S11306E090E00E9414038FEC97E00197F1F700C0AB
S11306F0000084E090E00E942803B82E83E090E09C
S11307000E942803082F82E090E00E942803182FFB
S113071081E090E00E9428031F92BF921F920F93E2
S11307201F921F931F928F938BE593E09F938F9358
S11307300E94960B688189E090E00E94140369810D
S11307408AE090E00E9414036A818BE090E00E94AA
S113075014036B818CE090E00E9414036C818DE0A3
S113076090E00E9414036D818EE090E00E941403D7
S1130770EFECF7E03197F1F700C00000F60160817B
S113078085E090E00E941403F601618186E090E028
S11307900E941403F601628187E090E00E94140332
S11307A0F601638188E090E00E9414038FEC97E0E7
S11307B00197F1F700C00000F70160818FE090E03D
S11307C00E941403F701618180E190E00E94140308
S11307D0F701628181E190E00E941403F7016381D3
S11307E082E190E00E9414038FEC97E00197F1F707
S11307F000C00000EDB7FEB73A960FB6F894FEBFFE
S11308000FBEEDBFDF91CF911F910F91FF90EF903D
S1130810DF90CF90BF900895BF92CF92DF92EF9276
S1130820FF920F931F93CF93DF93B82E7B016A013E
S11308308901C6E7D3E083E094E00E9428031F9275
S11308408F93DF93CF930E94960B60E181E094E055
S11308500E9414036B2D80E094E00E941403F801BD
S1130860608184E094E00E941403F801618185E0D2
S113087094E00E94140361E081E094E00E94140378
S113088083E094E00E9428030F900F900F900F9044
S1130890833189F6F70160818CE094E00E941403AF
S11308A0F70161818DE094E00E941403F7016281F5
S11308B08EE094E00E941403F70163818FE094E0DA
S11308C00E941403F601608180E194E00E94140305
S11308D0F601618181E194E00E94140364E081E007
S11308E094E00E941403C0E0D0E000E117E236C0B7
S11308F087E592E00197F1F700C0000021969E0180
S1130900329522952F7023273F702327A7E4B3E065
S11309100E94430B9695879596958795969587950E
S1130920809F9001819F300D909F300D1124C2173C
S1130930D307A1F489E893E00E94B10BC13593EC8D
S1130940D90760F08BEA93E00E94B10B60E181E08B
S113095094E00E94140380E090E019C083E094E0E6
S11309600E942803873121F683E094E00E94280343
S1130970873139F483EC93E00E94B10B81E090E07D
S113098006C08AED93E00E94B10B80E090E0DF9115
S1130990CF911F910F91FF90EF90DF90CF90BF9078
S11309A0089563E08AE190E00E94140363E08BE120
S11309B090E00E9414038FEF9FE19093D3068093FD
S11309C0D20620E030E43093D5062093D4069093E9
S11309D0D9068093D80680E090E69093D70680935A
S11309E0D6060895682F81E094E00E9414030895C8
S11309F04F925F926F927F928F929F92AF92BF922B
S1130A00CF92DF92EF92FF920F931F93CF93DF93D6
S1130A107C016B013A0183E094E00E9428031F9259
S1130A208F9389EF93E09F938F930E94960B83E0BB
S1130A3094E00E9428030F900F900F900F9087313D
S1130A4059F02AE132E04CE152E06EE172E081E0DB
S1130A500E940C04892BA9F380E294E00E942803ED
S1130A60C82FD0E0DC2FCC2781E294E00E94280339
S1130A70C80FD11DCC15DD0508F49EC030C08FEC25
S1130A8097E00197F1F700C0000080E294E00E9433
S1130A902803C82FD0E0DC2FCC2781E294E00E9409
S1130AA02803C80FD11DDF93CF939F928F920E948A
S1130AB0960B015011090F900F900F900F90011594
S1130AC0110551F488E00E94F20481E094E00E9450
S1130AD028038111FACF6AC0CC15DD0580F284E2C7
S1130AE094E00E942803482E85E294E00E942803A3
S1130AF0512C542C4424480E511C82E294E00E9450
S1130B00280383E294E00E94280381E194E00E9498
S1130B10B10BC114D10469F147018C0C9D1C8201F5
S1130B20C0E0D4E0A090D206B090D306A022B122B7
S1130B308091D4069091D506A80EB91E6114710453
S1130B4041F0CE010E942608682FC5010E941403BB
S1130B5005C0F7016081C5010E9414030F5F1F4F98
S1130B60FFEFEF1AFF0A2196E814F904D9F64C0CAA
S1130B705D1C60E0C50101960E94140384E294E0C8
S1130B800E9428036FEF84E294E00E941403642D12
S1130B9085E294E00E94140380E20E94F20481E062
S1130BA094E00E9428038111FACF03C080E090E012
S1130BB02CC081E090E029C08FEC97E00197F1F719
S1130BC000C0000080E294E00E942803C82FD0E017
S1130BD0DC2FCC2781E294E00E942803C80FD11DAA
S1130BE0DF93CF9385E094E09F938F930E94960BBD
S1130BF00F900F900F900F9009EE13E00F2EF5E079
S1130C008F2EF4E09F2EF02D67CFDF91CF911F91AF
S1130C100F91FF90EF90DF90CF90BF90AF909F9097
S1130C208F907F906F905F904F9008955F926F9236
S1130C307F928F929F92AF92BF92CF92DF92EF9268
S1130C40FF920F931F93CF93DF934C015B016A01D3
S1130C507901CAEED3E083E094E00E94280387314F
S1130C6009F05CC088E294E00E942803C82F89E25E
S1130C7094E00E942803D0E0DC2FCC27C80FD11DBC
S1130C80C114D104B9F1512C612C712C8091D80676
S1130C909091D9068C239D232091D6063091D706B6
S1130CA0820F931F0E9428038A3041F4E114F10457
S1130CB041F0539489E08515B8F018C0E114F104AB
S1130CC0A9F40115110539F0B4010E940B089FEF36
S1130CD0891A990A03C0F50181935F01F1E0CF1AE3
S1130CE0D108E62CF72C02C0E62CF72C2196C1146F
S1130CF0D10461F6F50110826D2F88E294E00E9420
S1130D0014036C2F89E294E00E94140380E40E948F
S1130D10F204FDE0FA95F1F700001FC02197209737
S1130D20A9F48DE194E00E94B10B83E094E00E9469
S1130D3028031F928F938CE394E09F938F930E94D8
S1130D40960B0F900F900F900F9007C08FE19EE4C9
S1130D500197F1F700C000007ECF81E090E0DF91C1
S1130D60CF911F910F91FF90EF90DF90CF90BF90A4
S1130D70AF909F908F907F906F905F900895CF93E6
S1130D80C82F8A3019F48DE00E94BF06E0EDF0E030
S1130D90908195FFFDCFC093D60080E090E0CF9185
S1130DA00895CF93BC01E0EDF0E080818823ECF757
S1130DB0C091D6008C2F0E94BF068C2F90E0CF915B
S1130DC008951092D50083E38093D40088E1809342
S1130DD0D10086E08093D20082E292E0909359079A
S1130DE08093580790935B0780935A070895A398BC
S1130DF085E08EBD0DB407FEFDCF1EBC0DB407FE0D
S1130E00FDCFA39A8EB590E00895A39891E09EBD7E
S1130E100DB407FEFDCF8EBD0DB407FEFDCFA39A22
S1130E200895262F972F482F82E08EBD0DB407FE1C
S1130E30FDCF4EBD0DB407FEFDCF892F8EBD0DB481
S1130E4007FEFDCF2EBD0DB407FEFDCF08958EBD68
S1130E500DB407FEFDCF0895262F972F482F83E06A
S1130E608EBD0DB407FEFDCF4EBD0DB407FEFDCF04
S1130E70892F8EBD0DB407FEFDCF2EBD0DB407FE28
S1130E80FDCF08951EBC0DB407FEFDCF8EB50895A9
S1130E90AF92BF92CF92DF92EF92FF920F931F9384
S1130EA0CF93DF93EC018B015A01A3986B01E12CE2
S1130EB0F12CC701B6010E94110780E00E942707A8
S1130EC0A39A80E40E9405070E94F706A398C7012D
S1130ED0B6010E941107A114B10491F0650180E0EC
S1130EE090E0E12CF12CFE01E80FF91F80810E94B3
S1130EF027078FEFE81AF80AC701EC14FD0499F7E5
S1130F00A39AC801DF91CF911F910F91FF90EF90A9
S1130F10DF90CF90BF90AF900895CF92DF92EF9281
S1130F20FF920F931F93CF93DF936B017C018A0190
S1130F30E90180E40E940507A398C701B6010E9455
S1130F402C070115110591F060E070E0E12CF12C03
S1130F506E01C60ED71E0E944207F6018083FFEF82
S1130F60EF1AFF0AB701E016F10691F7A39ACE0132
S1130F70DF91CF911F910F91FF90EF90DF90CF9071
S1130F800895EF92FF920F931F93CF93DF93C62F91
S1130F90D72FF82EE92E8A0180E40E940507A39832
S1130FA06C2F7D2F8F2D9E2D0E942C07EF92FF9288
S1130FB0DF93CF938EE494E09F938F930E94960BDC
S1130FC00F900F900F900F900F900F900115110537
S1130FD061F0C0E0D0E00E94420790E00E94AA0BBA
S1130FE02196C017D107B9F702C000E010E0A39A18
S1130FF01F930F938FE594E09F938F930E94960B1A
S11310000F900F900F900F90DF91CF911F910F9140
S1131010FF90EF900895CF93C82FA39880E090E0BD
S11310200E9411078C2F0E942707A39ACF9108953D
S113103084B1876884B923982F9A9B9A83E58CBDE1
S113104060E070E082E30E940B080895A398BC015D
S113105080E090E00E942C070E944207A39A089522
S113106060E070E0CB010E94030A0E94230940E57E
S113107053E06AEC74E08FEF0E940C0A5D980E94C2
S1131080340980E593E00895CF93DF93EB01AC013D
S11310906FEC74E082E00E940C0AAE0169ED74E02A
S11310A082E00E940C0A4CE352E06FE672E08FEF9C
S11310B00E940C0A0E94EB0921E030E0892B11F018
S11310C020E030E0C901DF91CF910895CF92DF9203
S11310D0EF921F93CF93DF93EC01FC01019000206A
S11310E0E9F73197AF01481B590B60E074E00E94A7
S11310F04807FE0101900020E9F731976F01CC1AEF
S1131100DD0AC1E0D0E0E12CCE0101970E9426085F
S1131110182F82E08E1520F01A3051F5E39428C080
S11311201D3041F118F41A3029F11AC0103219F0A7
S1131130133201F115C0B6017C5F85E20E940B08F1
S1131140B6016F5F7B4F82E30E940B08B6016E5FAE
S11311507B4F80E30E940B0883E0C80ED11C0AC0B9
S1131160B6017C5F812F0E940B088FEFC81AD80A42
S1131170112329F02196CF3F83E0D80729F6B60141
S113118061507C4F4FE150E081EF94E00E944807AA
S1131190C6014E96DF91CF911F91EF90DF90CF90D3
S11311A00895CF93DF93EC010E942C0940E553E0AE
S11311B0BE018FEF0E940C0ADF91CF910895109227
S11311C0C50087E08093C400E1ECF0E088E180830F
S11311D086E08093C2008081806880830895CF93E5
S11311E0DF931092CC0529E1EBEDF6E0DF011D92CF
S11311F02A95E9F761157105A9F020E030E050E087
S1131200E8ECF0E0AEECB0E0408145FFFDCFEC014E
S1131210C20FD31F28812C935F5F252F30E0261740
S1131220370790F380EB92E00E94B10B80E090E0EE
S1131230DF91CF910895E0ECF0E080818823ECF712
S11312408091C6000895E1ECF0E08081806880839D
S1131250789481E090E00895E1ECF0E080818F776C
S1131260808381E090E008958091CC05811108C0CD
S113127081E28A95F1F700008091CC058823C1F3BF
S113128081E090E008950F931F93CF93DF938091B3
S1131290CF059091D005892BF1F0C0E0D0E003E4B4
S11312A015E0FE01E552F94F8081FF93EF931F9201
S11312B08F931F930F930E94960B21960F900F907C
S11312C00F900F900F900F90C730D10551F78AE01F
S11312D090E00E94AA0B1092CB051092CA052091AF
S11312E0E1068091CA059091CB052F70820F911D64
S11312F09093CB058093CA058091E0062091CA059E
S11313003091CB058F7090E0AC01440F551F880FCE
S1131310991F880F991F880F991F840F951F820F9B
S1131320931F9093CB058093CA052091DF0680918B
S1131330CA059091CB052F7034E6239F800D911D33
S113134011249093CB058093CA056091DE068091A9
S1131350CA059091CB056F7048EE53E0649F9001ED
S1131360659F300D1124820F931F9093CB058093BA
S1131370CA056091DD068091CA059091CB056F7016
S113138040E157E2649F9001659F300D1124820F64
S1131390931F9093CB058093CA058091CA059091C1
S11313A0CB05DF91CF911F910F9108958091CA05CC
S11313B09091CB050895E0E5F3E080E090E0DC0156
S11313C0A552B94F2C912193019687309105B9F715
S11313D080E593E008958091CC05811108C081E2F5
S11313E08A95F1F700008091CC058823C1F30E940F
S11313F0DB0921E030E0FC018181803311F420E03D
S113140030E0C90108956093C6057093C7058093C1
S1131410C8059093C90508950F931F93CF93DF9345
S1131420EA01813031F0823071F08F3F09F06CC0F5
S113143017C085E0EBE5F5E0A4EFB6E001900D926E
S11314408A95E1F70DC0A4EFB6E00D900020E9F70E
S1131450119785E0E0E6F5E001900D928A95E1F7B9
S113146084EF96E00E94520B83E0C035D80779F0F0
S1131470E4EFF6E001900020E9F7319780E290E094
S113148091838083BE0184EF96E00E94520BC4EFE7
S1131490D6E0FE0101900020E9F731978DE09AE053
S11314A0A0E080839183A283FE0101900020E9F7EC
S11314B031978F01045F1640DF93CF931F930F93EF
S11314C0DF93CF9385E695E09F938F930E94960BCD
S11314D0B801CE010E94EF0884E6FE0111928A95BC
S11314E0E9F78AE895E00E94B10B81E995E00E9452
S11314F0B10B8DB79EB708960FB6F8949EBF0FBE7A
S11315008DBF81E090E002C080E090E0DF91CF9158
S11315101F910F9108951F920F920FB60F921124ED
S11315202F933F934F935F936F937F938F939F93E7
S1131530AF93BF93CF93DF93EF93FF93F89480918E
S1131540D1059091D205892BD1F4C091CD05D091CC
S1131550CE050E941B09C552D94F8883E091CD0561
S1131560F091CE05E552F94F8081823509F06EC0C5
S113157081E090E09093D2058093D10567C080917B
S1131580CD059091CE05079750F4C091CD05D0912B
S1131590CE050E941B09C552D94F888357C080913C
S11315A0CD059091CE05079739F40E944309909395
S11315B0CB058093CA054AC02091CA053091CB055A
S11315C08091CD059091CE05295F3F4F82179307F7
S11315D028F40E941B098093DA0638C0E091CD05F7
S11315E0F091CE05E552F94F10828091C605909195
S11315F0C705A091C805B091C9052091CD053091CA
S1131600CE0528503109B901680F791F80E00E9486
S11316100B081092CE051092CD051092D2051092AF
S1131620D10581E08093CC050E9443099F938F9359
S11316308CE995E09F938F930E94960B85EB95E040
S11316400E94B10B0F900F900F900F908091CD05D9
S11316509091CE0501969093CE058093CD05789414
S1131660FF91EF91DF91CF91BF91AF919F918F91B6
S11316707F916F915F914F913F912F910F900FBE8A
S11316800F901F901895A29FB001B39FC001A39F14
S1131690700D811D1124911DB29F700D811D1124A7
S11316A0911D0895FB01DC010D900020E9F71197CD
S11316B001900D920020E1F70895FB01DC010190F7
S11316C00D920020E1F708950F931F93CF93DF93BA
S11316D0182F092FEB018B8181FD03C08FEF9FEF42
S11316E020C082FF10C04E815F812C813D81421752
S11316F053077CF4E881F9819F012F5F3F4F3983C1
S11317002883108306C0E885F985812F0995892BE4
S113171029F72E813F812F5F3F4F3F832E83812FF7
S1131720902FDF91CF911F910F910895A0E0B0E029
S1131730ECE9FBE00C94340EFE0135966191719155
S1131740AF0180915A0790915B070E94DE0BE2E0A3
S11317500C94500E60915A0770915B070E94640BC1
S113176008950F931F93CF93DF93E0915A07F0915D
S11317705B07238121FF1BC0EC0100E010E089918D
S113178060915A0770915B07DB011896ED91FC910B
S11317901997882331F00995892B89F30FEF1FEFEF
S11317A0EECF8AE00995892B11F4C80102C08FEFAE
S11317B09FEFDF91CF911F910F910895ACE0B0E0BE
S11317C0E4EEFBE00C94240E7C016B018A01FC0125
S11317D017821682838181FFBDC1CE0101964C011F
S11317E0F7019381F60193FD859193FF81916F0138
S11317F0882309F4ABC1853239F493FD859193FFB5
S113180081916F01853229F4B70190E00E94640B45
S1131810E7CF512C312C20E02032A0F48B3269F038
S113182030F4803259F0833269F420612CC08D3257
S113183039F0803339F4216026C02260246023C04B
S1131840286021C027FD27C030ED380F3A3078F4E6
S113185026FF06C0FAE05F9E300D1124532E13C0FC
S11318608AE0389E300D1124332E20620CC08E3253
S113187021F426FD6BC1206406C08C3611F4206867
S113188002C0883641F4F60193FD859193FF81915E
S11318906F018111C1CF982F9F7D9554933028F407
S11318A00C5F1F4FFFE3F9830DC0833631F083379C
S11318B071F0833509F05BC022C0F801808189830F
S11318C00E5F1F4F44244394512C540115C038011A
S11318D0F2E06F0E711CF801A080B18026FF03C0F6
S11318E0652D70E002C06FEF7FEFC5012C870E9469
S11318F0BB0D2C0183012C852F77222E17C03801B4
S1131900F2E06F0E711CF801A080B18026FF03C0C5
S1131910652D70E002C06FEF7FEFC5012C870E9438
S1131920B00D2C012C852068222E830123FC1BC0C2
S1131930832D90E048165906B0F4B70180E290E098
S11319400E94640B3A94F4CFF50127FC859127FE9D
S113195081915F01B70190E00E94640B31103A94C9
S1131960F1E04F1A51084114510471F7E5C084366F
S113197011F0893639F5F80127FF07C060817181BC
S1131980828193810C5F1F4F08C060817181882719
S113199077FD8095982F0E5F1F4F2F76B22E97FFFD
S11319A009C090958095709561957F4F8F4F9F4F9B
S11319B02068B22E2AE030E0A4010E94C60DA82EB1
S11319C0A81844C0853729F42F7EB22E2AE030E0CF
S11319D025C0F22FF97FBF2E8F36C1F018F4883559
S11319E079F0B4C0803719F0883721F0AFC02F2FB9
S11319F02061B22EB4FE0DC08B2D8460B82E09C0B8
S1131A0024FF0AC09F2F9660B92E06C028E030E05C
S1131A1005C020E130E002C020E132E0F801B7FE69
S1131A2007C060817181828193810C5F1F4F06C062
S1131A306081718180E090E00E5F1F4FA4010E94DD
S1131A40C60DA82EA818FB2DFF77BF2EB6FE0BC01F
S1131A502B2D2E7FA51450F4B4FE0AC0B2FC08C08E
S1131A602B2D2E7E05C07A2C2B2D03C07A2C01C081
S1131A70752C24FF0DC0FE01EA0DF11D8081803319
S1131A8011F4297E09C022FF06C07394739404C024
S1131A90822F867809F0739423FD13C020FF06C0BB
S1131AA05A2C731418F4530C5718732C731468F4C9
S1131AB0B70180E290E02C870E94640B73942C851C
S1131AC0F5CF731410F4371801C0312C24FF12C061
S1131AD0B70180E390E02C870E94640B2C8522FFE1
S1131AE017C021FF03C088E590E002C088E790E0BA
S1131AF0B7010CC0822F867859F021FD02C080E224
S1131B0001C08BE227FD8DE2B70190E00E94640BD7
S1131B10A51438F4B70180E390E00E94640B5A9452
S1131B20F7CFAA94F401EA0DF11D8081B70190E08A
S1131B300E94640BA110F5CF332009F451CEB701F4
S1131B4080E290E00E94640B3A94F6CFF70186811C
S1131B50978102C08FEF9FEF2C96E2E10C94400E28
S1131B60FC010590615070400110D8F78095909564
S1131B708E0F9F1F0895FC01615070400190011069
S1131B80D8F7809590958E0F9F1F0895FA01AA2784
S1131B90283051F1203181F1E8946F936E7F6E5FAC
S1131BA07F4F8F4F9F4FAF4FB1E03ED0B4E03CD05A
S1131BB0670F781F891F9A1FA11D680F791F8A1F3D
S1131BC0911DA11D6A0F711D811D911DA11D20D0A4
S1131BD009F468943F912AE0269F11243019305D5E
S1131BE03193DEF6CF010895462F4770405D41934F
S1131BF0B3E00FD0C9F7F6CF462F4F70405D4A339C
S1131C0018F0495D31FD4052419302D0A9F7EACF63
S1131C10B4E0A6959795879577956795BA95C9F792
S1131C2000976105710508959B01AC010A2E069485
S1131C305795479537952795BA95C9F7620F731F3E
S1131C40841F951FA01D08952F923F924F925F927B
S1131C506F927F928F929F92AF92BF92CF92DF92B8
S1131C60EF92FF920F931F93CF93DF93CDB7DEB71D
S1131C70CA1BDB0B0FB6F894DEBF0FBECDBF0994B1
S1131C802A88398848885F846E847D848C849B8408
S1131C90AA84B984C884DF80EE80FD800C811B8116
S1131CA0AA81B981CE0FD11D0FB6F894DEBF0FBE45
S10D1CB0CDBFED010895F894FFCFB5
S1131CBA0050005068832450C0A80101FFFFFF00B0
S1131CCAC0A8010550E549BF9140005000506883FF
S1131CDA24500000000300000000BF06D1060000E3
S1131CEA4745542000687474703A2F2F7777772EFB
S1131CFA77692D70726F2E7573002F646174612F6A
S1131D0A636C656172666C6167733F0077697072B0
S1131D1A6F69643D313030303030303030300068F3
S1131D2A7474705F676574005472616E204C656EDA
S1131D3A6774683A2025640A002F646174612F75F8
S1131D4A706461746573736964733F00267373699D
S1131D5A643D0066696C65706174683A2025730095
S1131D6A53656E7421002F75706C6F6164732F68EC
S1131D7A65782F313030303030303030302F666C67
S1131D8A616766696C652E74787400627269676843
S1131D9A7473686F653930320057692D50726F0059
S1131DAA466C616720537461747573005768617473
S1131DBA20746865206675636B206973207468698A
S1131DCA7320736869740065746865726E65744912
S1131DDA6E697420446F6E6500446F6E652100203D
S1131DEA485454502F312E31200A486F73743A20C4
S1131DFA7777772E77692D70726F2E7573200A0A9A
S1131E0A0053656E743A2025730A00526561646949
S1131E1A6E67204741523A2025642E25642E256494
S1131E2A2E25640A0A0053504920535220537461E0
S1131E3A7475733A2025640A00547279696E6720AE
S1131E4A746F2045737461626C69736820436F6EA2
S1131E5A6E656374696F6E2E2E2E0054696D656FFC
S1131E6A75742C20646973636F6E6E656374696E2E
S1131E7A672100436F6E6E656374696F6E205375D4
S1131E8A63636565646564210A00436F756C642045
S1131E9A6E6F7420636F6E6E6563742E2045786965
S1131EAA74696E672E2E2E0A0053523A2030782512
S1131EBA3032780A0054582053697A653A202564E6
S1131ECA0053656E64696E672E2E2E0A0045746887
S1131EDA65726E657420526563656976652044612E
S1131EEA74612054696D656F75742100537461744B
S1131EFA73205265673A203078253032780041647D
S1131F0A64726573733A203078253036780A000A89
S1131F1A53697A653A2025640A0073797374656D86
S1131F2A2E7072696E745F6C6576656C003100732D
S1131F3A797374656D2E636D642E68656164657268
S1131F4A5F656E61626C65640073797374656D2E86
S1131F5A636D642E70726F6D70745F656E61626C0E
S1131F6A6564006F66660073797374656D2E636DBC
S1131F7A642E6563686F006F6E007363616E007729
S1131F8A6C616E2E7373696400776C616E2E706176
S1131F9A73736B6579007463705F636C69656E74DF
S1131FAA0020485454502F312E310A686F73743A02
S1131FBA207777772E77692D70726F2E75730A0AD8
S1131FCA0046696C65706174683A2025730A0030AA
S1131FDA20383030300073747265616D5F726561E8
S1131FEA640073747265616D5F636C6F73652061FD
S1131FFA6C6C0056616C75653A2025632C2041642B
S113200A64726573733A2025700A00676574200048
S113201A7365742000436F6D6D616E643A20257395
S113202A204C656E6774683A2025642C20416464E8
S113203A726573733A2025700A00467265656421D5
S113204A0052657475726E696E6721005472616E0E
S113205A736D697373696F6E204C656E6774683A41
S113206A2025640A00446F6E6520526563656976AB
S109207A696E67210000FD
S9030000FC
