:1000000012C017C016C015C014C013C012C011C052
:1000100010C00FC00EC00DC00CC00BC00AC009C07C
:1000200008C007C006C011241FBECFEDCDBF40D011
:10003000B5C1E6CF8D9A0895CF93DF93EC018D9AE9
:100040009C01442737FD4095542F60E573EC80E018
:1000500090E066D1C90199230CF401969C01359575
:1000600027951C161D060CF540E050E070E060E09E
:10007000959A121613069CF4872F962F000001966E
:1000800082179307D9F70DC00000019682179307D6
:10009000D9F74F5F5F4F4C175D0751F706C0959832
:1000A000F8CF9598872F962FEFCFDF91CF910895B6
:1000B000C1DF62E070E08AE491E0BEDF62E070E000
:1000C0008AE491E0B9DF62E070E08DE591E0B4DFB1
:1000D00062E070E088E891E0AFDF62E070E088E81D
:1000E00091E0AADF62E070E08DE591E0A5DF62E0DB
:1000F00070E08AE491E0A0DF62E070E086E291E0E7
:100100009BDF62E070E086E091E096DF62E070E005
:1001100086E091E091DF62E070E086E291E08CDFC2
:1001200062E070E08AE491E087DF64E070E08AE4F6
:1001300091E082DF61E070E086E291E07DDF64E0E3
:1001400070E086E291E078DF62E070E08AE491E0BE
:1001500073DF62E070E08AE491E06EDF62E070E0FD
:100160008DE591E069DF62E070E088E891E064DFAE
:1001700062E070E088E891E05FDF62E070E08DE5CA
:1001800091E05ADF62E070E08AE491E055DF62E0DE
:1001900070E086E291E050DF62E070E086E091E09E
:1001A0004BDF62E070E086E091E046DF62E070E005
:1001B00086E291E041DF62E070E08AE491E03CDFBA
:1001C00064E070E086E291E037DF61E070E086E0B5
:1001D00091E032DF64E070E086E091E02DDF62E0E4
:1001E00070E086E291E028DF62E070E086E291E074
:1001F00023DF62E070E08AE491E01EDF62E070E0FD
:1002000086E091E019DF62E070E086E291E014DFC1
:1002100061E070E08AE491E00FDF61E070E08DE57D
:1002200091E00ADF61E070E08AE491E005DF62E0DE
:1002300070E086E091E000DF62E070E086E291E04D
:10024000FBDE61E070E08AE491E0F6DE61E070E000
:100250008DE591E0F1DE61E070E08AE491E0ECDEB2
:1002600062E070E086E291E0E7DE62E070E086E066
:1002700091E0E2DE62E070E086E291E0DDDE64E0E3
:1002800070E084EC90E0D8DE62E070E08AE491E017
:10029000D3DE62E070E08AE491E0CEDE62E070E0FE
:1002A0008DE591E0C9DE62E070E088E891E0C4DEAF
:1002B00062E070E088E891E0BFDE62E070E08DE52A
:1002C00091E0BADE62E070E08AE491E0B5DE62E0DF
:1002D00070E086E291E0B0DE62E070E086E091E0FE
:1002E000ABDE62E070E086E091E0A6DE62E070E006
:1002F00086E291E0A1DE62E070E08AE491E09CDEBB
:1003000064E070E086E291E097DE61E070E086E014
:1003100091E092DE64E070E086E091E08DDEFFCF58
:10032000052E97FB16F400940FD057FD05D014D07E
:1003300007FC02D046F408C05095409530952195B1
:100340003F4F4F4F5F4F0895909580957095619501
:100350007F4F8F4F9F4F0895A1E21A2EAA1BBB1B00
:10036000FD010DC0AA1FBB1FEE1FFF1FA217B30781
:10037000E407F50720F0A21BB30BE40BF50B661F97
:10038000771F881F991F1A9469F76095709580955B
:1003900090959B01AC01BD01CF010895F894FFCF6A
:00000001FF
