S016000045746865726E65744D6F64756C652E7372656369
S11300000C943E000C9483050C945B000C945B00F0
S11300100C945B000C945B000C945B000C945B00F0
S11300200C945B000C945B000C945B000C945B00E0
S11300300C945B000C945B000C945B000C945B00D0
S11300400C945B000C945B000C945B000C945B00C0
S11300500C945B000C945B000C945B000C945B00B0
S11300600C945B000C945B000C945B000C945B00A0
S11300700C945B000C945B000C945B0011241FBE79
S1130080CFEFD8E0DEBFCDBF14E0A0E0B1E0EEE8F2
S1130090F3E102C005900D92AA3FB107D9F725E01C
S11300A0AAEFB4E001C01D92AA30B207E1F70E94A2
S11300B008060C94C5090C94000028E031E04CE0DB
S11300C051E060E171E084E191E00E94600120E090
S11300D031E042E051E064E071E081E00E9404021A
S11300E0892BA9F30C9467030F931F93CF93DF938A
S11300F0CDB7DEB7C659D1090FB6F894DEBF0FBE2F
S1130100CDBF8C0147E455E464E570E249835A832A
S11301106B837C8348E250E069EA74E0CE01815944
S11301209F4F0E94C606CE0101969F938F9388E24B
S113013091E09F938F930E940707F801019000209C
S1130140E9F7BF0161507109601B710BC8010E947E
S11301508D030F900F900F900F9081E090E0CA569E
S1130160DF4F0FB6F894DEBF0FBECDBFDF91CF9146
S11301701F910F910895CF93C82F8A3019F48DE001
S11301800E94BB008091C00085FFFCCFC093C600D5
S113019080E090E0CF910895CF93BC018091C0009E
S11301A087FFFCCFC091C6008C2F0E94BB008C2F10
S11301B090E0CF9108951092C50083E38093C4002A
S11301C088E18093C10086E08093C2000895809105
S11301D0C00087FF03C08091C600F9CF0895CF9374
S11301E0DF93C6E0D5E0688179818BE190E00E94DD
S11301F0D506688179818BE590E00E94D5066881F7
S1130200798188E490E00E94D506688179818BE148
S113021090E00E94D506688179818BE590E00E9488
S1130220D506688179818AE490E0DF91CF910C94BE
S1130230D506CF93DF93C6E0D5E0688179818BE161
S113024090E00E94D506688179818BE590E00E9458
S1130250D5066881798180E390E00E94D5066881A3
S113026079818DE690E0DF91CF910C94D5061098BA
S113027020EF2EBD0DB407FEFDCF9EBD0DB407FECD
S1130280FDCF8EBD0DB407FEFDCF6EBD0DB407FED0
S1130290FDCF109A089510982FE02EBD0DB407FEDF
S11302A0FDCF9EBD0DB407FEFDCF8EBD0DB407FE80
S11302B0FDCF1EBC0DB407FEFDCF109A8EB5089578
S11302C0CF92DF92EF92FF920F931F93CF93DF931E
S11302D0EC018B016A017901089A80EB84B9109AC8
S11302E080E58CBD60E880E090E00E9437018FECEF
S11302F097E00197F1F700C00000F701608181E009
S113030090E00E943701F701618182E090E00E9451
S11303103701F701628183E090E00E943701F70121
S1130320638184E090E00E9437018FEC97E00197AD
S1130330F1F700C00000688189E090E00E94370175
S113034069818AE090E00E9437016A818BE090E045
S11303500E9437016B818CE090E00E9437016C8130
S11303608DE090E00E9437016D818EE090E00E9464
S11303703701EFECF7E03197F1F700C00000F60128
S1130380608185E090E00E943701F601618186E09A
S113039090E00E943701F601628187E090E00E94BC
S11303A03701F601638188E090E00E9437018FEC09
S11303B097E00197F1F700C00000F80160818FE039
S11303C090E00E943701F801618180E190E00E9491
S11303D03701F801628181E190E00E943701F80160
S11303E0638182E190E00E9437018FEC97E00197EE
S11303F0F1F700C00000DF91CF911F910F91FF90A2
S1130400EF90DF90CF9008956F927F928F929F929A
S1130410AF92BF92CF92DF92EF92FF920F931F930E
S1130420CF93DF93782EEB015A0189018AE6882E57
S113043081E0982E90E9C92E91E0D92E21EDE22E8B
S113044021E0F22E60E181E094E00E943701672D03
S113045080E094E00E943701F80181811F928F931C
S113046080811F928F939F928F920E940707F801B9
S1130470608184E094E00E943701F801618185E0A5
S113048094E00E94370185E094E00E944B01682EBD
S113049084E094E00E944B011F926F921F928F930D
S11304A0DF92CF920E94070787EB91E00E941B071F
S11304B061E081E094E00E94370183E094E00E94CF
S11304C04B011F928F93FF92EF920E94070783E0E4
S11304D094E00E944B012DB73EB7205F3F4F0FB60B
S11304E0F8943EBF0FBE2DBF833109F0ABCF8B8193
S11304F01F928F938A811F928F9389811F928F936A
S113050088811F928F9384EE91E09F938F930E9432
S1130510070768818CE094E00E94370169818DE0CF
S113052094E00E9437016A818EE094E00E943701D2
S11305306B818FE094E00E9437018FE094E00E9489
S11305404B01182F8EE094E00E944B01D82F8DE0D0
S113055094E00E944B01C82F8CE094E00E944B0170
S11305601F921F931F92DF931F92CF931F928F931B
S11305708BE092E09F938F930E94070783E094E0BF
S11305800E944B011F928F93CAE2D2E0DF93CF9374
S11305900E94070781E492E00E941B07F501608135
S11305A080E194E00E943701F501618181E194E0EA
S11305B00E94370181E194E00E944B01182F80E1F1
S11305C094E00E944B011F921F931F928F9385E525
S11305D092E09F938F930E94070783E094E00E9428
S11305E04B011F928F93DF93CF930E9407078DB720
S11305F09EB782960FB6F8949EBF0FBE8DBF64E07F
S113060081E094E00E943701C0E0D0E008EE13E0FE
S113061083E094E00E944B018731F9F0EFE6F7E1C3
S11306203197F1F700C000002196CE01B8010E9475
S1130630B206892B69F78EE692E00E941B07C9383F
S1130640F3E1DF0728F380E992E00E941B0760E1F1
S113065081E094E00E94370129C083E094E00E9485
S11306604B01873199F41F928F938AE292E09F9312
S11306708F930E94070788EA92E00E941B070F905D
S11306800F900F900F9081E090E012C01F928F9313
S11306908AE292E09F938F930E9407078FEB92E088
S11306A00E941B070F900F900F900F9080E090E036
S11306B0DF91CF911F910F91FF90EF90DF90CF903A
S11306C0BF90AF909F908F907F906F90089563E05C
S11306D08AE190E00E94370163E08BE190E00E94A0
S11306E037018FEF9FE19093FD048093FC0420E099
S11306F030E43093FF042093FE0490930305809329
S1130700020580E090E6909301058093000508952A
S1130710682F81E094E00C9437016F927F928F925E
S11307209F92AF92BF92CF92DF92EF92FF920F937C
S11307301F93CF93DF936C017B01FF926F938EED38
S113074092E09F938F930E94070780E294E00E94B7
S11307504B01C82FD0E0DC2FCC2781E294E00E942B
S11307604B01C80FD11DDF93CF938DEE92E09F9381
S11307708F930E940707EDB7FEB738960FB6F8942B
S1130780FEBF0FBEEDBFFAEEAF2EF3E0BF2EAFEF0C
S11307908A2EA2E09A2ECE15DF0590F58FEC97E015
S11307A00197F1F700C0000080E294E00E944B0141
S11307B0C82FD0E0DC2FCC2781E294E00E944B01CB
S11307C0C80FD11DDF93CF939F928F920E9407078A
S11307D0F1E0AF1AB1080F900F900F900F90A11491
S11307E0B104C9F68BE093E00E941B0788E00E94E5
S11307F0880381E094E00E944B018111FACF8DC0FF
S113080084E294E00E944B01C82F85E294E00E94A8
S11308104B01D0E0DC2FCC27C80FD11D82E294E03D
S11308200E944B01682E83E294E00E944B01782ED3
S1130830DF93CF934FE153E05F934F930E940707F9
S1130840A090FE04B090FF048090FC049090FD04FE
S1130850AE01482159214A0D5B1D5F934F934EE22F
S113086053E05F934F930E940707262D30E0322F09
S11308702227270D311D282139212A0D3B1D3F93A5
S11308802F938BE393E09F938F930E940707560166
S1130890AE0CBF1CEDB7FEB73C960FB6F894FEBF86
S11308A00FBEEDBF4E018C189D08C601880D991D21
S11308B0CA14DB0499F00091FC041091FD04082390
S11308C019238091FE049091FF04080F191FF6016B
S11308D061916F01C8010E943701E7CFCE0DDF1D82
S11308E060E0C80101960E94370184E294E00E940E
S11308F04B016FEF84E294E00E9437016C2F85E294
S113090094E00E94370180E20E94880381E094E031
S11309100E944B018111FACF03C080E090E002C035
S113092081E090E0DF91CF911F910F91FF90EF90C4
S1130930DF90CF90BF90AF909F908F907F906F90FB
S113094008956F927F928F929F92AF92BF92CF92AF
S1130950DF92EF92FF920F931F93CF93DF931F9237
S1130960CDB7DEB77C010AEE13E083E094E00E9489
S11309704B01873109F076C088E294E00E944B0174
S1130980682E89E294E00E944B01712C762C662437
S1130990680E711C812C41E000E010E088E4C82E50
S11309A083E0D82E94E5A92E93E0B92EE114F10446
S11309B009F446C080910205909103058621972190
S11309C02091000530910105820F931F49830E94F5
S11309D04B01982E1F928F93DF92CF920E940707AC
S11309E00F900F900F900F9049818AE0981208C0E1
S11309F0442341F0839441E099E09815E8F419C048
S1130A00411119C01F930F931F929F92BF92AF92EF
S1130A100E940707B801892D0E949C060F5F1F4F93
S1130A20E1E0EE1AF1080F900F900F900F900F90E5
S1130A300F9040E001C041E0FFEF6F1A7F0AB6CF8C
S1130A40672D88E294E00E943701662D89E294E0E4
S1130A500E94370180E40E9488038DE08A95F1F7B3
S1130A60000011C0015011090115110529F485E791
S1130A7093E00E941B0707C0EFE1FEE43197F1F712
S1130A8000C0000072CF81E090E00F90DF91CF9121
S1130A901F910F91FF90EF90DF90CF90BF90AF9098
S1130AA09F908F907F906F90089588E00E948803B4
S1130AB081E094E00E944B018111FACF089561EE28
S1130AC086E190E00E943701E89A82E08093690011
S1130AD0789408958FEF8AB91BB88AE191E09093D6
S1130AE005058093040590930705809306050E94ED
S1130AF0DB000E9419010E94EF000E9419010E946C
S1130B00EF000C94E7001F920F920FB60F9211247E
S1130B102F933F934F935F936F937F938F939F9301
S1130B20AF93BF93CF93EF93FF93F89486E190E054
S1130B300E944B011F928F9389E893E09F938F93B8
S1130B400E94070785E190E00E944B01C82F1F9285
S1130B508F9322EA33E03F932F930E9407078DB7C8
S1130B609EB708960FB6F8949EBF0FBE8DBFC0FF08
S1130B703DC082E094E00E944B01C82F6FEF82E0F9
S1130B8094E00E943701C4FF03C080EC93E01FC0CF
S1130B90C3FF03C089ED93E01AC0C2FF0FC080E415
S1130BA09FE10E94A1040E94550581E090E090938A
S1130BB0FB048093FA0487EF93E009C0C1FF03C0EC
S1130BC089E094E004C0C0FF05C08EE194E00E9477
S1130BD01B070CC01F92CF9382E394E09F938F93E3
S1130BE00E9407070F900F900F900F90FF91EF91C5
S1130BF0CF91BF91AF919F918F917F916F915F91B1
S1130C004F913F912F910F900FBE0F901F90189509
S1130C100E946A050E94A8060E945F058EE594E082
S1130C200E941B070E945D008DE694E00E94740000
S1130C3085E090E00E94A10465E070E080E090E02F
S1130C400E945E068BEC94E09F938F930E940707AB
S1130C500F900F90FFCF119891E09EBD0DB407FE49
S1130C60FDCF8EBD0DB407FEFDCF119A089522E08D
S1130C702EBD0DB407FEFDCF9EBD0DB407FEFDCF06
S1130C808EBD0DB407FEFDCF08958EBD0DB407FED5
S1130C90FDCF089523E02EBD0DB407FEFDCF9EBD0C
S1130CA00DB407FEFDCF8EBD0DB407FEFDCF089534
S1130CB01EBC0DB407FEFDCF8EB50895EF92FF92D2
S1130CC00F931F93CF93DF93EC017B0180E40E9489
S1130CD02B061198CE010E944A06C0E0D0E001ED37
S1130CE014E0CE15DF0591F00E945806DF93CF93F0
S1130CF01F928F931F930F930E94070721960F90C3
S1130D000F900F900F900F900F90EBCF119ADF93ED
S1130D10CF938BEE94E09F938F930E9407070F90DD
S1130D200F900F900F908AEC94E0DF91CF911F9178
S1130D300F91FF90EF900895CF93C82F1198CB0196
S1130D400E9437068C2F0E944506119ACF91089570
S1130D5080EB84B9099A80E58CBD60E070E082E3A1
S1130D600C949C06AA1BBB1B51E107C0AA1FBB1F06
S1130D70A617B70710F0A61BB70B881F991F5A9523
S1130D80A9F780959095BC01CD010895FB01DC0184
S1130D904150504048F001900D920020C9F701C025
S1130DA01D9241505040E0F708950F931F93CF9345
S1130DB0DF93182F092FEB018B8181FD03C08FEF87
S1130DC09FEF20C082FF10C04E815F812C813D8146
S1130DD0421753077CF4E881F9819F012F5F3F4F4D
S1130DE039832883108306C0E885F985812F099506
S1130DF0892B29F72E813F812F5F3F4F3F832E831D
S1130E00812F902FDF91CF911F910F910895A0E032
S1130E10B0E0EDE0F7E00C949E09FE013596619197
S1130E207191AF0180910605909107050E944807D2
S1130E30E2E00C94BA090F931F93CF93DF93E091F0
S1130E400605F0910705238121FF1BC0EC0100E09A
S1130E5010E089916091060570910705DB011896F1
S1130E60ED91FC911997882331F00995892B89F329
S1130E700FEF1FEFEECF8AE00995892B11F4C8011B
S1130E8002C08FEF9FEFDF91CF911F910F910895D3
S1130E90ACE0B0E0EEE4F7E00C948E097C016B0169
S1130EA08A01FC0117821682838181FFBDC1CE01B4
S1130EB001964C01F7019381F60193FD859193FF0F
S1130EC081916F01882309F4ABC1853239F493FD14
S1130ED0859193FF81916F01853229F4B70190E0E8
S1130EE00E94D506E7CF512C312C20E02032A0F40B
S1130EF08B3269F030F4803259F0833269F4206126
S1130F002CC08D3239F0803339F4216026C0226040
S1130F10246023C0286021C027FD27C030ED380F8E
S1130F203A3078F426FF06C0FAE05F9E300D1124B3
S1130F30532E13C08AE0389E300D1124332E2062C4
S1130F400CC08E3221F426FD6BC1206406C08C36A1
S1130F5011F4206802C0883641F4F60193FD8591AE
S1130F6093FF81916F018111C1CF982F9F7D95547B
S1130F70933028F40C5F1F4FFFE3F9830DC08336D1
S1130F8031F0833771F0833509F05BC022C0F8017A
S1130F90808189830E5F1F4F44244394512C540154
S1130FA015C03801F2E06F0E711CF801A080B18009
S1130FB026FF03C0652D70E002C06FEF7FEFC5010F
S1130FC02C870E9425092C0183012C852F77222E42
S1130FD017C03801F2E06F0E711CF801A080B180D7
S1130FE026FF03C0652D70E002C06FEF7FEFC501DF
S1130FF02C870E941A092C012C852068222E83013B
S113100023FC1BC0832D90E048165906B0F4B701A9
S113101080E290E00E94D5063A94F4CFF50127FCD3
S1131020859127FE81915F01B70190E00E94D5066A
S113103031103A94F1E04F1A51084114510471F7F8
S1131040E5C0843611F0893639F5F80127FF07C069
S113105060817181828193810C5F1F4F08C0608120
S11310607181882777FD8095982F0E5F1F4F2F760B
S1131070B22E97FF09C090958095709561957F4F2A
S11310808F4F9F4F2068B22E2AE030E0A4010E94C7
S11310903009A82EA81844C0853729F42F7EB22E13
S11310A02AE030E025C0F22FF97FBF2E8F36C1F041
S11310B018F4883579F0B4C0803719F0883721F0F6
S11310C0AFC02F2F2061B22EB4FE0DC08B2D8460D3
S11310D0B82E09C024FF0AC09F2F9660B92E06C0FF
S11310E028E030E005C020E130E002C020E132E039
S11310F0F801B7FE07C060817181828193810C5F22
S11311001F4F06C06081718180E090E00E5F1F4F29
S1131110A4010E943009A82EA818FB2DFF77BF2E2A
S1131120B6FE0BC02B2D2E7FA51450F4B4FE0AC0BE
S1131130B2FC08C02B2D2E7E05C07A2C2B2D03C0AB
S11311407A2C01C0752C24FF0DC0FE01EA0DF11D9F
S11311508081803311F4297E09C022FF06C0739474
S1131160739404C0822F867809F0739423FD13C00E
S113117020FF06C05A2C731418F4530C5718732C00
S1131180731468F4B70180E290E02C870E94D506BE
S113119073942C85F5CF731410F4371801C0312CD7
S11311A024FF12C0B70180E390E02C870E94D5068B
S11311B02C8522FF17C021FF03C088E590E002C000
S11311C088E790E0B7010CC0822F867859F021FDA2
S11311D002C080E201C08BE227FD8DE2B70190E0FE
S11311E00E94D506A51438F4B70180E390E00E946C
S11311F0D5065A94F7CFAA94F401EA0DF11D808123
S1131200B70190E00E94D506A110F5CF332009F470
S113121051CEB70180E290E00E94D5063A94F6CF11
S1131220F7018681978102C08FEF9FEF2C96E2E150
S11312300C94AA09FC010590615070400110D8F784
S1131240809590958E0F9F1F0895FC01615070400A
S113125001900110D8F7809590958E0F9F1F0895E7
S1131260FA01AA27283051F1203181F1E8946F93D3
S11312706E7F6E5F7F4F8F4F9F4FAF4FB1E03ED079
S1131280B4E03CD0670F781F891F9A1FA11D680F17
S1131290791F8A1F911DA11D6A0F711D811D911D4A
S11312A0A11D20D009F468943F912AE0269F1124BF
S11312B03019305D3193DEF6CF010895462F477023
S11312C0405D4193B3E00FD0C9F7F6CF462F4F707E
S11312D0405D4A3318F0495D31FD4052419302D0DC
S11312E0A9F7EACFB4E0A695979587957795679582
S11312F0BA95C9F700976105710508959B01AC0182
S11313000A2E06945795479537952795BA95C9F7A8
S1131310620F731F841F951FA01D08952F923F9283
S11313204F925F926F927F928F929F92AF92BF92F1
S1131330CF92DF92EF92FF920F931F93CF93DF939D
S1131340CDB7DEB7CA1BDB0B0FB6F894DEBF0FBEFA
S1131350CDBF09942A88398848885F846E847D8447
S11313608C849B84AA84B984C884DF80EE80FD8049
S11313700C811B81AA81B981CE0FD11D0FB6F894BF
S1111380DEBF0FBECDBFED010895F894FFCF80
S113138E0050005068832450C0A80101FFFFFF00E5
S113139EC0A8010550E549BF9140000000030000BC
S11313AE0000BB00CC00000053656E743A20257318
S11313BE0A0073706C6974002E6865780068747422
S11313CE703A2F2F7777772E77692D70726F2E756F
S11313DE732F75706C6F6164732F6865782F00318D
S11313EE3030303030303030300053657474696EC4
S11313FE6720536F7572636520506F7274206F6E21
S113140E20536F636B6574203020256425640A00B5
S113141E52656164696E6720536F757263652050FF
S113142E6F7274206F6E20536F636B65742030205F
S113143E256425640A0A0053657474696E67205323
S113144E6F636B6574203020746F204F70656E0A65
S113145E00535049205352205374617475733A20CB
S113146E25640A0053657474696E67205365727639
S113147E657220495020416464726573732025643B
S113148E2E25642E25642E25640A00526561646936
S113149E6E672053305F444950523A2025642E25FE
S11314AE642E25642E25640A0A0053504920535293
S11314BE205374617475733A203078253032780A6B
S11314CE0053657474696E67205365727665722075
S11314DE506F72740052656164696E672053305F99
S11314EE44504F52543A20256425640A0A0054721B
S11314FE79696E6720746F2045737461626C6973C9
S113150E6820436F6E6E656374696F6E2E2E2E00A7
S113151E54696D656F75742C20646973636F6E6E98
S113152E656374696E672100436F6E6E65637469DB
S113153E6F6E20537563636565646564210A0043A9
S113154E6F756C64206E6F7420636F6E6E6563745A
S113155E2E2045786974696E672E2E2E0A00536507
S113156E6E642053697A653A2025640A0054582023
S113157E467265652053697A653A2025640A0054DB
S113158E582053697A653A202564005458204672CF
S113159E65652053697A65204572726F7221005415
S11315AE58204275666665723A2025780A0052659F
S11315BE616C2057523A2025640A005265616C20F2
S11315CE52523A2025640A004275666665723A20C4
S11315DE25630A0057726974696E6720746F20520E
S11315EE414D3A2025632040206164647265737313
S11315FE2025640A0054686973207368697420692D
S113160E732062726F6B656E004D61736B20526551
S113161E6769737465722056616C75653A2025642A
S113162E0A00496E7465727275707420526567692A
S113163E737465722056616C75653A2025640A00D0
S113164E53656E64204F7065726174696F6E2043CA
S113165E6F6D706C6574652E0054696D656F75746D
S113166E204F63637572726564206F6E20536F63CF
S113167E6B657420302100526563656976696E6707
S113168E20446174612E2E2E00536F636B6574209B
S113169E446973636F6E6E65637465642E00536F75
S11316AE636B6574203020436F6E6E65637465647E
S11316BE2E00556E646566696E656420496E7465A8
S11316CE7272757074204F636375727265642E2026
S11316DE496E742056616C75653A20256400537406
S11316EE617274696E672055702E2E2E0047455414
S11316FE20687474703A2F2F7777772E77692D7050
S113170E726F2E75732F75706C6F6164732F6865AD
S113171E782F313030303030303030302F666C61CD
S113172E6766696C652E74787420485454502F3152
S113173E2E31200A486F73743A207777772E7769A3
S113174E2D70726F2E7573200A0A00446F6E652118
S113175E00446174613A2030782530327820416437
S113176E64726573733A2025640A000A0A506F7313
S10D177E6974696F6E3A2025640057
S9030000FC
