S02A000050726163746963655F506172616C6C656C5F50726F6772616D6D696E675F546573742E7372656362
S11300000C943E000C9450000C9450000C9450003E
S11300100C9450000C9450000C9450000C9450001C
S11300200C9450000C9450000C9450000C9450000C
S11300300C9450000C9450000C9450000C945000FC
S11300400C9450000C9450000C9450000C945000EC
S11300500C9450000C9450000C9450000C945000DC
S11300600C9450000C9450000C9450000C945000CC
S11300700C9450000C9450000C94500011241FBE9A
S1130080CFEFD8E0DEBFCDBF21E0A0E0B1E001C0FA
S11300901D92A130B207E1F70E947C010C949301F8
S11300A00C94000080EB84B95C9A80E58CBD0895C3
S11300B08EBD0DB407FEFDCF089588B1877888B949
S11300C05C9880E00E94580080E00E94580080E024
S11300D00E94580080E00E94580080E00E9458006E
S11300E080E00E94580080E00E94580088E00E944E
S11300F0580080E00E94580080E00E94580080E090
S11301000E94580080E00E94580080E00E9458003D
S113011080E00E94580080E00E94580080E00E9425
S1130120580080E20E94580080E00E94580080E05D
S11301300E94580080E00E94580080E00E9458000D
S113014080E00E94580080E00E94580080E00E94F5
S1130150580080E00E9458005C9A5C9880E00E94FD
S1130160580080E00E94580080E00E94580080E01F
S11301700E94580080E00E94580080E00E945800CD
S113018080E00E94580088E00E94580080E00E94AD
S1130190580080E00E94580080E00E94580080E0EF
S11301A00E94580080E00E94580080E00E9458009D
S11301B080E00E94580080E00E94580080E20E9483
S11301C0580080E00E94580080E00E94580080E0BF
S11301D00E94580080E00E94580080E00E9458006D
S11301E080E00E94580084E00E94580080E00E9451
S11301F058005C9A88E28A95F1F788B18C6088B9D6
S11302008BE692E00197F1F700C000000895519A3F
S11302105098589A86E08093C2001092C50089E1F4
S11302208093C400E1ECF0E0808188608083808169
S1130230806180830895E0ECF0E0908195FFFDCF2C
S11302408093C600E0ECF0E0808186FFFDCFE0EC17
S1130250F0E08081806480830895469A45984498AC
S113026088E082B9409A409846984598449812B8D4
S1130270409A409811B8429844988FEC97E00197BF
S1130280F1F700C0000080B1809300010E941B01BF
S1130290429A8FEF81B946984598449881E082B993
S11302A0409A409811B8429844988FEC97E001978F
S11302B0F1F700C0000080B1809300010E941B018F
S11302C0429A8FEF81B946984598449882E082B962
S11302D0409A409811B8429844988FEC97E001975F
S11302E0F1F700C0000080B1809300010E941B015F
S11302F0429A8FEF81B908950E9407018AB18867F5
S11303008AB9529A5D9A0E9452005B985E9A87B1AC
S11303108D6787B9399840988FEF81B90E945D0045
S10D03200E942D01FFCFF894FFCFD7
S9030000FC
