:100000000C943E000C945B000C945B000C945B0021
:100010000C945B000C945B000C945B000C945B00F4
:100020000C945B000C945B000C945B000C945B00E4
:100030000C945B000C945B000C945B000C944001EE
:100040000C945B000C945B000C945B000C945B00C4
:100050000C945B000C945B000C945B000C945B00B4
:100060000C945B000C945B000C945B000C945B00A4
:100070000C9473060C945B000C945B0011241FBE5F
:10008000CFEFD8E0DEBFCDBF14E0A0E0B1E0E8E5FF
:10009000F5E102C005900D92AA39B107D9F726E023
:1000A000AAE9B4E001C01D92A732B207E1F70E94AD
:1000B0006E010C94AA0A0C9400008091FE0488231F
:1000C000E9F06AE171E08AE994E00E94AC076FE12F
:1000D00071E08AE994E00E94A10764E371E08AE993
:1000E00094E00E94A10766E471E08AE994E00E942E
:1000F000A1078AE994E00E947E0120C08091FF045C
:100100008823E1F069E571E08AE994E00E94AC0798
:100110006FE171E08AE994E00E94A10764E371E075
:100120008AE994E00E94A10766E471E08AE994E01C
:100130000E94A1078AE994E00E94CB0484E6EAE9E0
:10014000F4E0DF011D928A95E9F781E090E00895DF
:100150000F931F9381E08093FF046FE171E08AE9C0
:1001600094E00E94AC0761EA71E08AE994E00E94A1
:10017000A10785EC91E09F938F930E94E50781E0B2
:1001800090E00E94090501E010E020E030E0A901C4
:1001900061E070E08AE994E00E94420445E154E0A5
:1001A00060E070E0CB010E94DD030F900F9081E0D2
:1001B00090E01F910F9108950F931F9380916F000E
:1001C0008E7F80936F001092FE0481E08093FF0485
:1001D0006FE171E08AE994E00E94AC0768ED71E09C
:1001E0008AE994E00E94A10700E010E020E030E3FB
:1001F00040E050E061E070E08AE994E00E9442044F
:100200008DEF91E09F938F930E94E50743E050E0CC
:1002100060E070E380E090E00E94DD038AE090E01F
:100220000E94F90780E090E30E9434048F7080936D
:10023000000581E090E30E9434048F7080930105F3
:1002400082E090E30E9434048F708093020584E67C
:10025000EAE9F4E0DF011D928A95E9F70F900F902B
:1002600080910005813011F40E94A8000E945D0079
:1002700080916F00816080936F001F910F910895AE
:100280001F920F920FB60F9211242F933F934F930B
:100290005F936F937F938F939F93AF93BF93EF93EE
:1002A000FF93F89489E092E00E9400080E94DC002D
:1002B00010928400109285007894FF91EF91BF9185
:1002C000AF919F918F917F916F915F914F913F91EE
:1002D0002F910F900FBE0F901F9018950E9413053D
:1002E0000E9494030E942A040E943B0478940E9476
:1002F000DC0085E192E00E940008FFCFCF93DF93FE
:10030000BC0183E095E00E94AC076BE172E083E002
:1003100095E00E94A107C3E0D5E0DF93CF9388E981
:1003200091E09F938F930E94E507FE0101900020CA
:10033000E9F7BF01615071096350754040E050E03A
:10034000CE010E94880284E6FE0111928A95E9F7A7
:100350000F900F900F900F90DF91CF91089510980C
:1003600020EF2EBD0DB407FEFDCF9EBD0DB407FEE0
:10037000FDCF8EBD0DB407FEFDCF6EBD0DB407FEE3
:10038000FDCF109A089510982FE02EBD0DB407FEF2
:10039000FDCF9EBD0DB407FEFDCF8EBD0DB407FE93
:1003A000FDCF1EBC0DB407FEFDCF109A8EB508958B
:1003B000BF92CF92DF92EF92FF920F931F93CF9352
:1003C000DF93B82EEB016A01890187E4E82E82E011
:1003D000F82E83E094E00E94C3011F928F93FF9256
:1003E000EF920E94E50760E181E094E00E94AF0196
:1003F0006B2D80E094E00E94AF01F801608184E001
:1004000094E00E94AF01F801618185E094E00E94D0
:10041000AF0161E081E094E00E94AF0183E094E0ED
:100420000E94C3010F900F900F900F90833189F6B7
:1004300068818CE094E00E94AF0169818DE094E0D6
:100440000E94AF016A818EE094E00E94AF016B814F
:100450008FE094E00E94AF01F601608180E194E0BA
:100460000E94AF01F601618181E194E00E94AF0139
:1004700064E081E094E00E94AF01C0E0D0E000E1E0
:1004800017E283E094E00E94C3018731F9F087E529
:1004900092E00197F1F700C000002196CE01B8016B
:1004A0000E948D07892B69F78AE592E00E94000877
:1004B000C13593ECD90728F38CE792E00E9400083D
:1004C00060E181E094E00E94AF0111C083E094E01C
:1004D0000E94C301873139F484E992E00E94000848
:1004E00081E090E006C08BEA92E00E94000880E084
:1004F00090E0DF91CF911F910F91FF90EF90DF90EF
:10050000CF90BF900895682F81E094E00C94AF01E4
:100510006F927F928F929F92AF92BF92CF92DF9213
:10052000EF92FF920F931F93CF93DF936C017B01A8
:100530005A0183E094E00E94C3011F928F938AECDA
:1005400092E09F938F930E94E50783E094E00E94DE
:10055000C3010F900F900F900F908731B9F480E294
:1005600094E00E94C301C82FD0E0DC2FCC2781E2A9
:1005700094E00E94C301C80FD11D5AEE652E53E0CE
:10058000752E66ED862E62E0962E0CC020E031E0DE
:1005900042E051E064E071E081E00E94D801892BE3
:1005A000A9F3DDCFCE15DF0570F58FEC97E001974D
:1005B000F1F700C0000080E294E00E94C301C82F60
:1005C000D0E0DC2FCC2781E294E00E94C301C80F69
:1005D000D11DDF93CF939F928F920E94E50791E008
:1005E000691A71080F900F900F900F9061147104A9
:1005F000C9F688E00E94830281E094E00E94C30172
:100600008111FACF5DC084E294E00E94C301882E7C
:1006100085E294E00E94C301912C982C8824880ED6
:10062000911C82E294E00E94C30183E294E00E9464
:10063000C30182EE92E00E940008C0E0D0E03E01DB
:10064000680C791CCE15DF05F1F000919905109129
:100650009A050621172180919B0590919C05080F12
:10066000191FA114B10431F0CE019C5F0E94340423
:10067000682F04C0F601EC0FFD1F6081C8010E94C5
:10068000AF012196DCCF60E0C80101960E94AF0166
:1006900084E294E00E94C3016FEF84E294E00E9440
:1006A000AF01662D85E294E00E94AF0180E20E94D6
:1006B000830281E094E00E94C3018111FACF03C05C
:1006C00080E090E002C081E090E0DF91CF911F9147
:1006D0000F91FF90EF90DF90CF90BF90AF909F90E1
:1006E0008F907F906F900895CF93C82F8A3019F420
:1006F0008DE00E9474038091C00085FFFCCFC09301
:10070000C60080E090E0CF910895CF93BC01809126
:10071000C00087FFFCCFC091C6008C2F0E947403DD
:100720008C2F90E0CF9108951092C50083E38093C1
:10073000C40088E18093C10086E08093C20088E015
:1007400091E0909322068093210690932406809353
:1007500023060895119891E09EBD0DB407FEFDCFCC
:100760008EBD0DB407FEFDCF119A089522E02EBD77
:100770000DB407FEFDCF9EBD0DB407FEFDCF8EBDAF
:100780000DB407FEFDCF08958EBD0DB407FEFDCF5D
:10079000089523E02EBD0DB407FEFDCF9EBD0DB420
:1007A00007FEFDCF8EBD0DB407FEFDCF08951EBC24
:1007B0000DB407FEFDCF8EB50895EF92FF920F9313
:1007C0001F93CF93DF93EB01F82EE92E8A0180E48B
:1007D0000E94AA031198CE010E94C903EF92FF92D2
:1007E000DF93CF938FE193E09F938F930E94E50770
:1007F0000F900F900F900F900F900F90C0E0D0E0EF
:10080000C017D10739F00E94D70390E00E94F90782
:100810002196F6CF119ADF93CF9380E393E09F93D5
:100820008F930E94E5070F900F900F900F90DF912C
:10083000CF911F910F91FF90EF900895CF93C82F04
:100840001198CB010E94B6038C2F0E94C403119A09
:10085000CF91089580EB84B9099A81E58CBD60E061
:1008600070E082E30C941E0411980E94C9030E9458
:10087000D703119A08958AB180638AB95D9A5C9A08
:100880000C94DF042F923F924F925F926F927F926F
:100890008F929F92AF92BF92CF92DF92EF92FF9290
:1008A0000F931F93CF93DF93EC015B0129013A0172
:1008B0000E944E055C9880E090E00E940E055C9AD4
:1008C000AE0169E571E08FEF0E9406060E945F05A8
:1008D000C0E0D0E082EE882E83E0982E93E6292EA9
:1008E00091E0392EA114B104C1F073016201CC0E64
:1008F000DD1EE11CF11CC701B6010E94FD05FF923F
:10090000EF92DF92CF929F928F920E94E5070F9015
:100910000F900F900F900F900F9043EF53E06BEFFD
:1009200073E08FEF0E9406060E945F050E94FA05A1
:100930007C01FF928F933F922F920E94E5070F90C8
:100940000F900F900F90F70181818133D9F40E94AD
:1009500057054CE352E067E074E08FEFDF91CF91F1
:100960001F910F91FF90EF90DF90CF90BF90AF90CD
:100970009F908F907F906F905F904F903F902F90BF
:100980000C9406060E94F505C80FD91F0115110524
:1009900009F0A8CFDCCFCF93DF93EC010E9457057D
:1009A0004CE352E0BE018FEF0E9406064CE352E09A
:1009B00067E074E08FEFDF91CF910C940606109200
:1009C000BB051092BA051092AF051092AE051092B9
:1009D000AC051092B1051092B0051092BC051092B2
:1009E000B5051092B4051092B6051092B705109295
:1009F000B8051092B90589E0E3EAF5E0DF011D9240
:100A00008A95E9F71092A1051092B3051092B205EC
:100A100008955C988093B3055C9A08959093B1050E
:100A20008093B00508951092CD0087E08093CC00AC
:100A3000E9ECF0E088E1808386E08093CA00808161
:100A400080688083099A08951092BC0529E0E3EA42
:100A5000F5E0DF011D922A95E9F75D9A40E0242F29
:100A600030E02617370760F45091C80055FFFCCFDF
:100A7000FC01E20FF31F20812093CE004F5FEFCFE8
:100A80008BE991E00E94000880E090E00895809159
:100A9000C80087FFFCCF8091CE000895E9ECF0E01C
:100AA000808180688083789481E090E00895E9EC0B
:100AB000F0E080818F77808381E090E008958091DD
:100AC000BC05811105C081E28A95F1F70000F7CFDE
:100AD00081E090E008950F931F93CF93DF9380916F
:100AE000AE059091AF05892BF1F0C0E0D0E008E1B0
:100AF00014E0FE01ED55FA4F8081FF93EF931F92B2
:100B00008F931F930F930E94E50721960F900F90EC
:100B10000F900F900F900F90C930D10551F78AE0D8
:100B200090E00E94F9071092B5051092B4058091EB
:100B3000B4059091B5052091A9052F70820F911DE4
:100B40009093B5058093B4058091B4059091B50557
:100B50002091A8052F703AE0239F800D911D11244C
:100B60009093B5058093B4058091B4059091B50537
:100B70002091A7052F7034E6239F800D911D11242D
:100B80009093B5058093B4052091B4053091B505D7
:100B90006091A6056F7048EE53E0649FC001659FA9
:100BA000900D1124820F931F9093B5058093B40587
:100BB0002091B4053091B5056091A5056F7040E1B5
:100BC00057E2649FC001659F900D1124820F931F0F
:100BD0009093B5058093B4058091B4059091B505C7
:100BE000DF91CF911F910F9108958091B40590915D
:100BF000B505089583EA95E008956093B60570936E
:100C0000B7058093B8059093B90508950F931F9386
:100C1000CF93DF938B01EA01813031F0823059F0BC
:100C20008F3F09F059C00DC06EE571E08DEB95E086
:100C30000E94AC0706C064E374E08DEB95E00E946F
:100C4000A107B8018DEB95E00E94A10782E0CC33AB
:100C5000D80759F067E072E08DEB95E00E94A1079C
:100C6000BE018DEB95E00E94A10766E171E08DEB7E
:100C700095E00E94A1070DEB15E0E8010990002026
:100C8000E9F72197CD5BD5401F930F93DF93CF9367
:100C90001F930F9389E394E09F938F930E94E5073E
:100CA000BE01C8010E94240584E6F80111928A95CC
:100CB000E9F78EE594E00E94000885E694E00E9442
:100CC00000088DB79EB708960FB6F8949EBF0FBE6A
:100CD0008DBF81E090E002C080E090E0DF91CF9195
:100CE0001F910F9108951F920F920FB60F9211242A
:100CF0002F933F934F935F936F937F938F939F9324
:100D0000AF93BF93CF93DF93EF93FF93F8948091CA
:100D1000BA059091BB05892BF1F40E944705809399
:100D2000AC058091AC05823509F0D9C05D98109270
:100D3000B1051092B005E091B005F091B105809138
:100D4000AC05ED55FA4F808381E090E09093BB05B0
:100D50008093BA0510C08091B0059091B1050997B4
:100D600060F45D98C091B005D091B1050E9447052F
:100D7000CD55DA4F88835D9AB2C08091B0059091CD
:100D8000B1050997D1F40E946B059093B505809346
:100D9000B4058091AE059091AF05892B09F49FC0F1
:100DA0008091B4059091B5059F938F9380E794E06F
:100DB0009F938F930E94E5078EC02091B0053091DC
:100DC000B1058091B4059091B505099628173907AA
:100DD00008F04FC00E9447058093AC059091B30581
:100DE000913089F55C988091AC058A3311F45D9857
:100DF0002AC08091B205811109C08091AC0582950D
:100E0000807F8093AD059093B20569C08091AC0559
:100E10009091AD05892B8093AD054091B605509119
:100E2000B7056091B8057091B9052091B005309172
:100E3000B1052A503109240F351FB9010E941E0443
:100E40001092B2054CC04091B6055091B705609123
:100E5000B8057091B9052091B0053091B105809128
:100E6000AC052A503109240F351FB9010E941E0418
:100E700036C08091B6059091B705A091B805B091A4
:100E8000B9056091B0057091B1056A507109680F9C
:100E9000791F80E00E941E041092B1051092B005E7
:100EA0001092BB051092BA051092B3051092B205CC
:100EB0001092AD0581E08093BC050E946B059F9365
:100EC0008F9380E794E09F938F930E94E50789E8D2
:100ED00094E00E9400080F900F900F900F90809167
:100EE000B0059091B10501969093B1058093B0053E
:100EF0005C9A7894FF91EF91DF91CF91BF91AF9180
:100F00009F918F917F916F915F914F913F912F9121
:100F10000F900FBE0F901F901895AA1BBB1B51E19D
:100F200007C0AA1FBB1FA617B70710F0A61BB70B59
:100F3000881F991F5A95A9F780959095BC01CD01FE
:100F40000895FB01DC010D900020E9F71197019055
:100F50000D920020E1F70895FB01DC0101900D9254
:100F60000020E1F708950F931F93CF93DF93182F7D
:100F7000092FEB018B8181FD03C08FEF9FEF20C014
:100F800082FF10C04E815F812C813D814217530743
:100F90007CF4E881F9819F012F5F3F4F39832883DB
:100FA000108306C0E885F985812F0995892B29F7DB
:100FB0002E813F812F5F3F4F3F832E83812F902FC4
:100FC000DF91CF911F910F910895A0E0B0E0EBEE7B
:100FD000F7E00C94830AFE01359661917191AF019F
:100FE00080912306909124060E942D08E2E00C9443
:100FF0009F0A60912306709124060E94B30708950A
:101000000F931F93CF93DF93E0912306F091240673
:10101000238121FF1BC0EC0100E010E08991609169
:10102000230670912406DB011896ED91FC91199727
:10103000882331F00995892B89F30FEF1FEFEECF4D
:101040008AE00995892B11F4C80102C08FEF9FEF48
:10105000DF91CF911F910F910895ACE0B0E0E3E3F1
:10106000F8E00C94730A7C016B018A01FC01178281
:101070001682838181FFBDC1CE0101964C01F7012B
:101080009381F60193FD859193FF81916F018823F0
:1010900009F4ABC1853239F493FD859193FF8191B9
:1010A0006F01853229F4B70190E00E94B307E7CFC2
:1010B000512C312C20E02032A0F48B3269F030F436
:1010C000803259F0833269F420612CC08D3239F0BE
:1010D000803339F4216026C02260246023C0286058
:1010E00021C027FD27C030ED380F3A3078F426FFB5
:1010F00006C0FAE05F9E300D1124532E13C08AE023
:10110000389E300D1124332E20620CC08E3221F413
:1011100026FD6BC1206406C08C3611F4206802C025
:10112000883641F4F60193FD859193FF81916F011B
:101130008111C1CF982F9F7D9554933028F40C5F77
:101140001F4FFFE3F9830DC0833631F0833771F011
:10115000833509F05BC022C0F801808189830E5F6E
:101160001F4F44244394512C540115C03801F2E020
:101170006F0E711CF801A080B18026FF03C0652DA1
:1011800070E002C06FEF7FEFC5012C870E940A0A52
:101190002C0183012C852F77222E17C03801F2E015
:1011A0006F0E711CF801A080B18026FF03C0652D71
:1011B00070E002C06FEF7FEFC5012C870E94FF092E
:1011C0002C012C852068222E830123FC1BC0832D3B
:1011D00090E048165906B0F4B70180E290E00E9412
:1011E000B3073A94F4CFF50127FC859127FE81914E
:1011F0005F01B70190E00E94B30731103A94F1E02B
:101200004F1A51084114510471F7E5C0843611F0AA
:10121000893639F5F80127FF07C060817181828125
:1012200093810C5F1F4F08C060817181882777FD13
:101230008095982F0E5F1F4F2F76B22E97FF09C013
:1012400090958095709561957F4F8F4F9F4F206847
:10125000B22E2AE030E0A4010E94150AA82EA81898
:1012600044C0853729F42F7EB22E2AE030E025C015
:10127000F22FF97FBF2E8F36C1F018F4883579F040
:10128000B4C0803719F0883721F0AFC02F2F20610C
:10129000B22EB4FE0DC08B2D8460B82E09C024FF81
:1012A0000AC09F2F9660B92E06C028E030E005C026
:1012B00020E130E002C020E132E0F801B7FE07C0D3
:1012C00060817181828193810C5F1F4F06C06081B4
:1012D000718180E090E00E5F1F4FA4010E94150A0B
:1012E000A82EA818FB2DFF77BF2EB6FE0BC02B2D06
:1012F0002E7FA51450F4B4FE0AC0B2FC08C02B2DFA
:101300002E7E05C07A2C2B2D03C07A2C01C0752CA3
:1013100024FF0DC0FE01EA0DF11D8081803311F420
:10132000297E09C022FF06C07394739404C0822FE3
:10133000867809F0739423FD13C020FF06C05A2C51
:10134000731418F4530C5718732C731468F4B70102
:1013500080E290E02C870E94B30773942C85F5CF30
:10136000731410F4371801C0312C24FF12C0B701D8
:1013700080E390E02C870E94B3072C8522FF17C0E2
:1013800021FF03C088E590E002C088E790E0B70144
:101390000CC0822F867859F021FD02C080E201C086
:1013A0008BE227FD8DE2B70190E00E94B307A51400
:1013B00038F4B70180E390E00E94B3075A94F7CF66
:1013C000AA94F401EA0DF11D8081B70190E00E941A
:1013D000B307A110F5CF332009F451CEB70180E255
:1013E00090E00E94B3073A94F6CFF7018681978187
:1013F00002C08FEF9FEF2C96E2E10C948F0AFC0164
:101400000590615070400110D8F7809590958E0F2F
:101410009F1F0895FC016150704001900110D8F7A2
:10142000809590958E0F9F1F0895FA01AA27283066
:1014300051F1203181F1E8946F936E7F6E5F7F4FA1
:101440008F4F9F4FAF4FB1E03ED0B4E03CD0670F1D
:10145000781F891F9A1FA11D680F791F8A1F911D70
:10146000A11D6A0F711D811D911DA11D20D009F4C0
:1014700068943F912AE0269F11243019305D319302
:10148000DEF6CF010895462F4770405D4193B3E0EB
:101490000FD0C9F7F6CF462F4F70405D4A3318F092
:1014A000495D31FD4052419302D0A9F7EACFB4E043
:1014B000A6959795879577956795BA95C9F70097FB
:1014C0006105710508959B01AC010A2E069457959C
:1014D000479537952795BA95C9F7620F731F841FF3
:1014E000951FA01D08952F923F924F925F926F9289
:1014F0007F928F929F92AF92BF92CF92DF92EF92A4
:10150000FF920F931F93CF93DF93CDB7DEB7CA1B24
:10151000DB0B0FB6F894DEBF0FBECDBF09942A884F
:10152000398848885F846E847D848C849B84AA84F7
:10153000B984C884DF80EE80FD800C811B81AA8184
:10154000B981CE0FD11D0FB6F894DEBF0FBECDBF4F
:08155000ED010895F894FFCFAE
:101558000050005068832450000000030000000081
:101568007403850300000D0A0000474554200068F5
:101578007474703A2F2F7777772E77692D70726F82
:101588002E7573002F646174612F636C65617266D8
:101598006C6167733F00776970726F69643D3130C1
:1015A800303030303030303000687474705F6765C8
:1015B8007420005472616E204C656E6774683A201E
:1015C80025640A002F646174612F75706461746505
:1015D80073736964733F0026737369643D006669B9
:1015E8006C65706174683A2025730053656E7421C8
:1015F800002F75706C6F6164732F6865782F3130B8
:1016080030303030303030302F64656661756C743E
:101618002E68657800436F6D707265737320466C31
:1016280061672053657421002F75706C6F61647356
:101638002F6865782F313030303030303030302FEF
:10164800666C616766696C652E7478740052616DAA
:10165800205072696E743A2000466C61672053749A
:101668006174757300446F6E6521002048545450AE
:101678002F312E31200A486F73743A207777772EEE
:1016880077692D70726F2E7573200A0A0053656E84
:10169800743A2025730A005350492053522053743A
:1016A800617475733A2025640A00547279696E670B
:1016B80020746F2045737461626C69736820436F8E
:1016C8006E6E656374696F6E2E2E2E0054696D659B
:1016D8006F75742C20646973636F6E6E65637469CB
:1016E8006E672100436F6E6E656374696F6E205379
:1016F8007563636565646564210A00436F756C648E
:10170800206E6F7420636F6E6E6563742E2045784B
:101718006974696E672E2E2E0A0053523A2030786B
:10172800253032780A0054582053697A653A2025C2
:10173800640053656E64696E672E2E2E0A00457428
:101748006865726E657420526563656976652044C4
:101758006174612054696D656F75742100537461FB
:101768007473205265673A2030782530327800410A
:101778006464726573733A203078253036780A00CD
:101788000A53697A653A2025640A00737973746587
:101798006D2E7072696E745F6C6576656C003100D1
:1017A80073797374656D2E636D642E686561646505
:1017B800725F656E61626C65640073797374656DE0
:1017C8002E636D642E70726F6D70745F656E6162EA
:1017D8006C6564006F66660073797374656D2E635B
:1017E8006D642E6563686F006F6E007363616E00D1
:1017F800776C616E2E7373696400776C616E2E70FE
:101808006173736B6579007463705F636C69656E8F
:10181800740020485454502F312E310A686F737465
:101828003A207777772E77692D70726F2E75730A45
:101838000A0052414D20416464726573733A202551
:10184800640A0030203130303030007374726561C2
:101858006D5F726561640073747265616D5F636C5E
:101868006F736520616C6C0056616C75653A203049
:1018780078253032782C20416464726573733A207D
:1018880025700A007365742000436F6D6D616E6486
:101898003A202573204C656E6774683A2025642CBD
:1018A80020416464726573733A2025700A00467299
:1018B800656564210052657475726E696E672100F2
:1018C8005472616E736D697373696F6E204C656EC7
:1018D8006774683A2025640A00446F6E6520526573
:0A18E80063656976696E67210000F0
:00000001FF
