:100000000C943E000C941C040C945B000C945B005C
:100010000C945B000C945B000C945B000C945B00F4
:100020000C945B000C945B000C945B000C945B00E4
:100030000C945B000C945B000C945B000C945B00D4
:100040000C945B000C945B000C945B000C945B00C4
:100050000C945B000C945B000C945B000C945B00B4
:100060000C945B000C945B000C945B000C945B00A4
:100070000C94DA070C945B000C945B0011241FBEF7
:10008000CFEFD8E0DEBFCDBF14E0A0E0B1E0E4E9FF
:10009000F7E102C005900D92A23CB107D9F728E024
:1000A000A2ECB4E001C01D92A931B207E1F70E94B1
:1000B000DB000C94C80B0C9400000F931F93CF939C
:1000C000DF93CDB7DEB7C656D1090FB6F894DEBFC1
:1000D0000FBECDBF0E94E3050E944C07AC015F93A9
:1000E0008F932CE231E03F932F93A6968FAFA69784
:1000F000A7965FAFA7970E940309A6964FADA69754
:10010000A7965FADA79760E070E0CB010E947F05E6
:100110006CE371E0CE0101960E94CA0861E471E0CF
:10012000CE0101960E94BF0864E671E0CE010196FF
:100130000E94BF0867E771E0CE0101960E94BF08E8
:10014000CE0101960E94F7058C011F938F932EE735
:1001500031E03F932F930E940309A80160E074E00F
:1001600080E090E00E947F0521ED34E0A80160E08E
:1001700074E080E090E00E944B0540E050E0B80160
:1001800081ED94E00E948C0280E991E09F938F932F
:100190000E9403090FB6F894DEBF0FBECDBFCA5947
:1001A000DF4F0FB6F894DEBF0FBECDBFDF91CF910A
:1001B0001F910F9108950E9472060E94C3040E942D
:1001C000CC050E94DD0578940E94ED000E945D0040
:1001D00086E991E00E941E09FFCF28E031E04CE063
:1001E00051E060E171E084E191E00E942D0120E0A6
:1001F00031E042E051E064E071E081E00E94D10131
:10020000892BA9F30C946602109820EF2EBD0DB433
:1002100007FEFDCF9EBD0DB407FEFDCF8EBD0DB414
:1002200007FEFDCF6EBD0DB407FEFDCF109A0895F9
:1002300010982FE02EBD0DB407FEFDCF9EBD0DB46E
:1002400007FEFDCF8EBD0DB407FEFDCF1EBC0DB465
:1002500007FEFDCF109A8EB50895CF92DF92EF92F0
:10026000FF920F931F93CF93DF93EC018B016A01F1
:100270007901089A80EB84B9109A80E58CBD60E81A
:1002800080E090E00E9404018FEC97E00197F1F785
:1002900000C00000F701608181E090E00E9404014D
:1002A000F701618182E090E00E940401F701628120
:1002B00083E090E00E940401F701638184E090E014
:1002C0000E9404018FEC97E00197F1F700C0000055
:1002D000688189E090E00E94040169818AE090E0F1
:1002E0000E9404016A818BE090E00E9404016B810E
:1002F0008CE090E00E9404016C818DE090E00E940F
:1003000004016D818EE090E00E940401EFECF7E0C3
:100310003197F1F700C00000F601608185E090E0C0
:100320000E940401F601618186E090E00E940401D0
:10033000F601628187E090E00E940401F60163818A
:1003400088E090E00E9404018FEC97E00197F1F7BC
:1003500000C00000F80160818FE090E00E9404017D
:10036000F801618180E190E00E940401F80162815E
:1003700081E190E00E940401F801638182E190E054
:100380000E9404018FEC97E00197F1F700C0000094
:10039000DF91CF911F910F91FF90EF90DF90CF9061
:1003A0000895DF92EF92FF920F931F93CF93DF9305
:1003B000D82EEB017A01890160E181E094E00E948E
:1003C00004016D2D80E094E00E940401F801608139
:1003D00084E094E00E940401F801618185E094E0EA
:1003E0000E94040161E081E094E00E94040183E046
:1003F00094E00E9418018331F9F668818CE094E062
:100400000E94040169818DE094E00E9404016A81E8
:100410008EE094E00E9404016B818FE094E00E94E2
:100420000401F701608180E194E00E940401F7017A
:10043000618181E194E00E94040164E081E094E044
:100440000E940401C0E0D0E008EE13E083E094E0F5
:100450000E9418018731F9F08FE697E10197F1F7D3
:1004600000C000002196CE01B8010E94AB08892B84
:1004700069F78CE991E00E941E09C93893E1D90718
:1004800028F38EEB91E00E941E0960E181E094E088
:100490000E94040111C083E094E00E94180187319A
:1004A00039F486ED91E00E941E0981E090E006C0DB
:1004B0008DEE91E00E941E0980E090E0DF91CF91E7
:1004C0001F910F91FF90EF90DF90089563E08AE114
:1004D00090E00E94040163E08BE190E00E9404013F
:1004E0008FEF9FE190938E0780938D0720E030E49B
:1004F0003093900720938F079093940780939307EE
:1005000080E090E690939207809391070895682F7A
:1005100081E094E00C9404016F927F928F929F92FD
:10052000AF92BF92CF92DF92EF92FF920F931F9301
:10053000CF93DF936C017B015A0180E294E00E942B
:100540001801C82FD0E0DC2FCC2781E294E00E9474
:100550001801C80FD11D5AEE652E53E0752E6CE0C0
:10056000862E62E0962ECE15DF0570F58FEC97E0B3
:100570000197F1F700C0000080E294E00E941801AA
:10058000C82FD0E0DC2FCC2781E294E00E94180134
:10059000C80FD11DDF93CF939F928F920E940309C2
:1005A000F1E06F1A71080F900F900F900F90611487
:1005B0007104C9F688E00E94870281E094E00E94FD
:1005C00018018111FACF64C084E294E00E941801FE
:1005D000C82F85E294E00E941801D0E0DC2FCC27E0
:1005E000C80FD11D82E294E00E94180183E294E0DA
:1005F0000E94180188E192E00E941E0946018E0CBB
:100600009F1C3E016C187D08C601860D971DC814FD
:10061000D904F9F000918D0710918E070823192352
:1006200080918F0790919007080F191FA114B104B2
:1006300011F060E007C0F601808190E00E94170988
:10064000F6016081C8010E940401FFEFCF1ADF0AA2
:10065000DBCFCE0DDF1D60E0C80101960E940401D2
:1006600084E294E00E9418016FEF84E294E00E941B
:1006700004016C2F85E294E00E94040180E20E9454
:10068000870281E094E00E9418018111FACF03C033
:1006900080E090E002C081E090E0DF91CF911F9177
:1006A0000F91FF90EF90DF90CF90BF90AF909F9011
:1006B0008F907F906F9008956F927F928F929F920C
:1006C000AF92BF92CF92DF92EF92FF920F931F9360
:1006D000CF93DF931F92CDB7DEB77C018B01AAEEDB
:1006E000CA2EA3E0DA2E83E094E00E94180187313D
:1006F00009F074C088E294E00E941801682E89E233
:1007000094E00E941801712C762C6624680E711CEE
:10071000812C41E0E4E2CE2EE2E0DE2EF0E3AF2ECB
:10072000F2E0BF2EE114F10409F446C08091930772
:1007300090919407862197212091910730919207FB
:10074000820F931F49830E941801982E1F928F9346
:10075000DF92CF920E9403090F900F900F900F909D
:1007600049818AE0981208C0442341F0839441E013
:1007700099E09815E8F419C0411119C01F930F931F
:100780001F929F92BF92AF920E940309B801892DD8
:100790000E94C0050F5F1F4FE1E0EE1AF1080F90B5
:1007A0000F900F900F900F900F9040E001C041E02C
:1007B000FFEF6F1A7F0AB6CF672D88E294E00E94A0
:1007C0000401662D89E294E00E94040180E40E9405
:1007D00087028DE08A95F1F7000012C091E0C91AF6
:1007E000D108C114D10429F481E592E00E941E09C8
:1007F00007C0EFE1FEE43197F1F700C0000073CFCE
:1008000081E090E00F90DF91CF911F910F91FF90C9
:10081000EF90DF90CF90BF90AF909F908F907F90A0
:100820006F90089588E00E94870281E094E00E9422
:1008300018018111FACF08951F920F920FB60F92EF
:1008400011242F933F934F935F936F937F938F93D5
:100850009F93AF93BF93CF93EF93FF93F89486E169
:1008600090E00E9418011F928F9385E692E09F937B
:100870008F930E94030985E190E00E941801C82F20
:100880001F928F932EE732E03F932F930E9403092C
:100890008DB79EB708960FB6F8949EBF0FBE8DBF5A
:1008A000C0FF3FC082E094E00E941801C82F6FEFA4
:1008B00082E094E00E940401C4FF03C08CE992E04E
:1008C00021C0C3FF03C085EB92E01CC0C2FF11C072
:1008D00060E070E080E49FE10E945C030E941204EB
:1008E00081E090E09093C3048093C20483ED92E092
:1008F00009C0C1FF03C085EE92E004C0C0FF05C07F
:100900008AEF92E00E941E090CC01F92CF938EE0E6
:1009100093E09F938F930E9403090F900F900F9085
:100920000F90FF91EF91CF91BF91AF919F918F91D8
:100930007F916F915F914F913F912F910F900FBEDB
:100940000F901F901895CF93C82F8A3019F48DE01F
:100950000E94A3048091C00085FFFCCFC093C60015
:1009600080E090E0CF910895CF93BC018091C000CA
:1009700087FFFCCFC091C6008C2F0E94A3048C2F50
:1009800090E0CF9108951092C50083E38093C40056
:1009900088E18093C10086E08093C2008AE191E003
:1009A0009093140880931308909316088093150869
:1009B0000895119885E08EBD0DB407FEFDCF1EBCD5
:1009C0000DB407FEFDCF119A8EB590E008951198F1
:1009D00091E09EBD0DB407FEFDCF8EBD0DB407FEA8
:1009E000FDCF119A089522E02EBD0DB407FEFDCF74
:1009F0009EBD0DB407FEFDCF8EBD0DB407FEFDCF2D
:100A000008958EBD0DB407FEFDCF089523E02EBDE1
:100A10000DB407FEFDCF9EBD0DB407FEFDCF8EBD0C
:100A20000DB407FEFDCF08951EBC0DB407FEFDCF2B
:100A30008EB50895CF92DF92EF92FF920F931F939E
:100A4000CF93DF936C018B017A011198CB010E9447
:100A5000F30480E00E940105119A80E40E94E704FB
:100A60000E94D9041198C8010E94F304E601EC0C1D
:100A7000FD1CCE15DF0521F089910E940105F9CFFB
:100A8000119AC801DF91CF911F910F91FF90EF90C4
:100A9000DF90CF900895CF92DF92EF92FF920F9365
:100AA0001F93CF93DF9300D0CDB7DEB76B017C01EE
:100AB0008A0180E429833A830E94E7041198C601E1
:100AC0000E9406052981E22E3A81F32E0E0D1F1D8C
:100AD000E016F10631F00E941405F70181937F01C1
:100AE000F7CF119A89E294E00F900F90DF91CF91A8
:100AF0001F910F91FF90EF90DF90CF900895EF92AC
:100B0000FF920F931F93CF93DF93EB01F82EE92E03
:100B10008A0180E40E94E7041198CE010E94060534
:100B2000EF92FF92DF93CF938AE393E09F938F93AB
:100B30000E9403090F900F900F900F900F900F904D
:100B4000C0E0D0E0C017D10739F00E94140590E052
:100B50000E9417092196F6CF119ADF93CF938BE469
:100B600093E09F938F930E9403090F900F900F9033
:100B70000F90DF91CF911F910F91FF90EF9008950B
:100B8000CF93C82F1198CB010E94F3048C2F0E94A1
:100B90000105119ACF91089580EB84B9099A80E5F7
:100BA0008CBD60E070E082E30C94C00511980E9457
:100BB00006050E941405119A08958AB180638AB9C6
:100BC0005D9A5C9A089560E070E0CB010E94510745
:100BD0000E94AD0649E254E066EB73E08FEF0E949D
:100BE0005A075D980E94B60689E294E00895CF9274
:100BF000DF92FF920F931F93CF93DF931F92CDB796
:100C0000DEB78C0184EF93E00E941E09F801019089
:100C10000020E9F7AF0141505109401B510B60E042
:100C200074E0C8010E941A05F80101900020E9F75C
:100C3000CF0101976C01C01AD10A01E010E0F12C3C
:100C4000C80101970E94D605982FE2E0EF1520F029
:100C50008A3061F5F3942CC08D3051F118F48A304C
:100C600039F11AC0803219F0833211F115C0B60182
:100C70007C5F85E20E94C005B6016F5F7B4F82E317
:100C80000E94C005B6016E5F7B4F80E30E94C005E5
:100C9000F3E0CF0ED11C0CC0B6017C5F892F998385
:100CA0000E94C0058FEFC81AD80A9981992331F0A4
:100CB0000F5F1F4F0F3F93E0190711F6B601615008
:100CC0007C4F4FE150E08AE094E00E941A05C60193
:100CD0004F960F90DF91CF911F910F91FF90DF9072
:100CE000CF9008951092CD0083E08093CC00E9EC82
:100CF000F0E088E1808386E08093CA00808180688C
:100D00008083099A08951092CA0429E1E6E9F7E080
:100D1000DF011D922A95E9F75D9A40E0242F30E02B
:100D20002617370760F45091C80055FFFCCFFC012F
:100D3000E20FF31F20812093CE004F5FEFCF80E9B9
:100D400091E00E941E0980E090E008958091C80023
:100D500087FFFCCF8091CE000895E9ECF0E0808120
:100D600080688083789481E090E008958091CA043F
:100D7000811105C081E28A95F1F70000F7CF81E08B
:100D800090E008950F931F93CF93DF938091CD044C
:100D90009091CE04892BF1F0C0E0D0E00DE214E098
:100DA000FE01EA56F84F8081FF93EF931F928F93D5
:100DB0001F930F930E94030921960F900F900F909D
:100DC0000F900F900F90C730D10551F78AE090E057
:100DD0000E9417091092C9041092C8048091C80497
:100DE0009091C90420919C072F70820F911D9093C0
:100DF000C9048093C8048091C8049091C9042091CB
:100E00009B072F703AE0239F800D911D1124909332
:100E1000C9048093C8048091C8049091C9042091AA
:100E20009A072F7034E6239F800D911D1124909313
:100E3000C9048093C8042091C8043091C90460910A
:100E400099076F7048EE53E0649FC001659F900D55
:100E50001124820F931F9093C9048093C80420919A
:100E6000C8043091C904609198076F7040E157E25F
:100E7000649FC001659F900D1124820F931F909372
:100E8000C9048093C8048091C8049091C904DF917B
:100E9000CF911F910F9108958091C8049091C9043A
:100EA00008956093C4047093C5048093C60490931E
:100EB000C7040895EF92FF920F931F93CF93DF9390
:100EC00000D0CDB7DEB7282F8B017A0185E494E0FE
:100ED00029830E941E092981213031F0223059F0E6
:100EE0002F3F09F05CC00DC068E574E08FEA97E021
:100EF0000E94CA0806C06DE574E08FEA97E00E9480
:100F0000BF08B8018FEA97E00E94BF0889E2E8169F
:100F100084E0F80659F06FE371E08FEA97E00E94F1
:100F2000BF08B7018FEA97E00E94BF0868E271E04E
:100F30008FEA97E00E94BF080FEA17E0F8010190DE
:100F40000020E9F7BF01615071096F5A77401F9384
:100F50000F937F936F931F930F9382E694E09F9379
:100F60008F9369837A830E94030969817A81C8011A
:100F70000E94830684E6F80111928A95E9F787E8D2
:100F800094E00E941E098EE894E00E941E090FB6AC
:100F9000F894DEBF0FBECDBF81E090E002C080E0DC
:100FA00090E00F900F90DF91CF911F910F91FF90E4
:100FB000EF9008951F920F920FB60F9211242F9366
:100FC0003F934F935F936F937F938F939F93AF93D1
:100FD000BF93CF93DF93EF93FF93F8948091CF0467
:100FE0009091D004892B01F58091CD049091CE048D
:100FF000892BD1F0C091CB04D091CC040E94A606DD
:10100000CA56D84F8883E091CB04F091CC04EA56BD
:10101000F84F8081823509F081C081E090E09093A3
:10102000D0048093CF047AC08091CB049091CC04FB
:10103000079750F4C091CB04D091CC040E94A6062F
:10104000CA56D84F88836AC08091CB049091CC0453
:10105000079739F40E94C2069093C9048093C8048C
:101060005DC02091CB043091CC048091C804909154
:10107000C904079628173907D0F40E94A606809362
:1010800095074091C4045091C5046091C6047091C5
:10109000C7042091CB043091CC048091950728504F
:1010A0003109240F351FB9010E94C00537C0E091F6
:1010B000CB04F091CC04EA56F84F10828091C4041E
:1010C0009091C504A091C604B091C7046091CB046F
:1010D0007091CC0468507109680F791F80E00E94FC
:1010E000C0051092CC041092CB041092D004109240
:1010F000CF0481E08093CA040E94C2069F938F931D
:1011000089E994E09F938F930E94030982EB94E016
:101110000E941E090F900F900F900F908091CB04AA
:101120009091CC0401969093CC048093CB04789456
:10113000FF91EF91DF91CF91BF91AF919F918F91EF
:101140007F916F915F914F913F912F910F900FBEC3
:101150000F901F901895AA1BBB1B51E107C0AA1F37
:10116000BB1FA617B70710F0A61BB70B881F991F48
:101170005A95A9F780959095BC01CD010895FB0182
:10118000DC010D900020E9F7119701900D920020ED
:10119000E1F70895FB01DC0101900D920020E1F7D9
:1011A00008950F931F93CF93DF93182F092FEB010F
:1011B0008B8181FD03C08FEF9FEF20C082FF10C0A5
:1011C0004E815F812C813D81421753077CF4E88179
:1011D000F9819F012F5F3F4F39832883108306C019
:1011E000E885F985812F0995892B29F72E813F8183
:1011F0002F5F3F4F3F832E83812F902FDF91CF9121
:101200001F910F910895A0E0B0E0E9E0F9E00C949F
:10121000A10BFE01359661917191AF018091150886
:10122000909116080E944B09E2E00C94BD0B60916E
:101230001508709116080E94D10808950F931F9306
:10124000CF93DF93E0911508F0911608238121FFD9
:101250001BC0EC0100E010E08991609115087091CD
:101260001608DB011896ED91FC911997882331F04F
:101270000995892B89F30FEF1FEFEECF8AE00995CF
:10128000892B11F4C80102C08FEF9FEFDF91CF913E
:101290001F910F910895ACE0B0E0E1E5F9E00C9406
:1012A000910B7C016B018A01FC01178216828381FC
:1012B00081FFBDC1CE0101964C01F7019381F6017A
:1012C00093FD859193FF81916F01882309F4ABC150
:1012D000853239F493FD859193FF81916F018532B9
:1012E00029F4B70190E00E94D108E7CF512C312CAE
:1012F00020E02032A0F48B3269F030F4803259F0D3
:10130000833269F420612CC08D3239F0803339F496
:10131000216026C02260246023C0286021C027FDF0
:1013200027C030ED380F3A3078F426FF06C0FAE0D7
:101330005F9E300D1124532E13C08AE0389E300D6D
:101340001124332E20620CC08E3221F426FD6BC195
:10135000206406C08C3611F4206802C0883641F43F
:10136000F60193FD859193FF81916F018111C1CFAA
:10137000982F9F7D9554933028F40C5F1F4FFFE307
:10138000F9830DC0833631F0833771F0833509F06E
:101390005BC022C0F801808189830E5F1F4F442407
:1013A0004394512C540115C03801F2E06F0E711CAA
:1013B000F801A080B18026FF03C0652D70E002C057
:1013C0006FEF7FEFC5012C870E94280B2C01830152
:1013D0002C852F77222E17C03801F2E06F0E711C7A
:1013E000F801A080B18026FF03C0652D70E002C027
:1013F0006FEF7FEFC5012C870E941D0B2C012C8500
:101400002068222E830123FC1BC0832D90E0481608
:101410005906B0F4B70180E290E00E94D1083A94F6
:10142000F4CFF50127FC859127FE81915F01B7017B
:1014300090E00E94D10831103A94F1E04F1A51081F
:101440004114510471F7E5C0843611F0893639F53D
:10145000F80127FF07C060817181828193810C5F51
:101460001F4F08C060817181882777FD8095982F74
:101470000E5F1F4F2F76B22E97FF09C09095809573
:10148000709561957F4F8F4F9F4F2068B22E2AE055
:1014900030E0A4010E94330BA82EA81844C0853761
:1014A00029F42F7EB22E2AE030E025C0F22FF97FFA
:1014B000BF2E8F36C1F018F4883579F0B4C080376C
:1014C00019F0883721F0AFC02F2F2061B22EB4FE63
:1014D0000DC08B2D8460B82E09C024FF0AC09F2F39
:1014E0009660B92E06C028E030E005C020E130E06B
:1014F00002C020E132E0F801B7FE07C060817181CF
:10150000828193810C5F1F4F06C06081718180E0F2
:1015100090E00E5F1F4FA4010E94330BA82EA81865
:10152000FB2DFF77BF2EB6FE0BC02B2D2E7FA514F3
:1015300050F4B4FE0AC0B2FC08C02B2D2E7E05C0AC
:101540007A2C2B2D03C07A2C01C0752C24FF0DC0E2
:10155000FE01EA0DF11D8081803311F4297E09C05E
:1015600022FF06C07394739404C0822F867809F01A
:10157000739423FD13C020FF06C05A2C731418F473
:10158000530C5718732C731468F4B70180E290E081
:101590002C870E94D10873942C85F5CF731410F416
:1015A000371801C0312C24FF12C0B70180E390E04E
:1015B0002C870E94D1082C8522FF17C021FF03C071
:1015C00088E590E002C088E790E0B7010CC0822F68
:1015D000867859F021FD02C080E201C08BE227FD30
:1015E0008DE2B70190E00E94D108A51438F4B7014C
:1015F00080E390E00E94D1085A94F7CFAA94F401B6
:10160000EA0DF11D8081B70190E00E94D108A11080
:10161000F5CF332009F451CEB70180E290E00E946B
:10162000D1083A94F6CFF7018681978102C08FEFF7
:101630009FEF2C96E2E10C94AD0BFC0105906150FC
:1016400070400110D8F7809590958E0F9F1F0895D8
:10165000FC016150704001900110D8F78095909581
:101660008E0F9F1F0895FA01AA27283051F12031CB
:1016700081F1E8946F936E7F6E5F7F4F8F4F9F4F26
:10168000AF4FB1E03ED0B4E03CD0670F781F891F68
:101690009A1FA11D680F791F8A1F911DA11D6A0F36
:1016A000711D811D911DA11D20D009F468943F91E9
:1016B0002AE0269F11243019305D3193DEF6CF01E8
:1016C0000895462F4770405D4193B3E00FD0C9F7AE
:1016D000F6CF462F4F70405D4A3318F0495D31FD1B
:1016E0004052419302D0A9F7EACFB4E0A69597956E
:1016F000879577956795BA95C9F700976105710544
:1017000008959B01AC010A2E06945795479537958D
:101710002795BA95C9F7620F731F841F951FA01DE7
:1017200008952F923F924F925F926F927F928F9285
:101730009F92AF92BF92CF92DF92EF92FF920F9360
:101740001F93CF93DF93CDB7DEB7CA1BDB0B0FB66A
:10175000F894DEBF0FBECDBF09942A883988488827
:101760005F846E847D848C849B84AA84B984C884BD
:10177000DF80EE80FD800C811B81AA81B981CE0FB4
:10178000D11D0FB6F894DEBF0FBECDBFED01089599
:04179000F894FFCFFB
:101794000050005068832450C0A80101FFFFFF00DF
:1017A400C0A8010550E549BF9140000000030000B6
:1017B4000000A304B40400000D0A00005472616E1A
:1017C400204C656E6774683A2025640047455420B0
:1017D40000687474703A2F2F77692D70726F2E75AC
:1017E400732F646174612F757064617465737369B8
:1017F40064733F00776970726F69643D31303030D3
:101804003030303030300026737369643D005175D8
:10181400657279204C656E6774683A2025640A0005
:1018240053656E742100446F6E65210054727969AA
:101834006E6720746F2045737461626C69736820ED
:10184400436F6E6E656374696F6E2E2E2E0054693D
:101854006D656F75742C20646973636F6E6E656358
:1018640074696E672100436F6E6E656374696F6E91
:1018740020537563636565646564210A00436F756D
:101884006C64206E6F7420636F6E6E6563742E20BB
:1018940045786974696E672E2E2E0A0054582053B9
:1018A400697A653A2025640053656E64696E672E13
:1018B4002E2E0A004275666665723A2025630A0078
:1018C40057726974696E6720746F2052414D3A20D3
:1018D4002563204020616464726573732025640A63
:1018E4000054686973207368697420697320627294
:1018F4006F6B656E004D61736B205265676973741D
:1019040065722056616C75653A2025640A00496E3B
:101914007465727275707420526567697374657248
:101924002056616C75653A2025640A0053656E641F
:10193400204F7065726174696F6E20436F6D706CB7
:101944006574652E0054696D656F7574204F63630B
:101954007572726564206F6E20536F636B657420BB
:10196400302100526563656976696E67204461744D
:10197400612E2E2E00536F636B657420446973636C
:101984006F6E6E65637465642E00536F636B65746C
:10199400203020436F6E6E65637465642E00556E4F
:1019A400646566696E656420496E746572727570EB
:1019B40074204F636375727265642E20496E7420BF
:1019C40056616C75653A20256400416464726573E0
:1019D400733A203078253036780A000A53697A65DC
:1019E4003A2025640A0073797374656D2E707269E8
:1019F4006E745F6C6576656C003100737973746521
:101A04006D2E636D642E6865616465725F656E61D9
:101A1400626C65640073797374656D2E636D642EF6
:101A240070726F6D70745F656E61626C6564006F77
:101A340066660073797374656D2E636D642E6563D9
:101A4400686F006F6E007363616E00776C616E2E59
:101A54007373696400776C616E2E706173736B6568
:101A640079007777772E77692D70726F2E757300F2
:101A7400687474705F676574007463705F636C6925
:101A8400656E74004E6574776F726B205175657264
:101A94007920537472696E67210020485454502F82
:101AA400312E310A686F73743A207777772E77690D
:101AB4002D70726F2E75730A0A0025730056616CBF
:101AC40075653A2025632C20416464726573733A0A
:101AD4002025700A00426567696E2053656E642094
:101AE400436F6D6D616E6400676574200073657487
:101AF4002000436F6D6D616E643A202573204C6540
:101B04006E6774683A2025642C204164647265739E
:101B1400733A2025700A0046726565642100526597
:101B24007475726E696E6721005472616E736D69AB
:101B34007373696F6E204C656E6774683A20256410
:101B44000A00446F6E6520526563656976696E6745
:021B540021006E
:00000001FF
