S0160000566F6C74616765436F6E74726F6C2E737265635B
S11300000C9472000C947C000C947C000C947C0086
S11300100C947C000C947C000C947C000C947C006C
S11300200C947C000C947C000C947C000C947C005C
S11300300C947C000C947C000C947C000C947C004C
S11300400C947C000C947C000C947C000C947C003C
S11300500C947C000C947C000C947C000C947C002C
S11300600C947C000C947C000C947C000C947C001C
S11300700C947C000C947C000C947C000C947C000C
S11300800C947C000C947C000C947C000C947C00FC
S11300900C947C000C947C000C947C000C947C00EC
S11300A00C947C000C947C000C947C000C947C00DC
S11300B00C947C000C947C000C947C000C947C00CC
S11300C00C947C000C947C000C947C000C947C00BC
S11300D00C947C000C947C000C947C000C947C00AC
S11300E00C947C0011241FBECFEFD1E2DEBFCDBF44
S11300F00E947E000C94BE000C9400000E949400A8
S11301000E94A60082E00E94AA000E949E0086E04F
S11301100E94B0000E94B60080E00E94B800FFCFA9
S113012081B38E7981BB08958FEF80BB11BA84B1FE
S1130130806784B985B18F7885B908950E9490004D
S11301408E9A089581B3837E81BB08950E94A20094
S11301502D9A0895813011F4899A089580E00895C4
S1130160813011F4899A089580E008952C9A0895B5
S1130170813011F4899A089580E00895F894FFCFAE
S9030000FC
